{
  "address": "0x069cD64cC7D93b7e69130808338c0c2e561F3629",
  "abi": [
    {
      "anonymous": false,
      "inputs": [
        {
          "indexed": true,
          "internalType": "address",
          "name": "vault",
          "type": "address"
        },
        {
          "indexed": true,
          "internalType": "bytes32",
          "name": "circle",
          "type": "bytes32"
        },
        {
          "indexed": true,
          "internalType": "address",
          "name": "admin",
          "type": "address"
        }
      ],
      "name": "AdminApproved",
      "type": "event"
    },
    {
      "anonymous": false,
      "inputs": [
        {
          "indexed": false,
          "internalType": "address",
          "name": "vault",
          "type": "address"
        },
        {
          "indexed": false,
          "internalType": "bytes32",
          "name": "circle",
          "type": "bytes32"
        },
        {
          "indexed": false,
          "internalType": "address",
          "name": "token",
          "type": "address"
        },
        {
          "indexed": false,
          "internalType": "uint256",
          "name": "amount",
          "type": "uint256"
        },
        {
          "indexed": false,
          "internalType": "uint256",
          "name": "interval",
          "type": "uint256"
        }
      ],
      "name": "AllowanceUpdated",
      "type": "event"
    },
    {
      "anonymous": false,
      "inputs": [
        {
          "indexed": false,
          "internalType": "bytes32",
          "name": "circle",
          "type": "bytes32"
        },
        {
          "indexed": false,
          "internalType": "address",
          "name": "token",
          "type": "address"
        },
        {
          "indexed": false,
          "internalType": "uint256",
          "name": "epoch",
          "type": "uint256"
        },
        {
          "indexed": false,
          "internalType": "uint256",
          "name": "index",
          "type": "uint256"
        },
        {
          "indexed": false,
          "internalType": "address",
          "name": "account",
          "type": "address"
        },
        {
          "indexed": false,
          "internalType": "uint256",
          "name": "amount",
          "type": "uint256"
        }
      ],
      "name": "Claimed",
      "type": "event"
    },
    {
      "anonymous": false,
      "inputs": [
        {
          "indexed": true,
          "internalType": "address",
          "name": "apeVault",
          "type": "address"
        },
        {
          "indexed": false,
          "internalType": "address",
          "name": "yearnVault",
          "type": "address"
        },
        {
          "indexed": false,
          "internalType": "uint256",
          "name": "amount",
          "type": "uint256"
        }
      ],
      "name": "apeVaultFundsTapped",
      "type": "event"
    },
    {
      "inputs": [
        {
          "internalType": "address",
          "name": "",
          "type": "address"
        },
        {
          "internalType": "bytes32",
          "name": "",
          "type": "bytes32"
        },
        {
          "internalType": "address",
          "name": "",
          "type": "address"
        }
      ],
      "name": "allowances",
      "outputs": [
        {
          "internalType": "uint256",
          "name": "maxAmount",
          "type": "uint256"
        },
        {
          "internalType": "uint256",
          "name": "maxInterval",
          "type": "uint256"
        }
      ],
      "stateMutability": "view",
      "type": "function"
    },
    {
      "inputs": [
        {
          "internalType": "bytes32",
          "name": "",
          "type": "bytes32"
        },
        {
          "internalType": "address",
          "name": "",
          "type": "address"
        },
        {
          "internalType": "address",
          "name": "",
          "type": "address"
        }
      ],
      "name": "checkpoints",
      "outputs": [
        {
          "internalType": "uint256",
          "name": "",
          "type": "uint256"
        }
      ],
      "stateMutability": "view",
      "type": "function"
    },
    {
      "inputs": [
        {
          "internalType": "bytes32",
          "name": "",
          "type": "bytes32"
        },
        {
          "internalType": "address",
          "name": "",
          "type": "address"
        }
      ],
      "name": "circleAlloc",
      "outputs": [
        {
          "internalType": "uint256",
          "name": "",
          "type": "uint256"
        }
      ],
      "stateMutability": "view",
      "type": "function"
    },
    {
      "inputs": [
        {
          "internalType": "bytes32",
          "name": "_circle",
          "type": "bytes32"
        },
        {
          "internalType": "address",
          "name": "_token",
          "type": "address"
        },
        {
          "internalType": "uint256",
          "name": "_epoch",
          "type": "uint256"
        },
        {
          "internalType": "uint256",
          "name": "_index",
          "type": "uint256"
        },
        {
          "internalType": "address",
          "name": "_account",
          "type": "address"
        },
        {
          "internalType": "uint256",
          "name": "_checkpoint",
          "type": "uint256"
        },
        {
          "internalType": "bool",
          "name": "_redeemShares",
          "type": "bool"
        },
        {
          "internalType": "bytes32[]",
          "name": "_proof",
          "type": "bytes32[]"
        }
      ],
      "name": "claim",
      "outputs": [],
      "stateMutability": "nonpayable",
      "type": "function"
    },
    {
      "inputs": [
        {
          "internalType": "bytes32[]",
          "name": "_circles",
          "type": "bytes32[]"
        },
        {
          "internalType": "address[]",
          "name": "_tokensAndAccounts",
          "type": "address[]"
        },
        {
          "internalType": "uint256[]",
          "name": "_epochsIndexesCheckpoints",
          "type": "uint256[]"
        },
        {
          "internalType": "bool[]",
          "name": "_redeemShares",
          "type": "bool[]"
        },
        {
          "internalType": "bytes32[][]",
          "name": "_proofs",
          "type": "bytes32[][]"
        }
      ],
      "name": "claimMany",
      "outputs": [],
      "stateMutability": "nonpayable",
      "type": "function"
    },
    {
      "inputs": [
        {
          "internalType": "address",
          "name": "",
          "type": "address"
        },
        {
          "internalType": "bytes32",
          "name": "",
          "type": "bytes32"
        },
        {
          "internalType": "address",
          "name": "",
          "type": "address"
        }
      ],
      "name": "currentAllowances",
      "outputs": [
        {
          "internalType": "uint256",
          "name": "debt",
          "type": "uint256"
        },
        {
          "internalType": "uint256",
          "name": "intervalStart",
          "type": "uint256"
        },
        {
          "internalType": "uint256",
          "name": "epochs",
          "type": "uint256"
        }
      ],
      "stateMutability": "view",
      "type": "function"
    },
    {
      "inputs": [
        {
          "internalType": "bytes32",
          "name": "",
          "type": "bytes32"
        },
        {
          "internalType": "address",
          "name": "",
          "type": "address"
        },
        {
          "internalType": "uint256",
          "name": "",
          "type": "uint256"
        },
        {
          "internalType": "uint256",
          "name": "",
          "type": "uint256"
        }
      ],
      "name": "epochClaimBitMap",
      "outputs": [
        {
          "internalType": "uint256",
          "name": "",
          "type": "uint256"
        }
      ],
      "stateMutability": "view",
      "type": "function"
    },
    {
      "inputs": [
        {
          "internalType": "bytes32",
          "name": "",
          "type": "bytes32"
        },
        {
          "internalType": "address",
          "name": "",
          "type": "address"
        },
        {
          "internalType": "uint256",
          "name": "",
          "type": "uint256"
        }
      ],
      "name": "epochRoots",
      "outputs": [
        {
          "internalType": "bytes32",
          "name": "",
          "type": "bytes32"
        }
      ],
      "stateMutability": "view",
      "type": "function"
    },
    {
      "inputs": [
        {
          "internalType": "bytes32",
          "name": "",
          "type": "bytes32"
        },
        {
          "internalType": "address",
          "name": "",
          "type": "address"
        }
      ],
      "name": "epochTracking",
      "outputs": [
        {
          "internalType": "uint256",
          "name": "",
          "type": "uint256"
        }
      ],
      "stateMutability": "view",
      "type": "function"
    },
    {
      "inputs": [
        {
          "internalType": "bytes32",
          "name": "_circle",
          "type": "bytes32"
        },
        {
          "internalType": "address",
          "name": "_token",
          "type": "address"
        },
        {
          "internalType": "uint256",
          "name": "_epoch",
          "type": "uint256"
        },
        {
          "internalType": "uint256",
          "name": "_index",
          "type": "uint256"
        }
      ],
      "name": "isClaimed",
      "outputs": [
        {
          "internalType": "bool",
          "name": "",
          "type": "bool"
        }
      ],
      "stateMutability": "view",
      "type": "function"
    },
    {
      "inputs": [
        {
          "internalType": "bytes32",
          "name": "_circle",
          "type": "bytes32"
        },
        {
          "internalType": "address",
          "name": "_token",
          "type": "address"
        },
        {
          "internalType": "uint256",
          "name": "_amount",
          "type": "uint256"
        },
        {
          "internalType": "uint256",
          "name": "_interval",
          "type": "uint256"
        },
        {
          "internalType": "uint256",
          "name": "_epochs",
          "type": "uint256"
        },
        {
          "internalType": "uint256",
          "name": "_intervalStart",
          "type": "uint256"
        }
      ],
      "name": "setAllowance",
      "outputs": [],
      "stateMutability": "nonpayable",
      "type": "function"
    },
    {
      "inputs": [
        {
          "internalType": "bytes32",
          "name": "_circle",
          "type": "bytes32"
        },
        {
          "internalType": "address",
          "name": "_admin",
          "type": "address"
        }
      ],
      "name": "updateCircleAdmin",
      "outputs": [],
      "stateMutability": "nonpayable",
      "type": "function"
    },
    {
      "inputs": [
        {
          "internalType": "address",
          "name": "_vault",
          "type": "address"
        },
        {
          "internalType": "bytes32",
          "name": "_circle",
          "type": "bytes32"
        },
        {
          "internalType": "address",
          "name": "_token",
          "type": "address"
        },
        {
          "internalType": "bytes32",
          "name": "_root",
          "type": "bytes32"
        },
        {
          "internalType": "uint256",
          "name": "_amount",
          "type": "uint256"
        },
        {
          "internalType": "uint8",
          "name": "_tapType",
          "type": "uint8"
        }
      ],
      "name": "uploadEpochRoot",
      "outputs": [],
      "stateMutability": "nonpayable",
      "type": "function"
    },
    {
      "inputs": [
        {
          "internalType": "address",
          "name": "",
          "type": "address"
        },
        {
          "internalType": "bytes32",
          "name": "",
          "type": "bytes32"
        }
      ],
      "name": "vaultApprovals",
      "outputs": [
        {
          "internalType": "address",
          "name": "",
          "type": "address"
        }
      ],
      "stateMutability": "view",
      "type": "function"
    }
  ],
  "transactionHash": "0x6f8e9e7affb54101a451bd4b34402a92754b8943bed94d3bca64112eaedfed0c",
  "args": [],
  "solcInputHash": "5c4c3df40c9a1c47594072bf6f28af44",
  "bytecode": "0x608060405234801561001057600080fd5b50611c9f806100206000396000f3fe608060405234801561001057600080fd5b50600436106100ba5760003560e01c806314bfc6af146100bf57806324c17997146100d45780633a5d5a39146100e75780633cff0edf146100fa5780633efd825e1461010d57806344ee97de146101575780637ad851db1461017a57806396ad7fe0146101b9578063a5e0aacd146101e4578063a7fde93f14610215578063af6751b214610228578063c313bac914610262578063da269c091461028d578063e4b8b2dc146102d9575b600080fd5b6100d26100cd36600461176a565b610331565b005b6100d26100e23660046116ff565b610513565b6100d26100f5366004611882565b610a3b565b6100d261010836600461195a565b610aa2565b61014161011b366004611693565b60026020908152600092835260408084209091529082529020546001600160a01b031681565b60405161014e9190611a76565b60405180910390f35b61016a61016536600461191e565b610e5a565b604051901515815260200161014e565b6101ab6101883660046118e7565b600360209081526000938452604080852082529284528284209052825290205481565b60405190815260200161014e565b6101ab6101c7366004611882565b600660209081526000928352604080842090915290825290205481565b6101ab6101f23660046118b1565b600760209081526000938452604080852082529284528284209052825290205481565b6100d26102233660046119f3565b610ec4565b6101ab61023636600461191e565b600560209081526000948552604080862082529385528385208152918452828420909152825290205481565b6101ab610270366004611882565b600460209081526000928352604080842090915290825290205481565b6102c461029b3660046116be565b600060208181529381526040808220855292815282812090935282529020805460019091015482565b6040805192835260208301919091520161014e565b6103166102e73660046116be565b600160208181526000948552604080862082529385528385209052908352912080549181015460029091015483565b6040805193845260208401929092529082015260600161014e565b60005b88811015610507576104f58a8a8381811061035f57634e487b7160e01b600052603260045260246000fd5b9050602002013589898481811061038657634e487b7160e01b600052603260045260246000fd5b905060200201602081019061039b919061165b565b8888858181106103bb57634e487b7160e01b600052603260045260246000fd5b6020029190910135905089896103d2600382611b41565b6103dc9088611b29565b8181106103f957634e487b7160e01b600052603260045260246000fd5b602002919091013590508c8c610410600282611b41565b61041a9089611b29565b81811061043757634e487b7160e01b600052603260045260246000fd5b905060200201602081019061044c919061165b565b8b8b600361045b826002611b55565b6104659190611b41565b61046f908a611b29565b81811061048c57634e487b7160e01b600052603260045260246000fd5b905060200201358a8a898181106104b357634e487b7160e01b600052603260045260246000fd5b90506020020160208101906104c8919061184a565b8989815181106104e857634e487b7160e01b600052603260045260246000fd5b6020026020010151610aa2565b806104ff81611bd2565b915050610334565b50505050505050505050565b6001600160a01b038681166000908152600260209081526040808320898452909152902054163314806105c75750336001600160a01b0316866001600160a01b0316638da5cb5b6040518163ffffffff1660e01b815260040160206040518083038186803b15801561058457600080fd5b505afa158015610598573d6000803e3d6000fd5b505050506040513d601f19601f820116820180604052508101906105bc9190611677565b6001600160a01b0316145b6106165760405162461bcd60e51b815260206004820152601b60248201527a14d95b99195c8818d85b9b9bdd081d5c1b1bd8590818481c9bdbdd602a1b60448201526064015b60405180910390fd5b836001600160a01b0316866001600160a01b031663fbfa77cf6040518163ffffffff1660e01b815260040160206040518083038186803b15801561065957600080fd5b505afa15801561066d573d6000803e3d6000fd5b505050506040513d601f19601f820116820180604052508101906106919190611677565b6001600160a01b0316146106e35760405162461bcd60e51b81526020600482015260196024820152782b30bab63a1031b0b73737ba1039bab838363c903a37b5b2b760391b604482015260640161060d565b6106ef86868685610fc9565b60008581526004602090815260408083206001600160a01b03881680855281845282852080548b8752600386528487208388528652848720818852865293862089905590855292528154909290919061074783611bd2565b909155505060008681526006602090815260408083206001600160a01b03891684529091528120805485929061077e908490611b29565b90915550506040516370a0823160e01b81526000906001600160a01b038716906370a08231906107b2903090600401611a76565b60206040518083038186803b1580156107ca57600080fd5b505afa1580156107de573d6000803e3d6000fd5b505050506040513d601f19601f820116820180604052508101906108029190611a42565b6040516378186c8960e11b81526004810186905260ff851660248201529091506000906001600160a01b038a169063f030d91290604401602060405180830381600087803b15801561085357600080fd5b505af1158015610867573d6000803e3d6000fd5b505050506040513d601f19601f8201168201806040525081019061088b9190611a42565b90506000876001600160a01b03166370a08231306040518263ffffffff1660e01b81526004016108bb9190611a76565b60206040518083038186803b1580156108d357600080fd5b505afa1580156108e7573d6000803e3d6000fd5b505050506040513d601f19601f8201168201806040525081019061090b9190611a42565b9050856109188483611b74565b146109765760405162461bcd60e51b815260206004820152602860248201527f446964206e6f74207265636569766520636f727265637420616d6f756e74206f6044820152676620746f6b656e7360c01b606482015260840161060d565b811561050757896001600160a01b03167fd6d31664ac233bdf992f7612da7041d6018fefa9dd721706daf0b9ae7f44385b8b6001600160a01b031663fbfa77cf6040518163ffffffff1660e01b815260040160206040518083038186803b1580156109e057600080fd5b505afa1580156109f4573d6000803e3d6000fd5b505050506040513d601f19601f82011682018060405250810190610a189190611677565b84604051610a27929190611a8a565b60405180910390a250505050505050505050565b33600081815260026020908152604080832086845290915280822080546001600160a01b0319166001600160a01b03861690811790915590519092859290917f99c55459df64a58c031e4e675400c552c7ab3fb4952eaae32b64a091b14f7bcd9190a45050565b610aae88888888610e5a565b15610aed5760405162461bcd60e51b815260206004820152600f60248201526e436c61696d656420616c726561647960881b604482015260640161060d565b604080516020808201889052606087901b6001600160601b031916828401526054808301879052835180840390910181526074909201835281519181019190912060008b8152600383528381206001600160a01b038c16825283528381208a825290925291902054610b61908390836110c0565b610b9b5760405162461bcd60e51b815260206004820152600b60248201526a2bb937b73390383937b7b360a91b604482015260640161060d565b60008981526007602090815260408083206001600160a01b03808d1685529083528184209089168452909152902054808511610c355760405162461bcd60e51b815260206004820152603360248201527f476976656e20636865636b706f696e74206e6f7420686967686572207468616e6044820152720818dd5c9c995b9d0818da1958dadc1bda5b9d606a1b606482015260840161060d565b6000610c418287611b74565b60008c81526006602090815260408083206001600160a01b038f168452909152902054909150811115610cc75760405162461bcd60e51b815260206004820152602860248201527f43616e277420636c61696d206d6f7265207468616e20636972636c652068617360448201526720746f206769766560c01b606482015260840161060d565b60008b81526006602090815260408083206001600160a01b038e16845290915281208054839290610cf9908490611b74565b909155505060008b81526007602090815260408083206001600160a01b03808f168552908352818420908b1684529091529020869055610d3b8b8b8b8b61117f565b848015610d505750336001600160a01b038816145b15610ddb57604051627b8a6760e11b8152600481018290526001600160a01b0388811660248301528b169062f714ce90604401602060405180830381600087803b158015610d9d57600080fd5b505af1158015610db1573d6000803e3d6000fd5b505050506040513d601f19601f82011682018060405250810190610dd59190611a42565b50610def565b610def6001600160a01b038b1688836111e7565b604080518c81526001600160a01b038c811660208301528183018c9052606082018b90528916608082015260a0810183905290517fb10818ceba602fc2afff1d6cb498e455f7c78c5a62055ac2a417364293a950509181900360c00190a15050505050505050505050565b600080610e6961010084611b41565b90506000610e7961010085611bed565b60008881526005602090815260408083206001600160a01b038b168452825280832089845282528083209583529490529290922054600190921b918216909114915050949350505050565b60408051808201825285815260208082018681523360009081528083528481208b825283528481206001600160a01b038b168252835284812093518455905160019093019290925582516060810190935290825281018215610f265782610f28565b425b81526020908101849052336000818152600180845260408083208c845285528083206001600160a01b038c16808552908652928190208651815586860151928101929092559485015160029091015583519182529181018990529182015260608101859052608081018490527f13241e168a73dc44609b3c902bf37a573168224a56087e3bf181bfab79a617e09060a00160405180910390a1505050505050565b6001600160a01b03808516600081815260208181526040808320888452825280832094871680845294825280832081518083018352815481526001918201548185015294845282528083208884528252808320948352939052919091206110308183611242565b8151815461103f908590611b29565b111561109f5760405162461bcd60e51b815260206004820152602960248201527f436972636c6520646f6573206e6f7420686176652073756666696369656e7420604482015268616c6c6f77616e636560b81b606482015260840161060d565b828160000160008282546110b39190611b29565b9091555050505050505050565b600081815b85518110156111725760008682815181106110f057634e487b7160e01b600052603260045260246000fd5b6020026020010151905080831161113257604080516020810185905290810182905260600160405160208183030381529060405280519060200120925061115f565b60408051602081018390529081018490526060016040516020818303038152906040528051906020012092505b508061116a81611bd2565b9150506110c5565b50831490505b9392505050565b600061118d61010083611b41565b9050600061119d61010084611bed565b60009687526005602090815260408089206001600160a01b03909816895296815286882095885294855285872092875291909352929093208054600190931b929092179091555050565b61123d8363a9059cbb60e01b8484604051602401611206929190611a8a565b60408051601f198184030181529190526020810180516001600160e01b03166001600160e01b031990931692909217909152611308565b505050565b60008260010154426112549190611b74565b9050816020015181111561123d5760008360020154116112b25760405162461bcd60e51b8152602060048201526019602482015278436972636c652063616e6e6f742074617020616e796d6f726560381b604482015260640161060d565b6000835560208201516112c59082611b41565b82602001516112d49190611b55565b8360010160008282546112e79190611b29565b90915550506002830180549060006112fe83611bbb565b9190505550505050565b600061135d826040518060400160405280602081526020017f5361666545524332303a206c6f772d6c6576656c2063616c6c206661696c6564815250856001600160a01b03166113da9092919063ffffffff16565b80519091501561123d578080602001905181019061137b9190611866565b61123d5760405162461bcd60e51b815260206004820152602a60248201527f5361666545524332303a204552433230206f7065726174696f6e20646964206e6044820152691bdd081cdd58d8d9595960b21b606482015260840161060d565b60606113e984846000856113f1565b949350505050565b6060824710156114525760405162461bcd60e51b815260206004820152602660248201527f416464726573733a20696e73756666696369656e742062616c616e636520666f6044820152651c8818d85b1b60d21b606482015260840161060d565b843b6114a05760405162461bcd60e51b815260206004820152601d60248201527f416464726573733a2063616c6c20746f206e6f6e2d636f6e7472616374000000604482015260640161060d565b600080866001600160a01b031685876040516114bc9190611a5a565b60006040518083038185875af1925050503d80600081146114f9576040519150601f19603f3d011682016040523d82523d6000602084013e6114fe565b606091505b509150915061150e828286611519565b979650505050505050565b60608315611528575081611178565b8251156115385782518084602001fd5b8160405162461bcd60e51b815260040161060d9190611aa3565b60008083601f840112611563578182fd5b5081356001600160401b03811115611579578182fd5b602083019150836020808302850101111561159357600080fd5b9250929050565b600082601f8301126115aa578081fd5b813560206115bf6115ba83611b06565b611ad6565b82815281810190858301855b858110156115f4576115e2898684358b0101611601565b845292840192908401906001016115cb565b5090979650505050505050565b600082601f830112611611578081fd5b813560206116216115ba83611b06565b828152818101908583018385028701840188101561163d578586fd5b855b858110156115f45781358452928401929084019060010161163f565b60006020828403121561166c578081fd5b813561117881611c43565b600060208284031215611688578081fd5b815161117881611c43565b600080604083850312156116a5578081fd5b82356116b081611c43565b946020939093013593505050565b6000806000606084860312156116d2578081fd5b83356116dd81611c43565b92506020840135915060408401356116f481611c43565b809150509250925092565b60008060008060008060c08789031215611717578182fd5b863561172281611c43565b955060208701359450604087013561173981611c43565b9350606087013592506080870135915060a087013560ff8116811461175c578182fd5b809150509295509295509295565b600080600080600080600080600060a08a8c031215611787578283fd5b89356001600160401b038082111561179d578485fd5b6117a98d838e01611552565b909b50995060208c01359150808211156117c1578485fd5b6117cd8d838e01611552565b909950975060408c01359150808211156117e5578485fd5b6117f18d838e01611552565b909750955060608c0135915080821115611809578485fd5b6118158d838e01611552565b909550935060808c013591508082111561182d578283fd5b5061183a8c828d0161159a565b9150509295985092959850929598565b60006020828403121561185b578081fd5b813561117881611c5b565b600060208284031215611877578081fd5b815161117881611c5b565b60008060408385031215611894578182fd5b8235915060208301356118a681611c43565b809150509250929050565b6000806000606084860312156118c5578081fd5b8335925060208401356118d781611c43565b915060408401356116f481611c43565b6000806000606084860312156118fb578081fd5b83359250602084013561190d81611c43565b929592945050506040919091013590565b60008060008060808587031215611933578182fd5b84359350602085013561194581611c43565b93969395505050506040820135916060013590565b600080600080600080600080610100898b031215611976578182fd5b88359750602089013561198881611c43565b9650604089013595506060890135945060808901356119a681611c43565b935060a0890135925060c08901356119bd81611c5b565b915060e08901356001600160401b038111156119d7578182fd5b6119e38b828c01611601565b9150509295985092959890939650565b60008060008060008060c08789031215611a0b578384fd5b863595506020870135611a1d81611c43565b95989597505050506040840135936060810135936080820135935060a0909101359150565b600060208284031215611a53578081fd5b5051919050565b60008251611a6c818460208701611b8b565b9190910192915050565b6001600160a01b0391909116815260200190565b6001600160a01b03929092168252602082015260400190565b6000602082528251806020840152611ac2816040850160208701611b8b565b601f01601f19169190910160400192915050565b604051601f8201601f191681016001600160401b0381118282101715611afe57611afe611c2d565b604052919050565b60006001600160401b03821115611b1f57611b1f611c2d565b5060209081020190565b60008219821115611b3c57611b3c611c01565b500190565b600082611b5057611b50611c17565b500490565b6000816000190483118215151615611b6f57611b6f611c01565b500290565b600082821015611b8657611b86611c01565b500390565b60005b83811015611ba6578181015183820152602001611b8e565b83811115611bb5576000848401525b50505050565b600081611bca57611bca611c01565b506000190190565b6000600019821415611be657611be6611c01565b5060010190565b600082611bfc57611bfc611c17565b500690565b634e487b7160e01b600052601160045260246000fd5b634e487b7160e01b600052601260045260246000fd5b634e487b7160e01b600052604160045260246000fd5b6001600160a01b0381168114611c5857600080fd5b50565b8015158114611c5857600080fdfea2646970667358221220933d57d378d44c66de2d3d586fda7ff5658ef54b6b87ecd3bd9e0af93fa2330e64736f6c63430008020033",
  "devdoc": {
    "kind": "dev",
    "methods": {
      "claim(bytes32,address,uint256,uint256,address,uint256,bool,bytes32[])": {
        "params": {
          "_account": "Address of user",
          "_checkpoint": "Total amount of tokens claimed by user (enables to claim multiple epochs at once)",
          "_circle": "Circle ID of the user",
          "_epoch": "Epoch ID associated to the claim",
          "_index": "Position of user's address in the merkle tree",
          "_proof": "Merkle proof to verify user is entitled to claim",
          "_redeemShares": "Boolean to allow user to redeem underlying tokens of a yearn vault (prerequisite: _token must be a yvToken)",
          "_token": "Address of token claimed"
        }
      },
      "claimMany(bytes32[],address[],uint256[],bool[],bytes32[][])": {
        "params": {
          "_circles": "Array of Circle IDs of the user",
          "_epochsIndexesCheckpoints": "Array contaning  Epoch IDs, indexes of user in merkle trees and checkpoints associated to the claim",
          "_proofs": "Array of merkle proofs to verify user is entitled to claim",
          "_redeemShares": "Boolean array  to allow user to redeem underlying tokens of a yearn vault (prerequisite: _token must be a yvToken)",
          "_tokensAndAccounts": "Array containing token addresses and accounts of user"
        }
      },
      "setAllowance(bytes32,address,uint256,uint256,uint256,uint256)": {
        "params": {
          "_amount": "Amount to take out at most",
          "_circle": "Circle ID receiving the allowance",
          "_epochs": "Amount of epochs to fund. Expected_funded_epochs = _epochs + 1",
          "_interval": "Duration of an epoch in seconds",
          "_intervalStart": "Unix timestamp fromw hich epoch starts (block.timestamp if 0)",
          "_token": "Address of token to allocate"
        }
      },
      "updateCircleAdmin(bytes32,address)": {
        "params": {
          "_admin": "Address of allowed admin to call `uploadEpochRoot`",
          "_circle": "Circle ID of future admin"
        }
      },
      "uploadEpochRoot(address,bytes32,address,bytes32,uint256,uint8)": {
        "params": {
          "_amount": "Amount of tokens to withdraw",
          "_circle": "Circle ID querying the funds",
          "_root": "Merkle root of the current circle's epoch",
          "_tapType": "Ape vault's type tap (pure profit, mixed, simple token)",
          "_token": "Address of the token to withdraw from the vault",
          "_vault": "Address of ape vault from which to take funds from"
        }
      }
    },
    "version": 1
  },
  "userdoc": {
    "kind": "user",
    "methods": {
      "claim(bytes32,address,uint256,uint256,address,uint256,bool,bytes32[])": {
        "notice": "Used to allow circle users to claim their allocation of a given epoch"
      },
      "claimMany(bytes32[],address[],uint256[],bool[],bytes32[][])": {
        "notice": "Used to allow circle users to claim many tokens at once if applicable Operated similarly to the `claim` function but due to \"Stack too deep errors\", input data was concatenated into similar typed arrays"
      },
      "setAllowance(bytes32,address,uint256,uint256,uint256,uint256)": {
        "notice": "Used to set an allowance of a circle from an ape vault. Setting _epochs at 0 with a non-zero _amount entitles the circle to one epoch of funds"
      },
      "updateCircleAdmin(bytes32,address)": {
        "notice": "Used to allow an ape vault owner to set an admin for a circle"
      },
      "uploadEpochRoot(address,bytes32,address,bytes32,uint256,uint8)": {
        "notice": "Used to allow a circle to supply an epoch with funds from a given ape vault"
      }
    },
    "version": 1
  },
  "storageLayout": {
    "storage": [
      {
        "astId": 4074,
        "contract": "contracts/coordinape-protocol/contracts/ApeProtocol/ApeDistributor.sol:ApeDistributor",
        "label": "allowances",
        "offset": 0,
        "slot": "0",
        "type": "t_mapping(t_address,t_mapping(t_bytes32,t_mapping(t_address,t_struct(Allowance)4058_storage)))"
      },
      {
        "astId": 4083,
        "contract": "contracts/coordinape-protocol/contracts/ApeProtocol/ApeDistributor.sol:ApeDistributor",
        "label": "currentAllowances",
        "offset": 0,
        "slot": "1",
        "type": "t_mapping(t_address,t_mapping(t_bytes32,t_mapping(t_address,t_struct(CurrentAllowance)4065_storage)))"
      },
      {
        "astId": 4296,
        "contract": "contracts/coordinape-protocol/contracts/ApeProtocol/ApeDistributor.sol:ApeDistributor",
        "label": "vaultApprovals",
        "offset": 0,
        "slot": "2",
        "type": "t_mapping(t_address,t_mapping(t_bytes32,t_address))"
      },
      {
        "astId": 4304,
        "contract": "contracts/coordinape-protocol/contracts/ApeProtocol/ApeDistributor.sol:ApeDistributor",
        "label": "epochRoots",
        "offset": 0,
        "slot": "3",
        "type": "t_mapping(t_bytes32,t_mapping(t_address,t_mapping(t_uint256,t_bytes32)))"
      },
      {
        "astId": 4310,
        "contract": "contracts/coordinape-protocol/contracts/ApeProtocol/ApeDistributor.sol:ApeDistributor",
        "label": "epochTracking",
        "offset": 0,
        "slot": "4",
        "type": "t_mapping(t_bytes32,t_mapping(t_address,t_uint256))"
      },
      {
        "astId": 4320,
        "contract": "contracts/coordinape-protocol/contracts/ApeProtocol/ApeDistributor.sol:ApeDistributor",
        "label": "epochClaimBitMap",
        "offset": 0,
        "slot": "5",
        "type": "t_mapping(t_bytes32,t_mapping(t_address,t_mapping(t_uint256,t_mapping(t_uint256,t_uint256))))"
      },
      {
        "astId": 4326,
        "contract": "contracts/coordinape-protocol/contracts/ApeProtocol/ApeDistributor.sol:ApeDistributor",
        "label": "circleAlloc",
        "offset": 0,
        "slot": "6",
        "type": "t_mapping(t_bytes32,t_mapping(t_address,t_uint256))"
      },
      {
        "astId": 4334,
        "contract": "contracts/coordinape-protocol/contracts/ApeProtocol/ApeDistributor.sol:ApeDistributor",
        "label": "checkpoints",
        "offset": 0,
        "slot": "7",
        "type": "t_mapping(t_bytes32,t_mapping(t_address,t_mapping(t_address,t_uint256)))"
      }
    ],
    "types": {
      "t_address": {
        "encoding": "inplace",
        "label": "address",
        "numberOfBytes": "20"
      },
      "t_bytes32": {
        "encoding": "inplace",
        "label": "bytes32",
        "numberOfBytes": "32"
      },
      "t_mapping(t_address,t_mapping(t_address,t_uint256))": {
        "encoding": "mapping",
        "key": "t_address",
        "label": "mapping(address => mapping(address => uint256))",
        "numberOfBytes": "32",
        "value": "t_mapping(t_address,t_uint256)"
      },
      "t_mapping(t_address,t_mapping(t_bytes32,t_address))": {
        "encoding": "mapping",
        "key": "t_address",
        "label": "mapping(address => mapping(bytes32 => address))",
        "numberOfBytes": "32",
        "value": "t_mapping(t_bytes32,t_address)"
      },
      "t_mapping(t_address,t_mapping(t_bytes32,t_mapping(t_address,t_struct(Allowance)4058_storage)))": {
        "encoding": "mapping",
        "key": "t_address",
        "label": "mapping(address => mapping(bytes32 => mapping(address => struct ApeAllowanceModule.Allowance)))",
        "numberOfBytes": "32",
        "value": "t_mapping(t_bytes32,t_mapping(t_address,t_struct(Allowance)4058_storage))"
      },
      "t_mapping(t_address,t_mapping(t_bytes32,t_mapping(t_address,t_struct(CurrentAllowance)4065_storage)))": {
        "encoding": "mapping",
        "key": "t_address",
        "label": "mapping(address => mapping(bytes32 => mapping(address => struct ApeAllowanceModule.CurrentAllowance)))",
        "numberOfBytes": "32",
        "value": "t_mapping(t_bytes32,t_mapping(t_address,t_struct(CurrentAllowance)4065_storage))"
      },
      "t_mapping(t_address,t_mapping(t_uint256,t_bytes32))": {
        "encoding": "mapping",
        "key": "t_address",
        "label": "mapping(address => mapping(uint256 => bytes32))",
        "numberOfBytes": "32",
        "value": "t_mapping(t_uint256,t_bytes32)"
      },
      "t_mapping(t_address,t_mapping(t_uint256,t_mapping(t_uint256,t_uint256)))": {
        "encoding": "mapping",
        "key": "t_address",
        "label": "mapping(address => mapping(uint256 => mapping(uint256 => uint256)))",
        "numberOfBytes": "32",
        "value": "t_mapping(t_uint256,t_mapping(t_uint256,t_uint256))"
      },
      "t_mapping(t_address,t_struct(Allowance)4058_storage)": {
        "encoding": "mapping",
        "key": "t_address",
        "label": "mapping(address => struct ApeAllowanceModule.Allowance)",
        "numberOfBytes": "32",
        "value": "t_struct(Allowance)4058_storage"
      },
      "t_mapping(t_address,t_struct(CurrentAllowance)4065_storage)": {
        "encoding": "mapping",
        "key": "t_address",
        "label": "mapping(address => struct ApeAllowanceModule.CurrentAllowance)",
        "numberOfBytes": "32",
        "value": "t_struct(CurrentAllowance)4065_storage"
      },
      "t_mapping(t_address,t_uint256)": {
        "encoding": "mapping",
        "key": "t_address",
        "label": "mapping(address => uint256)",
        "numberOfBytes": "32",
        "value": "t_uint256"
      },
      "t_mapping(t_bytes32,t_address)": {
        "encoding": "mapping",
        "key": "t_bytes32",
        "label": "mapping(bytes32 => address)",
        "numberOfBytes": "32",
        "value": "t_address"
      },
      "t_mapping(t_bytes32,t_mapping(t_address,t_mapping(t_address,t_uint256)))": {
        "encoding": "mapping",
        "key": "t_bytes32",
        "label": "mapping(bytes32 => mapping(address => mapping(address => uint256)))",
        "numberOfBytes": "32",
        "value": "t_mapping(t_address,t_mapping(t_address,t_uint256))"
      },
      "t_mapping(t_bytes32,t_mapping(t_address,t_mapping(t_uint256,t_bytes32)))": {
        "encoding": "mapping",
        "key": "t_bytes32",
        "label": "mapping(bytes32 => mapping(address => mapping(uint256 => bytes32)))",
        "numberOfBytes": "32",
        "value": "t_mapping(t_address,t_mapping(t_uint256,t_bytes32))"
      },
      "t_mapping(t_bytes32,t_mapping(t_address,t_mapping(t_uint256,t_mapping(t_uint256,t_uint256))))": {
        "encoding": "mapping",
        "key": "t_bytes32",
        "label": "mapping(bytes32 => mapping(address => mapping(uint256 => mapping(uint256 => uint256))))",
        "numberOfBytes": "32",
        "value": "t_mapping(t_address,t_mapping(t_uint256,t_mapping(t_uint256,t_uint256)))"
      },
      "t_mapping(t_bytes32,t_mapping(t_address,t_struct(Allowance)4058_storage))": {
        "encoding": "mapping",
        "key": "t_bytes32",
        "label": "mapping(bytes32 => mapping(address => struct ApeAllowanceModule.Allowance))",
        "numberOfBytes": "32",
        "value": "t_mapping(t_address,t_struct(Allowance)4058_storage)"
      },
      "t_mapping(t_bytes32,t_mapping(t_address,t_struct(CurrentAllowance)4065_storage))": {
        "encoding": "mapping",
        "key": "t_bytes32",
        "label": "mapping(bytes32 => mapping(address => struct ApeAllowanceModule.CurrentAllowance))",
        "numberOfBytes": "32",
        "value": "t_mapping(t_address,t_struct(CurrentAllowance)4065_storage)"
      },
      "t_mapping(t_bytes32,t_mapping(t_address,t_uint256))": {
        "encoding": "mapping",
        "key": "t_bytes32",
        "label": "mapping(bytes32 => mapping(address => uint256))",
        "numberOfBytes": "32",
        "value": "t_mapping(t_address,t_uint256)"
      },
      "t_mapping(t_uint256,t_bytes32)": {
        "encoding": "mapping",
        "key": "t_uint256",
        "label": "mapping(uint256 => bytes32)",
        "numberOfBytes": "32",
        "value": "t_bytes32"
      },
      "t_mapping(t_uint256,t_mapping(t_uint256,t_uint256))": {
        "encoding": "mapping",
        "key": "t_uint256",
        "label": "mapping(uint256 => mapping(uint256 => uint256))",
        "numberOfBytes": "32",
        "value": "t_mapping(t_uint256,t_uint256)"
      },
      "t_mapping(t_uint256,t_uint256)": {
        "encoding": "mapping",
        "key": "t_uint256",
        "label": "mapping(uint256 => uint256)",
        "numberOfBytes": "32",
        "value": "t_uint256"
      },
      "t_struct(Allowance)4058_storage": {
        "encoding": "inplace",
        "label": "struct ApeAllowanceModule.Allowance",
        "members": [
          {
            "astId": 4055,
            "contract": "contracts/coordinape-protocol/contracts/ApeProtocol/ApeDistributor.sol:ApeDistributor",
            "label": "maxAmount",
            "offset": 0,
            "slot": "0",
            "type": "t_uint256"
          },
          {
            "astId": 4057,
            "contract": "contracts/coordinape-protocol/contracts/ApeProtocol/ApeDistributor.sol:ApeDistributor",
            "label": "maxInterval",
            "offset": 0,
            "slot": "1",
            "type": "t_uint256"
          }
        ],
        "numberOfBytes": "64"
      },
      "t_struct(CurrentAllowance)4065_storage": {
        "encoding": "inplace",
        "label": "struct ApeAllowanceModule.CurrentAllowance",
        "members": [
          {
            "astId": 4060,
            "contract": "contracts/coordinape-protocol/contracts/ApeProtocol/ApeDistributor.sol:ApeDistributor",
            "label": "debt",
            "offset": 0,
            "slot": "0",
            "type": "t_uint256"
          },
          {
            "astId": 4062,
            "contract": "contracts/coordinape-protocol/contracts/ApeProtocol/ApeDistributor.sol:ApeDistributor",
            "label": "intervalStart",
            "offset": 0,
            "slot": "1",
            "type": "t_uint256"
          },
          {
            "astId": 4064,
            "contract": "contracts/coordinape-protocol/contracts/ApeProtocol/ApeDistributor.sol:ApeDistributor",
            "label": "epochs",
            "offset": 0,
            "slot": "2",
            "type": "t_uint256"
          }
        ],
        "numberOfBytes": "96"
      },
      "t_uint256": {
        "encoding": "inplace",
        "label": "uint256",
        "numberOfBytes": "32"
      }
    }
  }
}