{
  "address": "0x069cD64cC7D93b7e69130808338c0c2e561F3629",
  "abi": [
    {
      "anonymous": false,
      "inputs": [
        {
          "indexed": true,
          "internalType": "address",
          "name": "vault",
          "type": "address"
        },
        {
          "indexed": true,
          "internalType": "bytes32",
          "name": "circle",
          "type": "bytes32"
        },
        {
          "indexed": true,
          "internalType": "address",
          "name": "admin",
          "type": "address"
        }
      ],
      "name": "AdminApproved",
      "type": "event"
    },
    {
      "anonymous": false,
      "inputs": [
        {
          "indexed": false,
          "internalType": "address",
          "name": "vault",
          "type": "address"
        },
        {
          "indexed": false,
          "internalType": "bytes32",
          "name": "circle",
          "type": "bytes32"
        },
        {
          "indexed": false,
          "internalType": "address",
          "name": "token",
          "type": "address"
        },
        {
          "indexed": false,
          "internalType": "uint256",
          "name": "amount",
          "type": "uint256"
        },
        {
          "indexed": false,
          "internalType": "uint256",
          "name": "interval",
          "type": "uint256"
        }
      ],
      "name": "AllowanceUpdated",
      "type": "event"
    },
    {
      "anonymous": false,
      "inputs": [
        {
          "indexed": false,
          "internalType": "bytes32",
          "name": "circle",
          "type": "bytes32"
        },
        {
          "indexed": false,
          "internalType": "address",
          "name": "token",
          "type": "address"
        },
        {
          "indexed": false,
          "internalType": "uint256",
          "name": "epoch",
          "type": "uint256"
        },
        {
          "indexed": false,
          "internalType": "uint256",
          "name": "index",
          "type": "uint256"
        },
        {
          "indexed": false,
          "internalType": "address",
          "name": "account",
          "type": "address"
        },
        {
          "indexed": false,
          "internalType": "uint256",
          "name": "amount",
          "type": "uint256"
        }
      ],
      "name": "Claimed",
      "type": "event"
    },
    {
      "anonymous": false,
      "inputs": [
        {
          "indexed": true,
          "internalType": "address",
          "name": "previousOwner",
          "type": "address"
        },
        {
          "indexed": true,
          "internalType": "address",
          "name": "newOwner",
          "type": "address"
        }
      ],
      "name": "OwnershipTransferred",
      "type": "event"
    },
    {
      "anonymous": false,
      "inputs": [
        {
          "indexed": true,
          "internalType": "address",
          "name": "apeVault",
          "type": "address"
        },
        {
          "indexed": false,
          "internalType": "address",
          "name": "yearnVault",
          "type": "address"
        },
        {
          "indexed": false,
          "internalType": "uint256",
          "name": "amount",
          "type": "uint256"
        }
      ],
      "name": "apeVaultFundsTapped",
      "type": "event"
    },
    {
      "inputs": [
        {
          "internalType": "address",
          "name": "",
          "type": "address"
        },
        {
          "internalType": "bytes32",
          "name": "",
          "type": "bytes32"
        },
        {
          "internalType": "address",
          "name": "",
          "type": "address"
        }
      ],
      "name": "allowances",
      "outputs": [
        {
          "internalType": "uint256",
          "name": "maxAmount",
          "type": "uint256"
        },
        {
          "internalType": "uint256",
          "name": "maxInterval",
          "type": "uint256"
        }
      ],
      "stateMutability": "view",
      "type": "function"
    },
    {
      "inputs": [
        {
          "internalType": "bytes32",
          "name": "",
          "type": "bytes32"
        },
        {
          "internalType": "address",
          "name": "",
          "type": "address"
        },
        {
          "internalType": "address",
          "name": "",
          "type": "address"
        }
      ],
      "name": "checkpoints",
      "outputs": [
        {
          "internalType": "uint256",
          "name": "",
          "type": "uint256"
        }
      ],
      "stateMutability": "view",
      "type": "function"
    },
    {
      "inputs": [
        {
          "internalType": "bytes32",
          "name": "",
          "type": "bytes32"
        },
        {
          "internalType": "address",
          "name": "",
          "type": "address"
        }
      ],
      "name": "circleAlloc",
      "outputs": [
        {
          "internalType": "uint256",
          "name": "",
          "type": "uint256"
        }
      ],
      "stateMutability": "view",
      "type": "function"
    },
    {
      "inputs": [
        {
          "internalType": "bytes32",
          "name": "_circle",
          "type": "bytes32"
        },
        {
          "internalType": "address",
          "name": "_token",
          "type": "address"
        },
        {
          "internalType": "uint256",
          "name": "_epoch",
          "type": "uint256"
        },
        {
          "internalType": "uint256",
          "name": "_index",
          "type": "uint256"
        },
        {
          "internalType": "address",
          "name": "_account",
          "type": "address"
        },
        {
          "internalType": "uint256",
          "name": "_checkpoint",
          "type": "uint256"
        },
        {
          "internalType": "bool",
          "name": "_redeemShares",
          "type": "bool"
        },
        {
          "internalType": "bytes32[]",
          "name": "_proof",
          "type": "bytes32[]"
        }
      ],
      "name": "claim",
      "outputs": [],
      "stateMutability": "nonpayable",
      "type": "function"
    },
    {
      "inputs": [
        {
          "internalType": "bytes32[]",
          "name": "_circles",
          "type": "bytes32[]"
        },
        {
          "internalType": "address[]",
          "name": "_tokensAndAccounts",
          "type": "address[]"
        },
        {
          "internalType": "uint256[]",
          "name": "_epochsIndexesCheckpoints",
          "type": "uint256[]"
        },
        {
          "internalType": "bool[]",
          "name": "_redeemShares",
          "type": "bool[]"
        },
        {
          "internalType": "bytes32[][]",
          "name": "_proofs",
          "type": "bytes32[][]"
        }
      ],
      "name": "claimMany",
      "outputs": [],
      "stateMutability": "nonpayable",
      "type": "function"
    },
    {
      "inputs": [
        {
          "internalType": "address",
          "name": "",
          "type": "address"
        },
        {
          "internalType": "bytes32",
          "name": "",
          "type": "bytes32"
        },
        {
          "internalType": "address",
          "name": "",
          "type": "address"
        }
      ],
      "name": "currentAllowances",
      "outputs": [
        {
          "internalType": "uint256",
          "name": "debt",
          "type": "uint256"
        },
        {
          "internalType": "uint256",
          "name": "intervalStart",
          "type": "uint256"
        },
        {
          "internalType": "uint256",
          "name": "epochs",
          "type": "uint256"
        }
      ],
      "stateMutability": "view",
      "type": "function"
    },
    {
      "inputs": [
        {
          "internalType": "bytes32",
          "name": "",
          "type": "bytes32"
        },
        {
          "internalType": "address",
          "name": "",
          "type": "address"
        },
        {
          "internalType": "uint256",
          "name": "",
          "type": "uint256"
        },
        {
          "internalType": "uint256",
          "name": "",
          "type": "uint256"
        }
      ],
      "name": "epochClaimBitMap",
      "outputs": [
        {
          "internalType": "uint256",
          "name": "",
          "type": "uint256"
        }
      ],
      "stateMutability": "view",
      "type": "function"
    },
    {
      "inputs": [
        {
          "internalType": "bytes32",
          "name": "",
          "type": "bytes32"
        },
        {
          "internalType": "address",
          "name": "",
          "type": "address"
        },
        {
          "internalType": "uint256",
          "name": "",
          "type": "uint256"
        }
      ],
      "name": "epochRoots",
      "outputs": [
        {
          "internalType": "bytes32",
          "name": "",
          "type": "bytes32"
        }
      ],
      "stateMutability": "view",
      "type": "function"
    },
    {
      "inputs": [
        {
          "internalType": "bytes32",
          "name": "",
          "type": "bytes32"
        },
        {
          "internalType": "address",
          "name": "",
          "type": "address"
        }
      ],
      "name": "epochTracking",
      "outputs": [
        {
          "internalType": "uint256",
          "name": "",
          "type": "uint256"
        }
      ],
      "stateMutability": "view",
      "type": "function"
    },
    {
      "inputs": [
        {
          "internalType": "bytes32",
          "name": "_circle",
          "type": "bytes32"
        },
        {
          "internalType": "address",
          "name": "_token",
          "type": "address"
        },
        {
          "internalType": "uint256",
          "name": "_epoch",
          "type": "uint256"
        },
        {
          "internalType": "uint256",
          "name": "_index",
          "type": "uint256"
        }
      ],
      "name": "isClaimed",
      "outputs": [
        {
          "internalType": "bool",
          "name": "",
          "type": "bool"
        }
      ],
      "stateMutability": "view",
      "type": "function"
    },
    {
      "inputs": [],
      "name": "owner",
      "outputs": [
        {
          "internalType": "address",
          "name": "",
          "type": "address"
        }
      ],
      "stateMutability": "view",
      "type": "function"
    },
    {
      "inputs": [],
      "name": "renounceOwnership",
      "outputs": [],
      "stateMutability": "nonpayable",
      "type": "function"
    },
    {
      "inputs": [
        {
          "internalType": "bytes32",
          "name": "_circle",
          "type": "bytes32"
        },
        {
          "internalType": "address",
          "name": "_token",
          "type": "address"
        },
        {
          "internalType": "uint256",
          "name": "_amount",
          "type": "uint256"
        },
        {
          "internalType": "uint256",
          "name": "_interval",
          "type": "uint256"
        },
        {
          "internalType": "uint256",
          "name": "_epochs",
          "type": "uint256"
        }
      ],
      "name": "setAllowance",
      "outputs": [],
      "stateMutability": "nonpayable",
      "type": "function"
    },
    {
      "inputs": [
        {
          "internalType": "address",
          "name": "newOwner",
          "type": "address"
        }
      ],
      "name": "transferOwnership",
      "outputs": [],
      "stateMutability": "nonpayable",
      "type": "function"
    },
    {
      "inputs": [
        {
          "internalType": "bytes32",
          "name": "_circle",
          "type": "bytes32"
        },
        {
          "internalType": "address",
          "name": "_admin",
          "type": "address"
        }
      ],
      "name": "updateCircleAdmin",
      "outputs": [],
      "stateMutability": "nonpayable",
      "type": "function"
    },
    {
      "inputs": [
        {
          "internalType": "address",
          "name": "_vault",
          "type": "address"
        },
        {
          "internalType": "bytes32",
          "name": "_circle",
          "type": "bytes32"
        },
        {
          "internalType": "address",
          "name": "_token",
          "type": "address"
        },
        {
          "internalType": "bytes32",
          "name": "_root",
          "type": "bytes32"
        },
        {
          "internalType": "uint256",
          "name": "_amount",
          "type": "uint256"
        },
        {
          "internalType": "uint8",
          "name": "_tapType",
          "type": "uint8"
        }
      ],
      "name": "uploadEpochRoot",
      "outputs": [],
      "stateMutability": "nonpayable",
      "type": "function"
    },
    {
      "inputs": [
        {
          "internalType": "address",
          "name": "",
          "type": "address"
        },
        {
          "internalType": "bytes32",
          "name": "",
          "type": "bytes32"
        }
      ],
      "name": "vaultApprovals",
      "outputs": [
        {
          "internalType": "address",
          "name": "",
          "type": "address"
        }
      ],
      "stateMutability": "view",
      "type": "function"
    }
  ],
  "transactionHash": "0xc6043028337b33d848a005420ff7ecc7381afde759f0793a70e7d4b9d22b6480",
  "args": [],
  "solcInputHash": "9e6e1217bf4d4d1936e45638d60026ce",
  "bytecode": "0x608060405234801561001057600080fd5b5061001a3361001f565b610071565b600280546001600160a01b038381166001600160a01b0319831681179093556040519116919082907f8be0079c531659141344cd1fd0a4f28419497f9722a3daafe3b4186f6b6457e090600090a35050565b611e21806100806000396000f3fe608060405234801561001057600080fd5b50600436106100db5760003560e01c806314bfc6af146100e057806324c17997146100f55780633a5d5a39146101085780633cff0edf1461011b5780633efd825e1461012e57806344ee97de14610178578063715018a61461019b5780637ad851db146101a35780638da5cb5b146101e257806396ad7fe0146101ea578063a5e0aacd14610215578063af6751b214610246578063c313bac914610280578063da269c09146102ab578063e4b8b2dc146102f7578063e573dbd61461034f578063f2fde38b14610362575b600080fd5b6100f36100ee3660046118c2565b610375565b005b6100f3610103366004611857565b610557565b6100f36101163660046119da565b610a7f565b6100f3610129366004611ab2565b610ae6565b61016261013c3660046117eb565b60036020908152600092835260408084209091529082529020546001600160a01b031681565b60405161016f9190611bc6565b60405180910390f35b61018b610186366004611a76565b610e9e565b604051901515815260200161016f565b6100f3610f08565b6101d46101b1366004611a3f565b600460209081526000938452604080852082529284528284209052825290205481565b60405190815260200161016f565b610162610f43565b6101d46101f83660046119da565b600760209081526000928352604080842090915290825290205481565b6101d4610223366004611a09565b600860209081526000938452604080852082529284528284209052825290205481565b6101d4610254366004611a76565b600660209081526000948552604080862082529385528385208152918452828420909152825290205481565b6101d461028e3660046119da565b600560209081526000928352604080842090915290825290205481565b6102e26102b9366004611816565b600060208181529381526040808220855292815282812090935282529020805460019091015482565b6040805192835260208301919091520161016f565b610334610305366004611816565b600160208181526000948552604080862082529385528385209052908352912080549181015460029091015483565b6040805193845260208401929092529082015260600161016f565b6100f361035d366004611b4b565b610f52565b6100f36103703660046117b3565b61102f565b60005b8881101561054b576105398a8a838181106103a357634e487b7160e01b600052603260045260246000fd5b905060200201358989848181106103ca57634e487b7160e01b600052603260045260246000fd5b90506020020160208101906103df91906117b3565b8888858181106103ff57634e487b7160e01b600052603260045260246000fd5b602002919091013590508989610416600382611cc6565b6104209088611cae565b81811061043d57634e487b7160e01b600052603260045260246000fd5b602002919091013590508c8c610454600282611cc6565b61045e9089611cae565b81811061047b57634e487b7160e01b600052603260045260246000fd5b905060200201602081019061049091906117b3565b8b8b600361049f826002611cda565b6104a99190611cc6565b6104b3908a611cae565b8181106104d057634e487b7160e01b600052603260045260246000fd5b905060200201358a8a898181106104f757634e487b7160e01b600052603260045260246000fd5b905060200201602081019061050c91906119a2565b89898151811061052c57634e487b7160e01b600052603260045260246000fd5b6020026020010151610ae6565b8061054381611d57565b915050610378565b50505050505050505050565b6001600160a01b0386811660009081526003602090815260408083208984529091529020541633148061060b5750336001600160a01b0316866001600160a01b0316638da5cb5b6040518163ffffffff1660e01b815260040160206040518083038186803b1580156105c857600080fd5b505afa1580156105dc573d6000803e3d6000fd5b505050506040513d601f19601f8201168201806040525081019061060091906117cf565b6001600160a01b0316145b61065a5760405162461bcd60e51b815260206004820152601b60248201527a14d95b99195c8818d85b9b9bdd081d5c1b1bd8590818481c9bdbdd602a1b60448201526064015b60405180910390fd5b836001600160a01b0316866001600160a01b031663fbfa77cf6040518163ffffffff1660e01b815260040160206040518083038186803b15801561069d57600080fd5b505afa1580156106b1573d6000803e3d6000fd5b505050506040513d601f19601f820116820180604052508101906106d591906117cf565b6001600160a01b0316146107275760405162461bcd60e51b81526020600482015260196024820152782b30bab63a1031b0b73737ba1039bab838363c903a37b5b2b760391b6044820152606401610651565b610733868686856110cf565b60008581526005602090815260408083206001600160a01b03881680855281845282852080548b8752600486528487208388528652848720818852865293862089905590855292528154909290919061078b83611d57565b909155505060008681526007602090815260408083206001600160a01b0389168452909152812080548592906107c2908490611cae565b90915550506040516370a0823160e01b81526000906001600160a01b038716906370a08231906107f6903090600401611bc6565b60206040518083038186803b15801561080e57600080fd5b505afa158015610822573d6000803e3d6000fd5b505050506040513d601f19601f820116820180604052508101906108469190611b92565b6040516378186c8960e11b81526004810186905260ff851660248201529091506000906001600160a01b038a169063f030d91290604401602060405180830381600087803b15801561089757600080fd5b505af11580156108ab573d6000803e3d6000fd5b505050506040513d601f19601f820116820180604052508101906108cf9190611b92565b90506000876001600160a01b03166370a08231306040518263ffffffff1660e01b81526004016108ff9190611bc6565b60206040518083038186803b15801561091757600080fd5b505afa15801561092b573d6000803e3d6000fd5b505050506040513d601f19601f8201168201806040525081019061094f9190611b92565b90508561095c8483611cf9565b146109ba5760405162461bcd60e51b815260206004820152602860248201527f446964206e6f74207265636569766520636f727265637420616d6f756e74206f6044820152676620746f6b656e7360c01b6064820152608401610651565b811561054b57896001600160a01b03167fd6d31664ac233bdf992f7612da7041d6018fefa9dd721706daf0b9ae7f44385b8b6001600160a01b031663fbfa77cf6040518163ffffffff1660e01b815260040160206040518083038186803b158015610a2457600080fd5b505afa158015610a38573d6000803e3d6000fd5b505050506040513d601f19601f82011682018060405250810190610a5c91906117cf565b84604051610a6b929190611bda565b60405180910390a250505050505050505050565b33600081815260036020908152604080832086845290915280822080546001600160a01b0319166001600160a01b03861690811790915590519092859290917f99c55459df64a58c031e4e675400c552c7ab3fb4952eaae32b64a091b14f7bcd9190a45050565b610af288888888610e9e565b15610b315760405162461bcd60e51b815260206004820152600f60248201526e436c61696d656420616c726561647960881b6044820152606401610651565b604080516020808201889052606087901b6001600160601b031916828401526054808301879052835180840390910181526074909201835281519181019190912060008b8152600483528381206001600160a01b038c16825283528381208a825290925291902054610ba5908390836111c6565b610bdf5760405162461bcd60e51b815260206004820152600b60248201526a2bb937b73390383937b7b360a91b6044820152606401610651565b60008981526008602090815260408083206001600160a01b03808d1685529083528184209089168452909152902054808511610c795760405162461bcd60e51b815260206004820152603360248201527f476976656e20636865636b706f696e74206e6f7420686967686572207468616e6044820152720818dd5c9c995b9d0818da1958dadc1bda5b9d606a1b6064820152608401610651565b6000610c858287611cf9565b60008c81526007602090815260408083206001600160a01b038f168452909152902054909150811115610d0b5760405162461bcd60e51b815260206004820152602860248201527f43616e277420636c61696d206d6f7265207468616e20636972636c652068617360448201526720746f206769766560c01b6064820152608401610651565b60008b81526007602090815260408083206001600160a01b038e16845290915281208054839290610d3d908490611cf9565b909155505060008b81526008602090815260408083206001600160a01b03808f168552908352818420908b1684529091529020869055610d7f8b8b8b8b611285565b848015610d945750336001600160a01b038816145b15610e1f57604051627b8a6760e11b8152600481018290526001600160a01b0388811660248301528b169062f714ce90604401602060405180830381600087803b158015610de157600080fd5b505af1158015610df5573d6000803e3d6000fd5b505050506040513d601f19601f82011682018060405250810190610e199190611b92565b50610e33565b610e336001600160a01b038b1688836112ed565b604080518c81526001600160a01b038c811660208301528183018c9052606082018b90528916608082015260a0810183905290517fb10818ceba602fc2afff1d6cb498e455f7c78c5a62055ac2a417364293a950509181900360c00190a15050505050505050505050565b600080610ead61010084611cc6565b90506000610ebd61010085611d72565b60008881526006602090815260408083206001600160a01b038b168452825280832089845282528083209583529490529290922054600190921b918216909114915050949350505050565b33610f11610f43565b6001600160a01b031614610f375760405162461bcd60e51b815260040161065190611c26565b610f416000611348565b565b6002546001600160a01b031690565b60408051808201825284815260208082018581523360008181528084528581208b825284528581206001600160a01b038b16808352908552868220955186559251600195860155855160608082018852828252428287019081528289018a81528585528888528985208f8652885289852087865288529389902092518355519682019690965590516002909101558451908152918201899052818401529081018590526080810184905290517f13241e168a73dc44609b3c902bf37a573168224a56087e3bf181bfab79a617e09181900360a00190a15050505050565b33611038610f43565b6001600160a01b03161461105e5760405162461bcd60e51b815260040161065190611c26565b6001600160a01b0381166110c35760405162461bcd60e51b815260206004820152602660248201527f4f776e61626c653a206e6577206f776e657220697320746865207a65726f206160448201526564647265737360d01b6064820152608401610651565b6110cc81611348565b50565b6001600160a01b0380851660008181526020818152604080832088845282528083209487168084529482528083208151808301835281548152600191820154818501529484528252808320888452825280832094835293905291909120611136818361139a565b81518154611145908590611cae565b11156111a55760405162461bcd60e51b815260206004820152602960248201527f436972636c6520646f6573206e6f7420686176652073756666696369656e7420604482015268616c6c6f77616e636560b81b6064820152608401610651565b828160000160008282546111b99190611cae565b9091555050505050505050565b600081815b85518110156112785760008682815181106111f657634e487b7160e01b600052603260045260246000fd5b60200260200101519050808311611238576040805160208101859052908101829052606001604051602081830303815290604052805190602001209250611265565b60408051602081018390529081018490526060016040516020818303038152906040528051906020012092505b508061127081611d57565b9150506111cb565b50831490505b9392505050565b600061129361010083611cc6565b905060006112a361010084611d72565b60009687526006602090815260408089206001600160a01b03909816895296815286882095885294855285872092875291909352929093208054600190931b929092179091555050565b6113438363a9059cbb60e01b848460405160240161130c929190611bda565b60408051601f198184030181529190526020810180516001600160e01b03166001600160e01b031990931692909217909152611460565b505050565b600280546001600160a01b038381166001600160a01b0319831681179093556040519116919082907f8be0079c531659141344cd1fd0a4f28419497f9722a3daafe3b4186f6b6457e090600090a35050565b60008260010154426113ac9190611cf9565b9050816020015181111561134357600083600201541161140a5760405162461bcd60e51b8152602060048201526019602482015278436972636c652063616e6e6f742074617020616e796d6f726560381b6044820152606401610651565b60008355602082015161141d9082611cc6565b826020015161142c9190611cda565b83600101600082825461143f9190611cae565b909155505060028301805490600061145683611d40565b9190505550505050565b60006114b5826040518060400160405280602081526020017f5361666545524332303a206c6f772d6c6576656c2063616c6c206661696c6564815250856001600160a01b03166115329092919063ffffffff16565b80519091501561134357808060200190518101906114d391906119be565b6113435760405162461bcd60e51b815260206004820152602a60248201527f5361666545524332303a204552433230206f7065726174696f6e20646964206e6044820152691bdd081cdd58d8d9595960b21b6064820152608401610651565b60606115418484600085611549565b949350505050565b6060824710156115aa5760405162461bcd60e51b815260206004820152602660248201527f416464726573733a20696e73756666696369656e742062616c616e636520666f6044820152651c8818d85b1b60d21b6064820152608401610651565b843b6115f85760405162461bcd60e51b815260206004820152601d60248201527f416464726573733a2063616c6c20746f206e6f6e2d636f6e74726163740000006044820152606401610651565b600080866001600160a01b031685876040516116149190611baa565b60006040518083038185875af1925050503d8060008114611651576040519150601f19603f3d011682016040523d82523d6000602084013e611656565b606091505b5091509150611666828286611671565b979650505050505050565b6060831561168057508161127e565b8251156116905782518084602001fd5b8160405162461bcd60e51b81526004016106519190611bf3565b60008083601f8401126116bb578182fd5b5081356001600160401b038111156116d1578182fd5b60208301915083602080830285010111156116eb57600080fd5b9250929050565b600082601f830112611702578081fd5b8135602061171761171283611c8b565b611c5b565b82815281810190858301855b8581101561174c5761173a898684358b0101611759565b84529284019290840190600101611723565b5090979650505050505050565b600082601f830112611769578081fd5b8135602061177961171283611c8b565b8281528181019085830183850287018401881015611795578586fd5b855b8581101561174c57813584529284019290840190600101611797565b6000602082840312156117c4578081fd5b813561127e81611dc8565b6000602082840312156117e0578081fd5b815161127e81611dc8565b600080604083850312156117fd578081fd5b823561180881611dc8565b946020939093013593505050565b60008060006060848603121561182a578081fd5b833561183581611dc8565b925060208401359150604084013561184c81611dc8565b809150509250925092565b60008060008060008060c0878903121561186f578182fd5b863561187a81611dc8565b955060208701359450604087013561189181611dc8565b9350606087013592506080870135915060a087013560ff811681146118b4578182fd5b809150509295509295509295565b600080600080600080600080600060a08a8c0312156118df578283fd5b89356001600160401b03808211156118f5578485fd5b6119018d838e016116aa565b909b50995060208c0135915080821115611919578485fd5b6119258d838e016116aa565b909950975060408c013591508082111561193d578485fd5b6119498d838e016116aa565b909750955060608c0135915080821115611961578485fd5b61196d8d838e016116aa565b909550935060808c0135915080821115611985578283fd5b506119928c828d016116f2565b9150509295985092959850929598565b6000602082840312156119b3578081fd5b813561127e81611ddd565b6000602082840312156119cf578081fd5b815161127e81611ddd565b600080604083850312156119ec578182fd5b8235915060208301356119fe81611dc8565b809150509250929050565b600080600060608486031215611a1d578081fd5b833592506020840135611a2f81611dc8565b9150604084013561184c81611dc8565b600080600060608486031215611a53578081fd5b833592506020840135611a6581611dc8565b929592945050506040919091013590565b60008060008060808587031215611a8b578182fd5b843593506020850135611a9d81611dc8565b93969395505050506040820135916060013590565b600080600080600080600080610100898b031215611ace578182fd5b883597506020890135611ae081611dc8565b965060408901359550606089013594506080890135611afe81611dc8565b935060a0890135925060c0890135611b1581611ddd565b915060e08901356001600160401b03811115611b2f578182fd5b611b3b8b828c01611759565b9150509295985092959890939650565b600080600080600060a08688031215611b62578283fd5b853594506020860135611b7481611dc8565b94979496505050506040830135926060810135926080909101359150565b600060208284031215611ba3578081fd5b5051919050565b60008251611bbc818460208701611d10565b9190910192915050565b6001600160a01b0391909116815260200190565b6001600160a01b03929092168252602082015260400190565b6000602082528251806020840152611c12816040850160208701611d10565b601f01601f19169190910160400192915050565b6020808252818101527f4f776e61626c653a2063616c6c6572206973206e6f7420746865206f776e6572604082015260600190565b604051601f8201601f191681016001600160401b0381118282101715611c8357611c83611db2565b604052919050565b60006001600160401b03821115611ca457611ca4611db2565b5060209081020190565b60008219821115611cc157611cc1611d86565b500190565b600082611cd557611cd5611d9c565b500490565b6000816000190483118215151615611cf457611cf4611d86565b500290565b600082821015611d0b57611d0b611d86565b500390565b60005b83811015611d2b578181015183820152602001611d13565b83811115611d3a576000848401525b50505050565b600081611d4f57611d4f611d86565b506000190190565b6000600019821415611d6b57611d6b611d86565b5060010190565b600082611d8157611d81611d9c565b500690565b634e487b7160e01b600052601160045260246000fd5b634e487b7160e01b600052601260045260246000fd5b634e487b7160e01b600052604160045260246000fd5b6001600160a01b03811681146110cc57600080fd5b80151581146110cc57600080fdfea26469706673582212208af97e991c2325dbb9bdbfa0ff8882e28f21e75a965384f3dc22a8a00d33480464736f6c63430008020033",
  "devdoc": {
    "kind": "dev",
    "methods": {
      "owner()": {
        "details": "Returns the address of the current owner."
      },
      "renounceOwnership()": {
        "details": "Leaves the contract without owner. It will not be possible to call `onlyOwner` functions anymore. Can only be called by the current owner. NOTE: Renouncing ownership will leave the contract without an owner, thereby removing any functionality that is only available to the owner."
      },
      "transferOwnership(address)": {
        "details": "Transfers ownership of the contract to a new account (`newOwner`). Can only be called by the current owner."
      }
    },
    "version": 1
  },
  "userdoc": {
    "kind": "user",
    "methods": {},
    "version": 1
  },
  "storageLayout": {
    "storage": [
      {
        "astId": 3446,
        "contract": "contracts/coordinape-protocol/contracts/ApeProtocol/ApeDistributor.sol:ApeDistributor",
        "label": "allowances",
        "offset": 0,
        "slot": "0",
        "type": "t_mapping(t_address,t_mapping(t_bytes32,t_mapping(t_address,t_struct(Allowance)3430_storage)))"
      },
      {
        "astId": 3455,
        "contract": "contracts/coordinape-protocol/contracts/ApeProtocol/ApeDistributor.sol:ApeDistributor",
        "label": "currentAllowances",
        "offset": 0,
        "slot": "1",
        "type": "t_mapping(t_address,t_mapping(t_bytes32,t_mapping(t_address,t_struct(CurrentAllowance)3437_storage)))"
      },
      {
        "astId": 7,
        "contract": "contracts/coordinape-protocol/contracts/ApeProtocol/ApeDistributor.sol:ApeDistributor",
        "label": "_owner",
        "offset": 0,
        "slot": "2",
        "type": "t_address"
      },
      {
        "astId": 3661,
        "contract": "contracts/coordinape-protocol/contracts/ApeProtocol/ApeDistributor.sol:ApeDistributor",
        "label": "vaultApprovals",
        "offset": 0,
        "slot": "3",
        "type": "t_mapping(t_address,t_mapping(t_bytes32,t_address))"
      },
      {
        "astId": 3669,
        "contract": "contracts/coordinape-protocol/contracts/ApeProtocol/ApeDistributor.sol:ApeDistributor",
        "label": "epochRoots",
        "offset": 0,
        "slot": "4",
        "type": "t_mapping(t_bytes32,t_mapping(t_address,t_mapping(t_uint256,t_bytes32)))"
      },
      {
        "astId": 3675,
        "contract": "contracts/coordinape-protocol/contracts/ApeProtocol/ApeDistributor.sol:ApeDistributor",
        "label": "epochTracking",
        "offset": 0,
        "slot": "5",
        "type": "t_mapping(t_bytes32,t_mapping(t_address,t_uint256))"
      },
      {
        "astId": 3685,
        "contract": "contracts/coordinape-protocol/contracts/ApeProtocol/ApeDistributor.sol:ApeDistributor",
        "label": "epochClaimBitMap",
        "offset": 0,
        "slot": "6",
        "type": "t_mapping(t_bytes32,t_mapping(t_address,t_mapping(t_uint256,t_mapping(t_uint256,t_uint256))))"
      },
      {
        "astId": 3691,
        "contract": "contracts/coordinape-protocol/contracts/ApeProtocol/ApeDistributor.sol:ApeDistributor",
        "label": "circleAlloc",
        "offset": 0,
        "slot": "7",
        "type": "t_mapping(t_bytes32,t_mapping(t_address,t_uint256))"
      },
      {
        "astId": 3699,
        "contract": "contracts/coordinape-protocol/contracts/ApeProtocol/ApeDistributor.sol:ApeDistributor",
        "label": "checkpoints",
        "offset": 0,
        "slot": "8",
        "type": "t_mapping(t_bytes32,t_mapping(t_address,t_mapping(t_address,t_uint256)))"
      }
    ],
    "types": {
      "t_address": {
        "encoding": "inplace",
        "label": "address",
        "numberOfBytes": "20"
      },
      "t_bytes32": {
        "encoding": "inplace",
        "label": "bytes32",
        "numberOfBytes": "32"
      },
      "t_mapping(t_address,t_mapping(t_address,t_uint256))": {
        "encoding": "mapping",
        "key": "t_address",
        "label": "mapping(address => mapping(address => uint256))",
        "numberOfBytes": "32",
        "value": "t_mapping(t_address,t_uint256)"
      },
      "t_mapping(t_address,t_mapping(t_bytes32,t_address))": {
        "encoding": "mapping",
        "key": "t_address",
        "label": "mapping(address => mapping(bytes32 => address))",
        "numberOfBytes": "32",
        "value": "t_mapping(t_bytes32,t_address)"
      },
      "t_mapping(t_address,t_mapping(t_bytes32,t_mapping(t_address,t_struct(Allowance)3430_storage)))": {
        "encoding": "mapping",
        "key": "t_address",
        "label": "mapping(address => mapping(bytes32 => mapping(address => struct ApeAllowanceModule.Allowance)))",
        "numberOfBytes": "32",
        "value": "t_mapping(t_bytes32,t_mapping(t_address,t_struct(Allowance)3430_storage))"
      },
      "t_mapping(t_address,t_mapping(t_bytes32,t_mapping(t_address,t_struct(CurrentAllowance)3437_storage)))": {
        "encoding": "mapping",
        "key": "t_address",
        "label": "mapping(address => mapping(bytes32 => mapping(address => struct ApeAllowanceModule.CurrentAllowance)))",
        "numberOfBytes": "32",
        "value": "t_mapping(t_bytes32,t_mapping(t_address,t_struct(CurrentAllowance)3437_storage))"
      },
      "t_mapping(t_address,t_mapping(t_uint256,t_bytes32))": {
        "encoding": "mapping",
        "key": "t_address",
        "label": "mapping(address => mapping(uint256 => bytes32))",
        "numberOfBytes": "32",
        "value": "t_mapping(t_uint256,t_bytes32)"
      },
      "t_mapping(t_address,t_mapping(t_uint256,t_mapping(t_uint256,t_uint256)))": {
        "encoding": "mapping",
        "key": "t_address",
        "label": "mapping(address => mapping(uint256 => mapping(uint256 => uint256)))",
        "numberOfBytes": "32",
        "value": "t_mapping(t_uint256,t_mapping(t_uint256,t_uint256))"
      },
      "t_mapping(t_address,t_struct(Allowance)3430_storage)": {
        "encoding": "mapping",
        "key": "t_address",
        "label": "mapping(address => struct ApeAllowanceModule.Allowance)",
        "numberOfBytes": "32",
        "value": "t_struct(Allowance)3430_storage"
      },
      "t_mapping(t_address,t_struct(CurrentAllowance)3437_storage)": {
        "encoding": "mapping",
        "key": "t_address",
        "label": "mapping(address => struct ApeAllowanceModule.CurrentAllowance)",
        "numberOfBytes": "32",
        "value": "t_struct(CurrentAllowance)3437_storage"
      },
      "t_mapping(t_address,t_uint256)": {
        "encoding": "mapping",
        "key": "t_address",
        "label": "mapping(address => uint256)",
        "numberOfBytes": "32",
        "value": "t_uint256"
      },
      "t_mapping(t_bytes32,t_address)": {
        "encoding": "mapping",
        "key": "t_bytes32",
        "label": "mapping(bytes32 => address)",
        "numberOfBytes": "32",
        "value": "t_address"
      },
      "t_mapping(t_bytes32,t_mapping(t_address,t_mapping(t_address,t_uint256)))": {
        "encoding": "mapping",
        "key": "t_bytes32",
        "label": "mapping(bytes32 => mapping(address => mapping(address => uint256)))",
        "numberOfBytes": "32",
        "value": "t_mapping(t_address,t_mapping(t_address,t_uint256))"
      },
      "t_mapping(t_bytes32,t_mapping(t_address,t_mapping(t_uint256,t_bytes32)))": {
        "encoding": "mapping",
        "key": "t_bytes32",
        "label": "mapping(bytes32 => mapping(address => mapping(uint256 => bytes32)))",
        "numberOfBytes": "32",
        "value": "t_mapping(t_address,t_mapping(t_uint256,t_bytes32))"
      },
      "t_mapping(t_bytes32,t_mapping(t_address,t_mapping(t_uint256,t_mapping(t_uint256,t_uint256))))": {
        "encoding": "mapping",
        "key": "t_bytes32",
        "label": "mapping(bytes32 => mapping(address => mapping(uint256 => mapping(uint256 => uint256))))",
        "numberOfBytes": "32",
        "value": "t_mapping(t_address,t_mapping(t_uint256,t_mapping(t_uint256,t_uint256)))"
      },
      "t_mapping(t_bytes32,t_mapping(t_address,t_struct(Allowance)3430_storage))": {
        "encoding": "mapping",
        "key": "t_bytes32",
        "label": "mapping(bytes32 => mapping(address => struct ApeAllowanceModule.Allowance))",
        "numberOfBytes": "32",
        "value": "t_mapping(t_address,t_struct(Allowance)3430_storage)"
      },
      "t_mapping(t_bytes32,t_mapping(t_address,t_struct(CurrentAllowance)3437_storage))": {
        "encoding": "mapping",
        "key": "t_bytes32",
        "label": "mapping(bytes32 => mapping(address => struct ApeAllowanceModule.CurrentAllowance))",
        "numberOfBytes": "32",
        "value": "t_mapping(t_address,t_struct(CurrentAllowance)3437_storage)"
      },
      "t_mapping(t_bytes32,t_mapping(t_address,t_uint256))": {
        "encoding": "mapping",
        "key": "t_bytes32",
        "label": "mapping(bytes32 => mapping(address => uint256))",
        "numberOfBytes": "32",
        "value": "t_mapping(t_address,t_uint256)"
      },
      "t_mapping(t_uint256,t_bytes32)": {
        "encoding": "mapping",
        "key": "t_uint256",
        "label": "mapping(uint256 => bytes32)",
        "numberOfBytes": "32",
        "value": "t_bytes32"
      },
      "t_mapping(t_uint256,t_mapping(t_uint256,t_uint256))": {
        "encoding": "mapping",
        "key": "t_uint256",
        "label": "mapping(uint256 => mapping(uint256 => uint256))",
        "numberOfBytes": "32",
        "value": "t_mapping(t_uint256,t_uint256)"
      },
      "t_mapping(t_uint256,t_uint256)": {
        "encoding": "mapping",
        "key": "t_uint256",
        "label": "mapping(uint256 => uint256)",
        "numberOfBytes": "32",
        "value": "t_uint256"
      },
      "t_struct(Allowance)3430_storage": {
        "encoding": "inplace",
        "label": "struct ApeAllowanceModule.Allowance",
        "members": [
          {
            "astId": 3427,
            "contract": "contracts/coordinape-protocol/contracts/ApeProtocol/ApeDistributor.sol:ApeDistributor",
            "label": "maxAmount",
            "offset": 0,
            "slot": "0",
            "type": "t_uint256"
          },
          {
            "astId": 3429,
            "contract": "contracts/coordinape-protocol/contracts/ApeProtocol/ApeDistributor.sol:ApeDistributor",
            "label": "maxInterval",
            "offset": 0,
            "slot": "1",
            "type": "t_uint256"
          }
        ],
        "numberOfBytes": "64"
      },
      "t_struct(CurrentAllowance)3437_storage": {
        "encoding": "inplace",
        "label": "struct ApeAllowanceModule.CurrentAllowance",
        "members": [
          {
            "astId": 3432,
            "contract": "contracts/coordinape-protocol/contracts/ApeProtocol/ApeDistributor.sol:ApeDistributor",
            "label": "debt",
            "offset": 0,
            "slot": "0",
            "type": "t_uint256"
          },
          {
            "astId": 3434,
            "contract": "contracts/coordinape-protocol/contracts/ApeProtocol/ApeDistributor.sol:ApeDistributor",
            "label": "intervalStart",
            "offset": 0,
            "slot": "1",
            "type": "t_uint256"
          },
          {
            "astId": 3436,
            "contract": "contracts/coordinape-protocol/contracts/ApeProtocol/ApeDistributor.sol:ApeDistributor",
            "label": "epochs",
            "offset": 0,
            "slot": "2",
            "type": "t_uint256"
          }
        ],
        "numberOfBytes": "96"
      },
      "t_uint256": {
        "encoding": "inplace",
        "label": "uint256",
        "numberOfBytes": "32"
      }
    }
  }
}