{
  "address": "0xB6f8ed8dB8d6AC13f9d34dC0353Bc86c445c36EC",
  "abi": [
    {
      "inputs": [
        {
          "internalType": "uint256",
          "name": "_minDelay",
          "type": "uint256"
        }
      ],
      "stateMutability": "nonpayable",
      "type": "constructor"
    },
    {
      "anonymous": false,
      "inputs": [
        {
          "indexed": false,
          "internalType": "bytes32",
          "name": "id",
          "type": "bytes32"
        }
      ],
      "name": "CallCancelled",
      "type": "event"
    },
    {
      "anonymous": false,
      "inputs": [
        {
          "indexed": true,
          "internalType": "bytes32",
          "name": "id",
          "type": "bytes32"
        },
        {
          "indexed": false,
          "internalType": "address",
          "name": "target",
          "type": "address"
        },
        {
          "indexed": false,
          "internalType": "bytes",
          "name": "data",
          "type": "bytes"
        }
      ],
      "name": "CallExecuted",
      "type": "event"
    },
    {
      "anonymous": false,
      "inputs": [
        {
          "indexed": true,
          "internalType": "bytes32",
          "name": "id",
          "type": "bytes32"
        },
        {
          "indexed": false,
          "internalType": "address",
          "name": "target",
          "type": "address"
        },
        {
          "indexed": false,
          "internalType": "bytes",
          "name": "data",
          "type": "bytes"
        },
        {
          "indexed": false,
          "internalType": "bytes32",
          "name": "predecessor",
          "type": "bytes32"
        },
        {
          "indexed": false,
          "internalType": "uint256",
          "name": "delay",
          "type": "uint256"
        }
      ],
      "name": "CallScheduled",
      "type": "event"
    },
    {
      "anonymous": false,
      "inputs": [
        {
          "indexed": true,
          "internalType": "address",
          "name": "previousOwner",
          "type": "address"
        },
        {
          "indexed": true,
          "internalType": "address",
          "name": "newOwner",
          "type": "address"
        }
      ],
      "name": "OwnershipTransferred",
      "type": "event"
    },
    {
      "inputs": [
        {
          "internalType": "bytes32",
          "name": "_id",
          "type": "bytes32"
        }
      ],
      "name": "cancel",
      "outputs": [],
      "stateMutability": "nonpayable",
      "type": "function"
    },
    {
      "inputs": [
        {
          "internalType": "uint256",
          "name": "_min",
          "type": "uint256"
        }
      ],
      "name": "changeMinDelay",
      "outputs": [],
      "stateMutability": "nonpayable",
      "type": "function"
    },
    {
      "inputs": [],
      "name": "distributor",
      "outputs": [
        {
          "internalType": "address",
          "name": "",
          "type": "address"
        }
      ],
      "stateMutability": "view",
      "type": "function"
    },
    {
      "inputs": [
        {
          "internalType": "address",
          "name": "_target",
          "type": "address"
        },
        {
          "internalType": "bytes",
          "name": "_data",
          "type": "bytes"
        },
        {
          "internalType": "bytes32",
          "name": "_predecessor",
          "type": "bytes32"
        },
        {
          "internalType": "bytes32",
          "name": "_salt",
          "type": "bytes32"
        },
        {
          "internalType": "uint256",
          "name": "_delay",
          "type": "uint256"
        }
      ],
      "name": "execute",
      "outputs": [],
      "stateMutability": "nonpayable",
      "type": "function"
    },
    {
      "inputs": [],
      "name": "factory",
      "outputs": [
        {
          "internalType": "address",
          "name": "",
          "type": "address"
        }
      ],
      "stateMutability": "view",
      "type": "function"
    },
    {
      "inputs": [],
      "name": "feeRegistry",
      "outputs": [
        {
          "internalType": "address",
          "name": "",
          "type": "address"
        }
      ],
      "stateMutability": "view",
      "type": "function"
    },
    {
      "inputs": [
        {
          "internalType": "bytes32",
          "name": "_id",
          "type": "bytes32"
        }
      ],
      "name": "isDoneCall",
      "outputs": [
        {
          "internalType": "bool",
          "name": "",
          "type": "bool"
        }
      ],
      "stateMutability": "view",
      "type": "function"
    },
    {
      "inputs": [
        {
          "internalType": "bytes32",
          "name": "_id",
          "type": "bytes32"
        }
      ],
      "name": "isPendingCall",
      "outputs": [
        {
          "internalType": "bool",
          "name": "",
          "type": "bool"
        }
      ],
      "stateMutability": "view",
      "type": "function"
    },
    {
      "inputs": [
        {
          "internalType": "bytes32",
          "name": "_id",
          "type": "bytes32"
        }
      ],
      "name": "isReadyCall",
      "outputs": [
        {
          "internalType": "bool",
          "name": "",
          "type": "bool"
        }
      ],
      "stateMutability": "view",
      "type": "function"
    },
    {
      "inputs": [],
      "name": "minDelay",
      "outputs": [
        {
          "internalType": "uint256",
          "name": "",
          "type": "uint256"
        }
      ],
      "stateMutability": "view",
      "type": "function"
    },
    {
      "inputs": [],
      "name": "owner",
      "outputs": [
        {
          "internalType": "address",
          "name": "",
          "type": "address"
        }
      ],
      "stateMutability": "view",
      "type": "function"
    },
    {
      "inputs": [],
      "name": "renounceOwnership",
      "outputs": [],
      "stateMutability": "nonpayable",
      "type": "function"
    },
    {
      "inputs": [],
      "name": "router",
      "outputs": [
        {
          "internalType": "address",
          "name": "",
          "type": "address"
        }
      ],
      "stateMutability": "view",
      "type": "function"
    },
    {
      "inputs": [
        {
          "internalType": "address",
          "name": "_target",
          "type": "address"
        },
        {
          "internalType": "bytes",
          "name": "_data",
          "type": "bytes"
        },
        {
          "internalType": "bytes32",
          "name": "_predecessor",
          "type": "bytes32"
        },
        {
          "internalType": "bytes32",
          "name": "_salt",
          "type": "bytes32"
        },
        {
          "internalType": "uint256",
          "name": "_delay",
          "type": "uint256"
        }
      ],
      "name": "schedule",
      "outputs": [],
      "stateMutability": "nonpayable",
      "type": "function"
    },
    {
      "inputs": [
        {
          "internalType": "address",
          "name": "_distributor",
          "type": "address"
        }
      ],
      "name": "setDistributor",
      "outputs": [],
      "stateMutability": "nonpayable",
      "type": "function"
    },
    {
      "inputs": [
        {
          "internalType": "address",
          "name": "_factory",
          "type": "address"
        }
      ],
      "name": "setFactory",
      "outputs": [],
      "stateMutability": "nonpayable",
      "type": "function"
    },
    {
      "inputs": [
        {
          "internalType": "address",
          "name": "_registry",
          "type": "address"
        }
      ],
      "name": "setFeeRegistry",
      "outputs": [],
      "stateMutability": "nonpayable",
      "type": "function"
    },
    {
      "inputs": [
        {
          "internalType": "address",
          "name": "_router",
          "type": "address"
        }
      ],
      "name": "setRouter",
      "outputs": [],
      "stateMutability": "nonpayable",
      "type": "function"
    },
    {
      "inputs": [
        {
          "internalType": "address",
          "name": "_treasury",
          "type": "address"
        }
      ],
      "name": "setTreasury",
      "outputs": [],
      "stateMutability": "nonpayable",
      "type": "function"
    },
    {
      "inputs": [
        {
          "internalType": "bytes32",
          "name": "",
          "type": "bytes32"
        }
      ],
      "name": "timestamps",
      "outputs": [
        {
          "internalType": "uint256",
          "name": "",
          "type": "uint256"
        }
      ],
      "stateMutability": "view",
      "type": "function"
    },
    {
      "inputs": [
        {
          "internalType": "address",
          "name": "newOwner",
          "type": "address"
        }
      ],
      "name": "transferOwnership",
      "outputs": [],
      "stateMutability": "nonpayable",
      "type": "function"
    },
    {
      "inputs": [],
      "name": "treasury",
      "outputs": [
        {
          "internalType": "address",
          "name": "",
          "type": "address"
        }
      ],
      "stateMutability": "view",
      "type": "function"
    }
  ],
  "transactionHash": "0x38c9aa14fbad33ede0a32f8322fe00958d106c6e3e9ed55c343d078f431b6227",
  "args": [
    0
  ],
  "solcInputHash": "9e6e1217bf4d4d1936e45638d60026ce",
  "bytecode": "0x608060405234801561001057600080fd5b50604051610dd6380380610dd683398101604081905261002f91610092565b8061003933610042565b600255506100aa565b600080546001600160a01b038381166001600160a01b0319831681178455604051919092169283917f8be0079c531659141344cd1fd0a4f28419497f9722a3daafe3b4186f6b6457e09190a35050565b6000602082840312156100a3578081fd5b5051919050565b610d1d806100b96000396000f3fe608060405234801561001057600080fd5b50600436106101125760003560e01c80631333cdda146101175780632a9eda111461013f5780632c5eaf21146101525780634c84c5a1146101675780635bb478081461017a57806361d027b31461018d578063715018a6146101b857806375619ab5146101c05780638da5cb5b146101d35780639749b368146101db578063abeb6997146101ee578063acdad7d014610201578063b3a408b814610214578063b587295814610227578063bfe1092814610255578063c0d7865514610268578063c45a01551461027b578063c4d252f51461028e578063c63c4e9b146102a1578063f0f44260146102aa578063f2fde38b146102bd578063f887ea40146102d0575b600080fd5b61012a610125366004610b8e565b6102e3565b60405190151581526020015b60405180910390f35b61012a61014d366004610b8e565b6102fb565b610165610160366004610afa565b610311565b005b61012a610175366004610b8e565b610472565b610165610188366004610ad9565b610488565b6007546101a0906001600160a01b031681565b6040516001600160a01b039091168152602001610136565b6101656104c9565b6101656101ce366004610ad9565b610504565b6101a0610545565b6101656101e9366004610b8e565b610554565b6101656101fc366004610afa565b610578565b61016561020f366004610ad9565b6106fd565b6003546101a0906001600160a01b031681565b610247610235366004610b8e565b60016020526000908152604090205481565b604051908152602001610136565b6005546101a0906001600160a01b031681565b610165610276366004610ad9565b61073e565b6006546101a0906001600160a01b031681565b61016561029c366004610b8e565b61077f565b61024760025481565b6101656102b8366004610ad9565b610851565b6101656102cb366004610ad9565b610892565b6004546101a0906001600160a01b031681565b6000818152600160205260409020544210155b919050565b6000908152600160208190526040909120541490565b3361031a610545565b6001600160a01b0316146103495760405162461bcd60e51b815260040161034090610c8e565b60405180910390fd5b60006103588787878787610932565b600081815260016020526040902054909150156103b75760405162461bcd60e51b815260206004820181905260248201527f54696d654c6f636b3a2043616c6c20616c7265616479207363686564756c65646044820152606401610340565b6002548210156104085760405162461bcd60e51b815260206004820152601c60248201527b54696d654c6f636b3a20496e73756666696369656e742064656c617960201b6044820152606401610340565b6002546104159042610cc3565b60008281526001602052604090819020919091555181907f66dcc96f6c92c7919714879a908fc29b273e363ba3d409c0c6db86984ee3c48090610461908a908a908a908a908990610c0e565b60405180910390a250505050505050565b6000908152600160208190526040909120541190565b3330146104a75760405162461bcd60e51b815260040161034090610c47565b600680546001600160a01b0319166001600160a01b0392909216919091179055565b336104d2610545565b6001600160a01b0316146104f85760405162461bcd60e51b815260040161034090610c8e565b610502600061096e565b565b3330146105235760405162461bcd60e51b815260040161034090610c47565b600580546001600160a01b0319166001600160a01b0392909216919091179055565b6000546001600160a01b031690565b3330146105735760405162461bcd60e51b815260040161034090610c47565b600255565b33610581610545565b6001600160a01b0316146105a75760405162461bcd60e51b815260040161034090610c8e565b60006105b68787878787610932565b90506105c1816102e3565b6106175760405162461bcd60e51b815260206004820152602160248201527f54696d654c6f636b3a204e6f7420726561647920666f7220657865637574696f6044820152603760f91b6064820152608401610340565b610620816102fb565b1561066a5760405162461bcd60e51b815260206004820152601a602482015279151a5b59531bd8dace88105b1c9958591e48195e1958dd5d195960321b6044820152606401610340565b83158061067b575061067b846102fb565b6106d75760405162461bcd60e51b815260206004820152602760248201527f54696d654c6f636b3a205072656465636573736f722063616c6c206e6f7420656044820152661e1958dd5d195960ca1b6064820152608401610340565b6106e3818888886109be565b600090815260016020819052604090912055505050505050565b33301461071c5760405162461bcd60e51b815260040161034090610c47565b600380546001600160a01b0319166001600160a01b0392909216919091179055565b33301461075d5760405162461bcd60e51b815260040161034090610c47565b600480546001600160a01b0319166001600160a01b0392909216919091179055565b33610788610545565b6001600160a01b0316146107ae5760405162461bcd60e51b815260040161034090610c8e565b6107b781610472565b6108035760405162461bcd60e51b815260206004820152601d60248201527f54696d654c6f636b3a2043616c6c206973206e6f742070656e64696e670000006044820152606401610340565b60008181526001602052604080822091909155517fab2af3494bc00bd4aa34e08bd246e5c402d3ee4856c19f5461ce47a6d57423e1906108469083815260200190565b60405180910390a150565b3330146108705760405162461bcd60e51b815260040161034090610c47565b600780546001600160a01b0319166001600160a01b0392909216919091179055565b3361089b610545565b6001600160a01b0316146108c15760405162461bcd60e51b815260040161034090610c8e565b6001600160a01b0381166109265760405162461bcd60e51b815260206004820152602660248201527f4f776e61626c653a206e6577206f776e657220697320746865207a65726f206160448201526564647265737360d01b6064820152608401610340565b61092f8161096e565b50565b6000858585858560405160200161094d959493929190610c0e565b60405160208183030381529060405280519060200120905095945050505050565b600080546001600160a01b038381166001600160a01b0319831681178455604051919092169283917f8be0079c531659141344cd1fd0a4f28419497f9722a3daafe3b4186f6b6457e09190a35050565b6000836001600160a01b031683836040516109da929190610bd0565b6000604051808303816000865af19150503d8060008114610a17576040519150601f19603f3d011682016040523d82523d6000602084013e610a1c565b606091505b5050905080610a7f5760405162461bcd60e51b815260206004820152602960248201527f54696d656c6f636b3a20756e6465726c79696e67207472616e73616374696f6e604482015268081c995d995c9d195960ba1b6064820152608401610340565b847fc08872e260006100fd2e00a3ba4c617fdb250f802f99384d55c10097dc1d0487858585604051610ab393929190610be0565b60405180910390a25050505050565b80356001600160a01b03811681146102f657600080fd5b600060208284031215610aea578081fd5b610af382610ac2565b9392505050565b60008060008060008060a08789031215610b12578182fd5b610b1b87610ac2565b955060208701356001600160401b0380821115610b36578384fd5b818901915089601f830112610b49578384fd5b813581811115610b57578485fd5b8a6020828501011115610b68578485fd5b979a60209290920199509697604081013597506060810135965060800135945092505050565b600060208284031215610b9f578081fd5b5035919050565b60008284528282602086013780602084860101526020601f19601f85011685010190509392505050565b6000828483379101908152919050565b6001600160a01b0384168152604060208201819052600090610c059083018486610ba6565b95945050505050565b6001600160a01b0386168152608060208201819052600090610c339083018688610ba6565b604083019490945250606001529392505050565b60208082526027908201527f54696d654c6f636b3a2043616c6c6572206973206e6f7420636f6e74726163746040820152661034ba39b2b63360c91b606082015260800190565b6020808252818101527f4f776e61626c653a2063616c6c6572206973206e6f7420746865206f776e6572604082015260600190565b60008219821115610ce257634e487b7160e01b81526011600452602481fd5b50019056fea2646970667358221220cd954a6500a000cc3f709553c61e204074ff85ca8e0590805c2a551804f49b5864736f6c63430008020033",
  "devdoc": {
    "kind": "dev",
    "methods": {
      "owner()": {
        "details": "Returns the address of the current owner."
      },
      "renounceOwnership()": {
        "details": "Leaves the contract without owner. It will not be possible to call `onlyOwner` functions anymore. Can only be called by the current owner. NOTE: Renouncing ownership will leave the contract without an owner, thereby removing any functionality that is only available to the owner."
      },
      "transferOwnership(address)": {
        "details": "Transfers ownership of the contract to a new account (`newOwner`). Can only be called by the current owner."
      }
    },
    "version": 1
  },
  "userdoc": {
    "kind": "user",
    "methods": {},
    "version": 1
  },
  "storageLayout": {
    "storage": [
      {
        "astId": 7,
        "contract": "contracts/coordinape-protocol/contracts/ApeProtocol/ApeRegistry.sol:ApeRegistry",
        "label": "_owner",
        "offset": 0,
        "slot": "0",
        "type": "t_address"
      },
      {
        "astId": 5315,
        "contract": "contracts/coordinape-protocol/contracts/ApeProtocol/ApeRegistry.sol:ApeRegistry",
        "label": "timestamps",
        "offset": 0,
        "slot": "1",
        "type": "t_mapping(t_bytes32,t_uint256)"
      },
      {
        "astId": 5317,
        "contract": "contracts/coordinape-protocol/contracts/ApeProtocol/ApeRegistry.sol:ApeRegistry",
        "label": "minDelay",
        "offset": 0,
        "slot": "2",
        "type": "t_uint256"
      },
      {
        "astId": 4226,
        "contract": "contracts/coordinape-protocol/contracts/ApeProtocol/ApeRegistry.sol:ApeRegistry",
        "label": "feeRegistry",
        "offset": 0,
        "slot": "3",
        "type": "t_address"
      },
      {
        "astId": 4228,
        "contract": "contracts/coordinape-protocol/contracts/ApeProtocol/ApeRegistry.sol:ApeRegistry",
        "label": "router",
        "offset": 0,
        "slot": "4",
        "type": "t_address"
      },
      {
        "astId": 4230,
        "contract": "contracts/coordinape-protocol/contracts/ApeProtocol/ApeRegistry.sol:ApeRegistry",
        "label": "distributor",
        "offset": 0,
        "slot": "5",
        "type": "t_address"
      },
      {
        "astId": 4232,
        "contract": "contracts/coordinape-protocol/contracts/ApeProtocol/ApeRegistry.sol:ApeRegistry",
        "label": "factory",
        "offset": 0,
        "slot": "6",
        "type": "t_address"
      },
      {
        "astId": 4234,
        "contract": "contracts/coordinape-protocol/contracts/ApeProtocol/ApeRegistry.sol:ApeRegistry",
        "label": "treasury",
        "offset": 0,
        "slot": "7",
        "type": "t_address"
      }
    ],
    "types": {
      "t_address": {
        "encoding": "inplace",
        "label": "address",
        "numberOfBytes": "20"
      },
      "t_bytes32": {
        "encoding": "inplace",
        "label": "bytes32",
        "numberOfBytes": "32"
      },
      "t_mapping(t_bytes32,t_uint256)": {
        "encoding": "mapping",
        "key": "t_bytes32",
        "label": "mapping(bytes32 => uint256)",
        "numberOfBytes": "32",
        "value": "t_uint256"
      },
      "t_uint256": {
        "encoding": "inplace",
        "label": "uint256",
        "numberOfBytes": "32"
      }
    }
  }
}