{
  "address": "0x5C040Ed0869fe13a6c5Bfb66C268F45D5666bFEc",
  "abi": [
    {
      "inputs": [
        {
          "internalType": "address",
          "name": "_reg",
          "type": "address"
        },
        {
          "internalType": "address",
          "name": "_factory",
          "type": "address"
        },
        {
          "internalType": "uint256",
          "name": "_minDelay",
          "type": "uint256"
        }
      ],
      "stateMutability": "nonpayable",
      "type": "constructor"
    },
    {
      "anonymous": false,
      "inputs": [
        {
          "indexed": false,
          "internalType": "bytes32",
          "name": "id",
          "type": "bytes32"
        }
      ],
      "name": "CallCancelled",
      "type": "event"
    },
    {
      "anonymous": false,
      "inputs": [
        {
          "indexed": true,
          "internalType": "bytes32",
          "name": "id",
          "type": "bytes32"
        },
        {
          "indexed": false,
          "internalType": "address",
          "name": "target",
          "type": "address"
        },
        {
          "indexed": false,
          "internalType": "bytes",
          "name": "data",
          "type": "bytes"
        }
      ],
      "name": "CallExecuted",
      "type": "event"
    },
    {
      "anonymous": false,
      "inputs": [
        {
          "indexed": true,
          "internalType": "bytes32",
          "name": "id",
          "type": "bytes32"
        },
        {
          "indexed": false,
          "internalType": "address",
          "name": "target",
          "type": "address"
        },
        {
          "indexed": false,
          "internalType": "bytes",
          "name": "data",
          "type": "bytes"
        },
        {
          "indexed": false,
          "internalType": "bytes32",
          "name": "predecessor",
          "type": "bytes32"
        },
        {
          "indexed": false,
          "internalType": "uint256",
          "name": "delay",
          "type": "uint256"
        }
      ],
      "name": "CallScheduled",
      "type": "event"
    },
    {
      "anonymous": false,
      "inputs": [
        {
          "indexed": true,
          "internalType": "address",
          "name": "vault",
          "type": "address"
        },
        {
          "indexed": false,
          "internalType": "address",
          "name": "token",
          "type": "address"
        },
        {
          "indexed": false,
          "internalType": "uint256",
          "name": "amount",
          "type": "uint256"
        }
      ],
      "name": "DepositInVault",
      "type": "event"
    },
    {
      "anonymous": false,
      "inputs": [
        {
          "indexed": true,
          "internalType": "address",
          "name": "previousOwner",
          "type": "address"
        },
        {
          "indexed": true,
          "internalType": "address",
          "name": "newOwner",
          "type": "address"
        }
      ],
      "name": "OwnershipTransferred",
      "type": "event"
    },
    {
      "anonymous": false,
      "inputs": [
        {
          "indexed": true,
          "internalType": "address",
          "name": "vault",
          "type": "address"
        },
        {
          "indexed": false,
          "internalType": "address",
          "name": "token",
          "type": "address"
        },
        {
          "indexed": false,
          "internalType": "uint256",
          "name": "amount",
          "type": "uint256"
        }
      ],
      "name": "WithdrawFromVault",
      "type": "event"
    },
    {
      "inputs": [],
      "name": "apeVaultFactory",
      "outputs": [
        {
          "internalType": "address",
          "name": "",
          "type": "address"
        }
      ],
      "stateMutability": "view",
      "type": "function"
    },
    {
      "inputs": [
        {
          "internalType": "bytes32",
          "name": "_id",
          "type": "bytes32"
        }
      ],
      "name": "cancel",
      "outputs": [],
      "stateMutability": "nonpayable",
      "type": "function"
    },
    {
      "inputs": [
        {
          "internalType": "uint256",
          "name": "_min",
          "type": "uint256"
        }
      ],
      "name": "changeMinDelay",
      "outputs": [],
      "stateMutability": "nonpayable",
      "type": "function"
    },
    {
      "inputs": [
        {
          "internalType": "address",
          "name": "_apeVault",
          "type": "address"
        },
        {
          "internalType": "address",
          "name": "_token",
          "type": "address"
        },
        {
          "internalType": "uint256",
          "name": "_amount",
          "type": "uint256"
        }
      ],
      "name": "delegateDeposit",
      "outputs": [
        {
          "internalType": "uint256",
          "name": "deposited",
          "type": "uint256"
        }
      ],
      "stateMutability": "nonpayable",
      "type": "function"
    },
    {
      "inputs": [
        {
          "internalType": "address",
          "name": "_recipient",
          "type": "address"
        },
        {
          "internalType": "address",
          "name": "_apeVault",
          "type": "address"
        },
        {
          "internalType": "address",
          "name": "_token",
          "type": "address"
        },
        {
          "internalType": "uint256",
          "name": "_shareAmount",
          "type": "uint256"
        },
        {
          "internalType": "bool",
          "name": "_underlying",
          "type": "bool"
        }
      ],
      "name": "delegateWithdrawal",
      "outputs": [],
      "stateMutability": "nonpayable",
      "type": "function"
    },
    {
      "inputs": [
        {
          "internalType": "address",
          "name": "_target",
          "type": "address"
        },
        {
          "internalType": "bytes",
          "name": "_data",
          "type": "bytes"
        },
        {
          "internalType": "bytes32",
          "name": "_predecessor",
          "type": "bytes32"
        },
        {
          "internalType": "bytes32",
          "name": "_salt",
          "type": "bytes32"
        },
        {
          "internalType": "uint256",
          "name": "_delay",
          "type": "uint256"
        }
      ],
      "name": "execute",
      "outputs": [],
      "stateMutability": "nonpayable",
      "type": "function"
    },
    {
      "inputs": [
        {
          "internalType": "bytes32",
          "name": "_id",
          "type": "bytes32"
        }
      ],
      "name": "isDoneCall",
      "outputs": [
        {
          "internalType": "bool",
          "name": "",
          "type": "bool"
        }
      ],
      "stateMutability": "view",
      "type": "function"
    },
    {
      "inputs": [
        {
          "internalType": "bytes32",
          "name": "_id",
          "type": "bytes32"
        }
      ],
      "name": "isPendingCall",
      "outputs": [
        {
          "internalType": "bool",
          "name": "",
          "type": "bool"
        }
      ],
      "stateMutability": "view",
      "type": "function"
    },
    {
      "inputs": [
        {
          "internalType": "bytes32",
          "name": "_id",
          "type": "bytes32"
        }
      ],
      "name": "isReadyCall",
      "outputs": [
        {
          "internalType": "bool",
          "name": "",
          "type": "bool"
        }
      ],
      "stateMutability": "view",
      "type": "function"
    },
    {
      "inputs": [],
      "name": "minDelay",
      "outputs": [
        {
          "internalType": "uint256",
          "name": "",
          "type": "uint256"
        }
      ],
      "stateMutability": "view",
      "type": "function"
    },
    {
      "inputs": [],
      "name": "owner",
      "outputs": [
        {
          "internalType": "address",
          "name": "",
          "type": "address"
        }
      ],
      "stateMutability": "view",
      "type": "function"
    },
    {
      "inputs": [
        {
          "internalType": "address",
          "name": "_token",
          "type": "address"
        }
      ],
      "name": "removeTokens",
      "outputs": [],
      "stateMutability": "nonpayable",
      "type": "function"
    },
    {
      "inputs": [],
      "name": "renounceOwnership",
      "outputs": [],
      "stateMutability": "nonpayable",
      "type": "function"
    },
    {
      "inputs": [
        {
          "internalType": "address",
          "name": "_target",
          "type": "address"
        },
        {
          "internalType": "bytes",
          "name": "_data",
          "type": "bytes"
        },
        {
          "internalType": "bytes32",
          "name": "_predecessor",
          "type": "bytes32"
        },
        {
          "internalType": "bytes32",
          "name": "_salt",
          "type": "bytes32"
        },
        {
          "internalType": "uint256",
          "name": "_delay",
          "type": "uint256"
        }
      ],
      "name": "schedule",
      "outputs": [],
      "stateMutability": "nonpayable",
      "type": "function"
    },
    {
      "inputs": [
        {
          "internalType": "address",
          "name": "_registry",
          "type": "address"
        }
      ],
      "name": "setRegistry",
      "outputs": [],
      "stateMutability": "nonpayable",
      "type": "function"
    },
    {
      "inputs": [
        {
          "internalType": "bytes32",
          "name": "",
          "type": "bytes32"
        }
      ],
      "name": "timestamps",
      "outputs": [
        {
          "internalType": "uint256",
          "name": "",
          "type": "uint256"
        }
      ],
      "stateMutability": "view",
      "type": "function"
    },
    {
      "inputs": [
        {
          "internalType": "address",
          "name": "newOwner",
          "type": "address"
        }
      ],
      "name": "transferOwnership",
      "outputs": [],
      "stateMutability": "nonpayable",
      "type": "function"
    },
    {
      "inputs": [],
      "name": "yearnRegistry",
      "outputs": [
        {
          "internalType": "address",
          "name": "",
          "type": "address"
        }
      ],
      "stateMutability": "view",
      "type": "function"
    }
  ],
  "transactionHash": "0x79b1c6e24892f4edc75a79bb9a3a020b4aff4dc0ee60e25247930f54c6333e02",
  "args": [
    "0xE15461B18EE31b7379019Dc523231C57d1Cbc18c",
    "0x978A2941BA6CA861DFEE872c75e9FA5C51030d63",
    0
  ],
  "solcInputHash": "5c4c3df40c9a1c47594072bf6f28af44",
  "bytecode": "0x60806040523480156200001157600080fd5b5060405162001d0338038062001d038339810160408190526200003491620000e3565b80620000403362000076565b60025550600380546001600160a01b039384166001600160a01b0319918216179091556004805492909316911617905562000123565b600080546001600160a01b038381166001600160a01b0319831681178455604051919092169283917f8be0079c531659141344cd1fd0a4f28419497f9722a3daafe3b4186f6b6457e09190a35050565b80516001600160a01b0381168114620000de57600080fd5b919050565b600080600060608486031215620000f8578283fd5b6200010384620000c6565b92506200011360208501620000c6565b9150604084015190509250925092565b611bd080620001336000396000f3fe608060405234801561001057600080fd5b50600436106100e65760003560e01c80631333cdda146100eb5780632a9eda11146101135780632c5eaf211461012657806347d116dd1461013b578063499ab9761461015b5780634c84c5a11461016e57806364b84bc314610181578063715018a6146101a25780638da5cb5b146101aa5780639749b368146101b2578063a91ee0dc146101c5578063abeb6997146101d8578063b5872958146101eb578063bb8703171461020b578063c4d252f51461021e578063c63c4e9b14610231578063f2fde38b1461023a578063fc50baf51461024d575b600080fd5b6100fe6100f936600461185a565b610260565b60405190151581526020015b60405180910390f35b6100fe61012136600461185a565b610275565b6101396101343660046117a8565b61028b565b005b60045461014e906001600160a01b031681565b60405161010a91906118e0565b610139610169366004611701565b6103ec565b6100fe61017c36600461185a565b610798565b61019461018f366004611768565b6107ae565b60405190815260200161010a565b610139610c97565b61014e610cd2565b6101396101c036600461185a565b610ce1565b6101396101d33660046116c9565b610d05565b6101396101e63660046117a8565b610d46565b6101946101f936600461185a565b60016020526000908152604090205481565b60035461014e906001600160a01b031681565b61013961022c36600461185a565b610ecb565b61019460025481565b6101396102483660046116c9565b610f9d565b61013961025b3660046116c9565b61103d565b60009081526001602052604090205442101590565b6000908152600160208190526040909120541490565b33610294610cd2565b6001600160a01b0316146102c35760405162461bcd60e51b81526004016102ba90611a08565b60405180910390fd5b60006102d28787878787611165565b600081815260016020526040902054909150156103315760405162461bcd60e51b815260206004820181905260248201527f54696d654c6f636b3a2043616c6c20616c7265616479207363686564756c656460448201526064016102ba565b6002548210156103825760405162461bcd60e51b815260206004820152601c60248201527b54696d654c6f636b3a20496e73756666696369656e742064656c617960201b60448201526064016102ba565b60025461038f9042611b06565b60008281526001602052604090819020919091555181907f66dcc96f6c92c7919714879a908fc29b273e363ba3d409c0c6db86984ee3c480906103db908a908a908a908a90899061193c565b60405180910390a250505050505050565b600354604051630e177dc760e41b81526000916001600160a01b03169063e177dc709061041d9087906004016118e0565b60206040518083038186803b15801561043557600080fd5b505afa158015610449573d6000803e3d6000fd5b505050506040513d601f19601f8201168201806040525081019061046d91906116e5565b90506001600160a01b0381166104955760405162461bcd60e51b81526004016102ba90611a3d565b60048054604051632a43df5b60e11b81526001600160a01b0390911691635487beb6916104c4913391016118e0565b60206040518083038186803b1580156104dc57600080fd5b505afa1580156104f0573d6000803e3d6000fd5b505050506040513d601f19601f82011682018060405250810190610514919061183e565b6105305760405162461bcd60e51b81526004016102ba90611ab8565b846001600160a01b031663fbfa77cf6040518163ffffffff1660e01b815260040160206040518083038186803b15801561056957600080fd5b505afa15801561057d573d6000803e3d6000fd5b505050506040513d601f19601f820116820180604052508101906105a191906116e5565b6001600160a01b0316816001600160a01b0316146105d15760405162461bcd60e51b81526004016102ba90611a74565b811561065b57604051627b8a6760e11b81526001600160a01b0382169062f714ce906106039086908a90600401611aef565b602060405180830381600087803b15801561061d57600080fd5b505af1158015610631573d6000803e3d6000fd5b505050506040513d601f19601f820116820180604052508101906106559190611872565b506106dd565b60405163a9059cbb60e01b81526001600160a01b0382169063a9059cbb906106899089908790600401611975565b602060405180830381600087803b1580156106a357600080fd5b505af11580156106b7573d6000803e3d6000fd5b505050506040513d601f19601f820116820180604052508101906106db919061183e565b505b806001600160a01b03167ff77bbfe58c940481be63e90da9212a6bdeed12dd1d4b10fa66aebcdc94bc55e1826001600160a01b031663fc0c546a6040518163ffffffff1660e01b815260040160206040518083038186803b15801561074157600080fd5b505afa158015610755573d6000803e3d6000fd5b505050506040513d601f19601f8201168201806040525081019061077991906116e5565b85604051610788929190611975565b60405180910390a2505050505050565b6000908152600160208190526040909120541190565b600354604051630e177dc760e41b815260009182916001600160a01b039091169063e177dc70906107e39087906004016118e0565b60206040518083038186803b1580156107fb57600080fd5b505afa15801561080f573d6000803e3d6000fd5b505050506040513d601f19601f8201168201806040525081019061083391906116e5565b90506001600160a01b03811661085b5760405162461bcd60e51b81526004016102ba90611a3d565b60048054604051632a43df5b60e11b81526001600160a01b0390911691635487beb69161088a918991016118e0565b60206040518083038186803b1580156108a257600080fd5b505afa1580156108b6573d6000803e3d6000fd5b505050506040513d601f19601f820116820180604052508101906108da919061183e565b6108f65760405162461bcd60e51b81526004016102ba90611ab8565b846001600160a01b031663fbfa77cf6040518163ffffffff1660e01b815260040160206040518083038186803b15801561092f57600080fd5b505afa158015610943573d6000803e3d6000fd5b505050506040513d601f19601f8201168201806040525081019061096791906116e5565b6001600160a01b0316816001600160a01b0316146109975760405162461bcd60e51b81526004016102ba90611a74565b6109ac6001600160a01b0385163330866111a1565b604051636eb1769f60e11b815283906001600160a01b0386169063dd62ed3e906109dc90309086906004016118f4565b60206040518083038186803b1580156109f457600080fd5b505afa158015610a08573d6000803e3d6000fd5b505050506040513d601f19601f82011682018060405250810190610a2c9190611872565b1015610a5d57610a476001600160a01b038516826000611212565b610a5d6001600160a01b03851682600019611212565b6040516370a0823160e01b81526000906001600160a01b038616906370a0823190610a8c9030906004016118e0565b60206040518083038186803b158015610aa457600080fd5b505afa158015610ab8573d6000803e3d6000fd5b505050506040513d601f19601f82011682018060405250810190610adc9190611872565b90506000826001600160a01b0316636e553f6586896040518363ffffffff1660e01b8152600401610b0e929190611aef565b602060405180830381600087803b158015610b2857600080fd5b505af1158015610b3c573d6000803e3d6000fd5b505050506040513d601f19601f82011682018060405250810190610b609190611872565b90506000866001600160a01b03166370a08231306040518263ffffffff1660e01b8152600401610b9091906118e0565b60206040518083038186803b158015610ba857600080fd5b505afa158015610bbc573d6000803e3d6000fd5b505050506040513d601f19601f82011682018060405250810190610be09190611872565b9050610bec8184611b1e565b60405163be99970560e01b8152600481018290529095506001600160a01b0389169063be99970590602401600060405180830381600087803b158015610c3157600080fd5b505af1158015610c45573d6000803e3d6000fd5b50505050876001600160a01b03167fad1daa3a6c907d761416fa1a6d153dc1e6ff1d19b354bbfcbb848e79cecf91898884604051610c84929190611975565b60405180910390a2505050509392505050565b33610ca0610cd2565b6001600160a01b031614610cc65760405162461bcd60e51b81526004016102ba90611a08565b610cd06000611329565b565b6000546001600160a01b031690565b333014610d005760405162461bcd60e51b81526004016102ba906119c1565b600255565b333014610d245760405162461bcd60e51b81526004016102ba906119c1565b600380546001600160a01b0319166001600160a01b0392909216919091179055565b33610d4f610cd2565b6001600160a01b031614610d755760405162461bcd60e51b81526004016102ba90611a08565b6000610d848787878787611165565b9050610d8f81610260565b610de55760405162461bcd60e51b815260206004820152602160248201527f54696d654c6f636b3a204e6f7420726561647920666f7220657865637574696f6044820152603760f91b60648201526084016102ba565b610dee81610275565b15610e385760405162461bcd60e51b815260206004820152601a602482015279151a5b59531bd8dace88105b1c9958591e48195e1958dd5d195960321b60448201526064016102ba565b831580610e495750610e4984610275565b610ea55760405162461bcd60e51b815260206004820152602760248201527f54696d654c6f636b3a205072656465636573736f722063616c6c206e6f7420656044820152661e1958dd5d195960ca1b60648201526084016102ba565b610eb181888888611379565b600090815260016020819052604090912055505050505050565b33610ed4610cd2565b6001600160a01b031614610efa5760405162461bcd60e51b81526004016102ba90611a08565b610f0381610798565b610f4f5760405162461bcd60e51b815260206004820152601d60248201527f54696d654c6f636b3a2043616c6c206973206e6f742070656e64696e6700000060448201526064016102ba565b60008181526001602052604080822091909155517fab2af3494bc00bd4aa34e08bd246e5c402d3ee4856c19f5461ce47a6d57423e190610f929083815260200190565b60405180910390a150565b33610fa6610cd2565b6001600160a01b031614610fcc5760405162461bcd60e51b81526004016102ba90611a08565b6001600160a01b0381166110315760405162461bcd60e51b815260206004820152602660248201527f4f776e61626c653a206e6577206f776e657220697320746865207a65726f206160448201526564647265737360d01b60648201526084016102ba565b61103a81611329565b50565b33611046610cd2565b6001600160a01b03161461106c5760405162461bcd60e51b81526004016102ba90611a08565b6040516370a0823160e01b81526001600160a01b0382169063a9059cbb90339083906370a08231906110a29030906004016118e0565b60206040518083038186803b1580156110ba57600080fd5b505afa1580156110ce573d6000803e3d6000fd5b505050506040513d601f19601f820116820180604052508101906110f29190611872565b6040518363ffffffff1660e01b815260040161110f929190611975565b602060405180830381600087803b15801561112957600080fd5b505af115801561113d573d6000803e3d6000fd5b505050506040513d601f19601f82011682018060405250810190611161919061183e565b5050565b6000858585858560405160200161118095949392919061193c565b60405160208183030381529060405280519060200120905095945050505050565b6040516001600160a01b038085166024830152831660448201526064810182905261120c9085906323b872dd60e01b906084015b60408051601f198184030181529190526020810180516001600160e01b03166001600160e01b03199093169290921790915261147d565b50505050565b80158061129a5750604051636eb1769f60e11b81526001600160a01b0384169063dd62ed3e9061124890309086906004016118f4565b60206040518083038186803b15801561126057600080fd5b505afa158015611274573d6000803e3d6000fd5b505050506040513d601f19601f820116820180604052508101906112989190611872565b155b6113055760405162461bcd60e51b815260206004820152603660248201527f5361666545524332303a20617070726f76652066726f6d206e6f6e2d7a65726f60448201527520746f206e6f6e2d7a65726f20616c6c6f77616e636560501b60648201526084016102ba565b6113248363095ea7b360e01b84846040516024016111d5929190611975565b505050565b600080546001600160a01b038381166001600160a01b0319831681178455604051919092169283917f8be0079c531659141344cd1fd0a4f28419497f9722a3daafe3b4186f6b6457e09190a35050565b6000836001600160a01b031683836040516113959291906118b4565b6000604051808303816000865af19150503d80600081146113d2576040519150601f19603f3d011682016040523d82523d6000602084013e6113d7565b606091505b505090508061143a5760405162461bcd60e51b815260206004820152602960248201527f54696d656c6f636b3a20756e6465726c79696e67207472616e73616374696f6e604482015268081c995d995c9d195960ba1b60648201526084016102ba565b847fc08872e260006100fd2e00a3ba4c617fdb250f802f99384d55c10097dc1d048785858560405161146e9392919061190e565b60405180910390a25050505050565b60006114d2826040518060400160405280602081526020017f5361666545524332303a206c6f772d6c6576656c2063616c6c206661696c6564815250856001600160a01b031661154f9092919063ffffffff16565b80519091501561132457808060200190518101906114f0919061183e565b6113245760405162461bcd60e51b815260206004820152602a60248201527f5361666545524332303a204552433230206f7065726174696f6e20646964206e6044820152691bdd081cdd58d8d9595960b21b60648201526084016102ba565b606061155e8484600085611568565b90505b9392505050565b6060824710156115c95760405162461bcd60e51b815260206004820152602660248201527f416464726573733a20696e73756666696369656e742062616c616e636520666f6044820152651c8818d85b1b60d21b60648201526084016102ba565b843b6116175760405162461bcd60e51b815260206004820152601d60248201527f416464726573733a2063616c6c20746f206e6f6e2d636f6e747261637400000060448201526064016102ba565b600080866001600160a01b0316858760405161163391906118c4565b60006040518083038185875af1925050503d8060008114611670576040519150601f19603f3d011682016040523d82523d6000602084013e611675565b606091505b5091509150611685828286611690565b979650505050505050565b6060831561169f575081611561565b8251156116af5782518084602001fd5b8160405162461bcd60e51b81526004016102ba919061198e565b6000602082840312156116da578081fd5b813561156181611b77565b6000602082840312156116f6578081fd5b815161156181611b77565b600080600080600060a08688031215611718578081fd5b853561172381611b77565b9450602086013561173381611b77565b9350604086013561174381611b77565b925060608601359150608086013561175a81611b8c565b809150509295509295909350565b60008060006060848603121561177c578283fd5b833561178781611b77565b9250602084013561179781611b77565b929592945050506040919091013590565b60008060008060008060a087890312156117c0578081fd5b86356117cb81611b77565b955060208701356001600160401b03808211156117e6578283fd5b818901915089601f8301126117f9578283fd5b813581811115611807578384fd5b8a6020828501011115611818578384fd5b979a60209290920199509697604081013597506060810135965060800135945092505050565b60006020828403121561184f578081fd5b815161156181611b8c565b60006020828403121561186b578081fd5b5035919050565b600060208284031215611883578081fd5b5051919050565b60008284528282602086013780602084860101526020601f19601f85011685010190509392505050565b6000828483379101908152919050565b600082516118d6818460208701611b35565b9190910192915050565b6001600160a01b0391909116815260200190565b6001600160a01b0392831681529116602082015260400190565b6001600160a01b0384168152604060208201819052600090611933908301848661188a565b95945050505050565b6001600160a01b0386168152608060208201819052600090611961908301868861188a565b604083019490945250606001529392505050565b6001600160a01b03929092168252602082015260400190565b60006020825282518060208401526119ad816040850160208701611b35565b601f01601f19169190910160400192915050565b60208082526027908201527f54696d654c6f636b3a2043616c6c6572206973206e6f7420636f6e74726163746040820152661034ba39b2b63360c91b606082015260800190565b6020808252818101527f4f776e61626c653a2063616c6c6572206973206e6f7420746865206f776e6572604082015260600190565b6020808252601d908201527f417065526f757465723a204e6f207661756c7420666f7220746f6b656e000000604082015260600190565b60208082526024908201527f417065526f757465723a20796561726e205661756c74206e6f74206964656e746040820152631a58d85b60e21b606082015260800190565b6020808252601f908201527f417065526f757465723a205661756c7420646f6573206e6f7420657869737400604082015260600190565b9182526001600160a01b0316602082015260400190565b60008219821115611b1957611b19611b61565b500190565b600082821015611b3057611b30611b61565b500390565b60005b83811015611b50578181015183820152602001611b38565b8381111561120c5750506000910152565b634e487b7160e01b600052601160045260246000fd5b6001600160a01b038116811461103a57600080fd5b801515811461103a57600080fdfea26469706673582212207368be99e35033d6954291dd8767ca9724acf306e9b1b9c110d3f5529f6357c164736f6c63430008020033",
  "devdoc": {
    "kind": "dev",
    "methods": {
      "owner()": {
        "details": "Returns the address of the current owner."
      },
      "renounceOwnership()": {
        "details": "Leaves the contract without owner. It will not be possible to call `onlyOwner` functions anymore. Can only be called by the current owner. NOTE: Renouncing ownership will leave the contract without an owner, thereby removing any functionality that is only available to the owner."
      },
      "setRegistry(address)": {
        "params": {
          "_registry": "The new _registry address."
        }
      },
      "transferOwnership(address)": {
        "details": "Transfers ownership of the contract to a new account (`newOwner`). Can only be called by the current owner."
      }
    },
    "version": 1
  },
  "userdoc": {
    "kind": "user",
    "methods": {
      "setRegistry(address)": {
        "notice": "Used to update the yearn registry."
      }
    },
    "version": 1
  },
  "storageLayout": {
    "storage": [
      {
        "astId": 7,
        "contract": "contracts/coordinape-protocol/contracts/ApeProtocol/ApeRouter.sol:ApeRouter",
        "label": "_owner",
        "offset": 0,
        "slot": "0",
        "type": "t_address"
      },
      {
        "astId": 5976,
        "contract": "contracts/coordinape-protocol/contracts/ApeProtocol/ApeRouter.sol:ApeRouter",
        "label": "timestamps",
        "offset": 0,
        "slot": "1",
        "type": "t_mapping(t_bytes32,t_uint256)"
      },
      {
        "astId": 5978,
        "contract": "contracts/coordinape-protocol/contracts/ApeProtocol/ApeRouter.sol:ApeRouter",
        "label": "minDelay",
        "offset": 0,
        "slot": "2",
        "type": "t_uint256"
      },
      {
        "astId": 4973,
        "contract": "contracts/coordinape-protocol/contracts/ApeProtocol/ApeRouter.sol:ApeRouter",
        "label": "yearnRegistry",
        "offset": 0,
        "slot": "3",
        "type": "t_address"
      },
      {
        "astId": 4975,
        "contract": "contracts/coordinape-protocol/contracts/ApeProtocol/ApeRouter.sol:ApeRouter",
        "label": "apeVaultFactory",
        "offset": 0,
        "slot": "4",
        "type": "t_address"
      }
    ],
    "types": {
      "t_address": {
        "encoding": "inplace",
        "label": "address",
        "numberOfBytes": "20"
      },
      "t_bytes32": {
        "encoding": "inplace",
        "label": "bytes32",
        "numberOfBytes": "32"
      },
      "t_mapping(t_bytes32,t_uint256)": {
        "encoding": "mapping",
        "key": "t_bytes32",
        "label": "mapping(bytes32 => uint256)",
        "numberOfBytes": "32",
        "value": "t_uint256"
      },
      "t_uint256": {
        "encoding": "inplace",
        "label": "uint256",
        "numberOfBytes": "32"
      }
    }
  }
}