{
  "address": "0x48B2838d5698E2A8d4d70e62DAAFe255223Eecd5",
  "abi": [
    {
      "inputs": [],
      "stateMutability": "nonpayable",
      "type": "constructor"
    },
    {
      "anonymous": false,
      "inputs": [
        {
          "indexed": true,
          "internalType": "address",
          "name": "owner",
          "type": "address"
        },
        {
          "indexed": true,
          "internalType": "address",
          "name": "spender",
          "type": "address"
        },
        {
          "indexed": false,
          "internalType": "uint256",
          "name": "value",
          "type": "uint256"
        }
      ],
      "name": "Approval",
      "type": "event"
    },
    {
      "anonymous": false,
      "inputs": [
        {
          "indexed": false,
          "internalType": "address[]",
          "name": "minters",
          "type": "address[]"
        }
      ],
      "name": "MintersAdded",
      "type": "event"
    },
    {
      "anonymous": false,
      "inputs": [
        {
          "indexed": false,
          "internalType": "address[]",
          "name": "minters",
          "type": "address[]"
        }
      ],
      "name": "MintersRemoved",
      "type": "event"
    },
    {
      "anonymous": false,
      "inputs": [
        {
          "indexed": true,
          "internalType": "address",
          "name": "previousOwner",
          "type": "address"
        },
        {
          "indexed": true,
          "internalType": "address",
          "name": "newOwner",
          "type": "address"
        }
      ],
      "name": "OwnershipTransferred",
      "type": "event"
    },
    {
      "anonymous": false,
      "inputs": [
        {
          "indexed": true,
          "internalType": "address",
          "name": "from",
          "type": "address"
        },
        {
          "indexed": true,
          "internalType": "address",
          "name": "to",
          "type": "address"
        },
        {
          "indexed": false,
          "internalType": "uint256",
          "name": "value",
          "type": "uint256"
        }
      ],
      "name": "Transfer",
      "type": "event"
    },
    {
      "anonymous": false,
      "inputs": [
        {
          "indexed": false,
          "internalType": "address[]",
          "name": "minters",
          "type": "address[]"
        }
      ],
      "name": "WhitelistedAddressesAdded",
      "type": "event"
    },
    {
      "anonymous": false,
      "inputs": [
        {
          "indexed": false,
          "internalType": "address[]",
          "name": "minters",
          "type": "address[]"
        }
      ],
      "name": "WhitelistedAddressesRemoved",
      "type": "event"
    },
    {
      "inputs": [],
      "name": "DOMAIN_SEPARATOR",
      "outputs": [
        {
          "internalType": "bytes32",
          "name": "",
          "type": "bytes32"
        }
      ],
      "stateMutability": "view",
      "type": "function"
    },
    {
      "inputs": [
        {
          "internalType": "address[]",
          "name": "_minters",
          "type": "address[]"
        }
      ],
      "name": "addMinters",
      "outputs": [],
      "stateMutability": "nonpayable",
      "type": "function"
    },
    {
      "inputs": [
        {
          "internalType": "address[]",
          "name": "_addresses",
          "type": "address[]"
        }
      ],
      "name": "addWhitelistedAddresses",
      "outputs": [],
      "stateMutability": "nonpayable",
      "type": "function"
    },
    {
      "inputs": [
        {
          "internalType": "address",
          "name": "owner",
          "type": "address"
        },
        {
          "internalType": "address",
          "name": "spender",
          "type": "address"
        }
      ],
      "name": "allowance",
      "outputs": [
        {
          "internalType": "uint256",
          "name": "",
          "type": "uint256"
        }
      ],
      "stateMutability": "view",
      "type": "function"
    },
    {
      "inputs": [
        {
          "internalType": "address",
          "name": "spender",
          "type": "address"
        },
        {
          "internalType": "uint256",
          "name": "amount",
          "type": "uint256"
        }
      ],
      "name": "approve",
      "outputs": [
        {
          "internalType": "bool",
          "name": "",
          "type": "bool"
        }
      ],
      "stateMutability": "nonpayable",
      "type": "function"
    },
    {
      "inputs": [
        {
          "internalType": "address",
          "name": "account",
          "type": "address"
        }
      ],
      "name": "balanceOf",
      "outputs": [
        {
          "internalType": "uint256",
          "name": "",
          "type": "uint256"
        }
      ],
      "stateMutability": "view",
      "type": "function"
    },
    {
      "inputs": [],
      "name": "cap",
      "outputs": [
        {
          "internalType": "uint256",
          "name": "",
          "type": "uint256"
        }
      ],
      "stateMutability": "view",
      "type": "function"
    },
    {
      "inputs": [
        {
          "internalType": "bool",
          "name": "_status",
          "type": "bool"
        }
      ],
      "name": "changePauseStatus",
      "outputs": [],
      "stateMutability": "nonpayable",
      "type": "function"
    },
    {
      "inputs": [],
      "name": "decimals",
      "outputs": [
        {
          "internalType": "uint8",
          "name": "",
          "type": "uint8"
        }
      ],
      "stateMutability": "view",
      "type": "function"
    },
    {
      "inputs": [
        {
          "internalType": "address",
          "name": "spender",
          "type": "address"
        },
        {
          "internalType": "uint256",
          "name": "subtractedValue",
          "type": "uint256"
        }
      ],
      "name": "decreaseAllowance",
      "outputs": [
        {
          "internalType": "bool",
          "name": "",
          "type": "bool"
        }
      ],
      "stateMutability": "nonpayable",
      "type": "function"
    },
    {
      "inputs": [],
      "name": "disableMintingForever",
      "outputs": [],
      "stateMutability": "nonpayable",
      "type": "function"
    },
    {
      "inputs": [],
      "name": "disablePausingForever",
      "outputs": [],
      "stateMutability": "nonpayable",
      "type": "function"
    },
    {
      "inputs": [],
      "name": "disableWhitelist",
      "outputs": [],
      "stateMutability": "nonpayable",
      "type": "function"
    },
    {
      "inputs": [],
      "name": "foreverUnpaused",
      "outputs": [
        {
          "internalType": "bool",
          "name": "",
          "type": "bool"
        }
      ],
      "stateMutability": "view",
      "type": "function"
    },
    {
      "inputs": [
        {
          "internalType": "address",
          "name": "spender",
          "type": "address"
        },
        {
          "internalType": "uint256",
          "name": "addedValue",
          "type": "uint256"
        }
      ],
      "name": "increaseAllowance",
      "outputs": [
        {
          "internalType": "bool",
          "name": "",
          "type": "bool"
        }
      ],
      "stateMutability": "nonpayable",
      "type": "function"
    },
    {
      "inputs": [
        {
          "internalType": "address",
          "name": "_account",
          "type": "address"
        },
        {
          "internalType": "uint256",
          "name": "_amount",
          "type": "uint256"
        }
      ],
      "name": "mint",
      "outputs": [],
      "stateMutability": "nonpayable",
      "type": "function"
    },
    {
      "inputs": [
        {
          "internalType": "address",
          "name": "",
          "type": "address"
        }
      ],
      "name": "minters",
      "outputs": [
        {
          "internalType": "bool",
          "name": "",
          "type": "bool"
        }
      ],
      "stateMutability": "view",
      "type": "function"
    },
    {
      "inputs": [],
      "name": "mintingDisabled",
      "outputs": [
        {
          "internalType": "bool",
          "name": "",
          "type": "bool"
        }
      ],
      "stateMutability": "view",
      "type": "function"
    },
    {
      "inputs": [],
      "name": "name",
      "outputs": [
        {
          "internalType": "string",
          "name": "",
          "type": "string"
        }
      ],
      "stateMutability": "view",
      "type": "function"
    },
    {
      "inputs": [
        {
          "internalType": "address",
          "name": "",
          "type": "address"
        }
      ],
      "name": "nonces",
      "outputs": [
        {
          "internalType": "uint256",
          "name": "",
          "type": "uint256"
        }
      ],
      "stateMutability": "view",
      "type": "function"
    },
    {
      "inputs": [],
      "name": "owner",
      "outputs": [
        {
          "internalType": "address",
          "name": "",
          "type": "address"
        }
      ],
      "stateMutability": "view",
      "type": "function"
    },
    {
      "inputs": [],
      "name": "paused",
      "outputs": [
        {
          "internalType": "bool",
          "name": "",
          "type": "bool"
        }
      ],
      "stateMutability": "view",
      "type": "function"
    },
    {
      "inputs": [
        {
          "internalType": "address",
          "name": "owner",
          "type": "address"
        },
        {
          "internalType": "address",
          "name": "spender",
          "type": "address"
        },
        {
          "internalType": "uint256",
          "name": "value",
          "type": "uint256"
        },
        {
          "internalType": "uint256",
          "name": "deadline",
          "type": "uint256"
        },
        {
          "internalType": "uint8",
          "name": "v",
          "type": "uint8"
        },
        {
          "internalType": "bytes32",
          "name": "r",
          "type": "bytes32"
        },
        {
          "internalType": "bytes32",
          "name": "s",
          "type": "bytes32"
        }
      ],
      "name": "permit",
      "outputs": [],
      "stateMutability": "nonpayable",
      "type": "function"
    },
    {
      "inputs": [
        {
          "internalType": "address[]",
          "name": "_minters",
          "type": "address[]"
        }
      ],
      "name": "removeMinters",
      "outputs": [],
      "stateMutability": "nonpayable",
      "type": "function"
    },
    {
      "inputs": [
        {
          "internalType": "address[]",
          "name": "_addresses",
          "type": "address[]"
        }
      ],
      "name": "removeWhitelistedAddresses",
      "outputs": [],
      "stateMutability": "nonpayable",
      "type": "function"
    },
    {
      "inputs": [],
      "name": "renounceOwnership",
      "outputs": [],
      "stateMutability": "nonpayable",
      "type": "function"
    },
    {
      "inputs": [],
      "name": "symbol",
      "outputs": [
        {
          "internalType": "string",
          "name": "",
          "type": "string"
        }
      ],
      "stateMutability": "view",
      "type": "function"
    },
    {
      "inputs": [],
      "name": "totalSupply",
      "outputs": [
        {
          "internalType": "uint256",
          "name": "",
          "type": "uint256"
        }
      ],
      "stateMutability": "view",
      "type": "function"
    },
    {
      "inputs": [
        {
          "internalType": "address",
          "name": "_to",
          "type": "address"
        },
        {
          "internalType": "uint256",
          "name": "_amount",
          "type": "uint256"
        }
      ],
      "name": "transfer",
      "outputs": [
        {
          "internalType": "bool",
          "name": "",
          "type": "bool"
        }
      ],
      "stateMutability": "nonpayable",
      "type": "function"
    },
    {
      "inputs": [
        {
          "internalType": "address",
          "name": "_from",
          "type": "address"
        },
        {
          "internalType": "address",
          "name": "_to",
          "type": "address"
        },
        {
          "internalType": "uint256",
          "name": "_amount",
          "type": "uint256"
        }
      ],
      "name": "transferFrom",
      "outputs": [
        {
          "internalType": "bool",
          "name": "",
          "type": "bool"
        }
      ],
      "stateMutability": "nonpayable",
      "type": "function"
    },
    {
      "inputs": [
        {
          "internalType": "address",
          "name": "newOwner",
          "type": "address"
        }
      ],
      "name": "transferOwnership",
      "outputs": [],
      "stateMutability": "nonpayable",
      "type": "function"
    },
    {
      "inputs": [],
      "name": "whitelistDisabled",
      "outputs": [
        {
          "internalType": "bool",
          "name": "",
          "type": "bool"
        }
      ],
      "stateMutability": "view",
      "type": "function"
    },
    {
      "inputs": [
        {
          "internalType": "address",
          "name": "",
          "type": "address"
        }
      ],
      "name": "whitelistedAddresses",
      "outputs": [
        {
          "internalType": "bool",
          "name": "",
          "type": "bool"
        }
      ],
      "stateMutability": "view",
      "type": "function"
    }
  ],
  "transactionHash": "0x67f28a597c82b8fc18595d8c80b8015d44da7f79a2896986b7d7eca2feaaa689",
  "args": [],
  "solcInputHash": "9e6e1217bf4d4d1936e45638d60026ce",
  "bytecode": "0x60c06040526b033b2e3c9fd0803ce80000006080527f6e71edae12b1b97f4d1f60370fef10105fa2faae0126114a169c64845d6126c960a0523480156200004557600080fd5b506040518060400160405280600e81526020016d636f6f7264696e6170652e636f6d60901b8152506040518060400160405280600381526020016241504560e81b8152508160039080519060200190620000a192919062000205565b508051620000b790600490602084019062000205565b505050620000d4620000ce620001af60201b60201c565b620001b3565b604080518082018252600e81526d636f6f7264696e6170652e636f6d60901b6020918201528151808301835260018152603160f81b9082015281517f8b73c3c69bb8fe3d512ecc4cf759cc79239f7b179b0ffacaa9a75d522b39400f818301527f29f08892e9d9d00942c1a4e8d6437f3fb8ccd5d61f75bf952e083399f724a975818401527fc89efdaa54c0f20c7adf612882df0950f5a951637e0307cdcb4c672f298b8bc660608201524660808201523060a0808301919091528351808303909101815260c09091019092528151910120600955620002e8565b3390565b600580546001600160a01b038381166001600160a01b0319831681179093556040519116919082907f8be0079c531659141344cd1fd0a4f28419497f9722a3daafe3b4186f6b6457e090600090a35050565b8280546200021390620002ab565b90600052602060002090601f01602090048101928262000237576000855562000282565b82601f106200025257805160ff191683800117855562000282565b8280016001018555821562000282579182015b828111156200028257825182559160200191906001019062000265565b506200029092915062000294565b5090565b5b8082111562000290576000815560010162000295565b600281046001821680620002c057607f821691505b60208210811415620002e257634e487b7160e01b600052602260045260246000fd5b50919050565b60805160a051611d0e6200030e6000396000610dce015260006106470152611d0e6000f3fe608060405234801561001057600080fd5b506004361061018b5760003560e01c806306c933d81461019057806306ca0bad146101c857806306fdde03146101d2578063095ea7b3146101e757806318160ddd146101fa5780631c8e85681461020c57806321afb5ee1461022057806323b872dd14610233578063313ce567146102465780633424b8ce14610255578063355274ea146102685780633644e51514610270578063395093511461027957806340c10f191461028c5780635c975abb1461029f5780635fc1964f146102ac57806370a08231146102bf578063715018a6146102d257806371e2a657146102da57806372be7ec3146102ed5780637a131ebe146102f55780637ecebe00146103075780638da5cb5b1461032757806395d89b4114610347578063a457c2d71461034f578063a9059cbb14610362578063bf4c04c414610375578063ca2cfc2014610388578063d505accf1461039b578063d6b0f484146103ae578063dd62ed3e146103b6578063f2fde38b146103ef578063f46eccc414610402575b600080fd5b6101b361019e36600461187a565b60076020526000908152604090205460ff1681565b60405190151581526020015b60405180910390f35b6101d0610425565b005b6101da6104cb565b6040516101bf9190611a75565b6101b36101f5366004611972565b61055d565b6002545b6040519081526020016101bf565b6008546101b3906301000000900460ff1681565b6008546101b39062010000900460ff1681565b6101b36102413660046118c6565b610573565b604051601281526020016101bf565b6101d0610263366004611a09565b6105db565b6101fe610645565b6101fe60095481565b6101b3610287366004611972565b610669565b6101d061029a366004611972565b6106a5565b6008546101b39060ff1681565b6101d06102ba36600461199b565b610744565b6101fe6102cd36600461187a565b61085a565b6101d0610879565b6101d06102e836600461199b565b6108b4565b6101d06109be565b6008546101b390610100900460ff1681565b6101fe61031536600461187a565b600a6020526000908152604090205481565b61032f610a2c565b6040516001600160a01b0390911681526020016101bf565b6101da610a3b565b6101b361035d366004611972565b610a4a565b6101b3610370366004611972565b610ae3565b6101d061038336600461199b565b610b49565b6101d061039636600461199b565b610c54565b6101d06103a9366004611901565b610d5f565b6101d0610f23565b6101fe6103c4366004611894565b6001600160a01b03918216600090815260016020908152604080832093909416825291909152205490565b6101d06103fd36600461187a565b610f91565b6101b361041036600461187a565b60066020526000908152604090205460ff1681565b3361042e610a2c565b6001600160a01b03161461045d5760405162461bcd60e51b815260040161045490611b0b565b60405180910390fd5b60085462010000900460ff16156104b85760405162461bcd60e51b815260206004820152602b6024820152600080516020611c9983398151915260448201526a696e7420616e796d6f726560a81b6064820152608401610454565b6008805462ff0000191662010000179055565b6060600380546104da90611c2c565b80601f016020809104026020016040519081016040528092919081815260200182805461050690611c2c565b80156105535780601f1061052857610100808354040283529160200191610553565b820191906000526020600020905b81548152906001019060200180831161053657829003601f168201915b5050505050905090565b600061056a338484611031565b50600192915050565b60085460009060ff1615806105ac57503360009081526007602052604090205460ff1680156105ac57506008546301000000900460ff16155b6105c85760405162461bcd60e51b815260040161045490611ac8565b6105d3848484611155565b949350505050565b336105e4610a2c565b6001600160a01b03161461060a5760405162461bcd60e51b815260040161045490611b0b565b600854610100900460ff16156106325760405162461bcd60e51b815260040161045490611b89565b6008805460ff1916911515919091179055565b7f000000000000000000000000000000000000000000000000000000000000000090565b3360008181526001602090815260408083206001600160a01b0387168452909152812054909161056a9185906106a0908690611c14565b611031565b600854339062010000900460ff16156106d05760405162461bcd60e51b815260040161045490611bd4565b6001600160a01b03811660009081526006602052604090205460ff166107355760405162461bcd60e51b815260206004820152601a6024820152791058d8d95cdcd0dbdb9d1c9bdb0e8810d85b9b9bdd081b5a5b9d60321b6044820152606401610454565b61073f83836111ff565b505050565b3361074d610a2c565b6001600160a01b0316146107735760405162461bcd60e51b815260040161045490611b0b565b60085462010000900460ff161561079c5760405162461bcd60e51b815260040161045490611bd4565b60005b8181101561081c576000600660008585858181106107cd57634e487b7160e01b600052603260045260246000fd5b90506020020160208101906107e2919061187a565b6001600160a01b031681526020810191909152604001600020805460ff19169115159190911790558061081481611c67565b91505061079f565b507fa4bd966469c62332cc5041d465060dbc3e847c7b125422e59ddb3e61a2005ae7828260405161084e929190611a29565b60405180910390a15050565b6001600160a01b0381166000908152602081905260409020545b919050565b33610882610a2c565b6001600160a01b0316146108a85760405162461bcd60e51b815260040161045490611b0b565b6108b26000611270565b565b336108bd610a2c565b6001600160a01b0316146108e35760405162461bcd60e51b815260040161045490611b0b565b60085462010000900460ff161561090c5760405162461bcd60e51b815260040161045490611bd4565b60005b8181101561098c5760016006600085858581811061093d57634e487b7160e01b600052603260045260246000fd5b9050602002016020810190610952919061187a565b6001600160a01b031681526020810191909152604001600020805460ff19169115159190911790558061098481611c67565b91505061090f565b507f6050e1d24499bf62f6297dc608356dc088c4e4b4fd753a8606207fdf078578e3828260405161084e929190611a29565b336109c7610a2c565b6001600160a01b0316146109ed5760405162461bcd60e51b815260040161045490611b0b565b600854610100900460ff1615610a155760405162461bcd60e51b815260040161045490611b89565b6008805460ff1961ff001990911661010017169055565b6005546001600160a01b031690565b6060600480546104da90611c2c565b3360009081526001602090815260408083206001600160a01b038616845290915281205482811015610acc5760405162461bcd60e51b815260206004820152602560248201527f45524332303a2064656372656173656420616c6c6f77616e63652062656c6f77604482015264207a65726f60d81b6064820152608401610454565b610ad93385858403611031565b5060019392505050565b60085460009060ff161580610b1c57503360009081526007602052604090205460ff168015610b1c57506008546301000000900460ff16155b610b385760405162461bcd60e51b815260040161045490611ac8565b610b4283836112c2565b9392505050565b33610b52610a2c565b6001600160a01b031614610b785760405162461bcd60e51b815260040161045490611b0b565b6008546301000000900460ff1615610ba25760405162461bcd60e51b815260040161045490611b40565b60005b81811015610c2257600060076000858585818110610bd357634e487b7160e01b600052603260045260246000fd5b9050602002016020810190610be8919061187a565b6001600160a01b031681526020810191909152604001600020805460ff191691151591909117905580610c1a81611c67565b915050610ba5565b507f93101335235e43f02b83c07a1c98aa9b8a5f278a1ee96ef3483caccdf9e5d49e828260405161084e929190611a29565b33610c5d610a2c565b6001600160a01b031614610c835760405162461bcd60e51b815260040161045490611b0b565b6008546301000000900460ff1615610cad5760405162461bcd60e51b815260040161045490611b40565b60005b81811015610d2d57600160076000858585818110610cde57634e487b7160e01b600052603260045260246000fd5b9050602002016020810190610cf3919061187a565b6001600160a01b031681526020810191909152604001600020805460ff191691151591909117905580610d2581611c67565b915050610cb0565b507ff55dc23bb986f9174bff1818b319b6659e80b52627abe19f6b13647d5bb37435828260405161084e929190611a29565b83421115610dac5760405162461bcd60e51b815260206004820152601a602482015279417065546f6b656e3a206578706972656420646561646c696e6560301b6044820152606401610454565b6009546001600160a01b0388166000908152600a6020526040812080549192917f0000000000000000000000000000000000000000000000000000000000000000918b918b918b919087610dff83611c67565b909155506040805160208101969096526001600160a01b0394851690860152929091166060840152608083015260a082015260c0810187905260e00160405160208183030381529060405280519060200120604051602001610e86929190606080825260029082015261190160f01b60808201526020810192909252604082015260a00190565b6040516020818303038152906040528051906020012090506000610eac828686866112cf565b9050886001600160a01b0316816001600160a01b031614610f0d5760405162461bcd60e51b815260206004820152601b60248201527a417065546f6b656e3a20696e76616c6964207369676e617475726560281b6044820152606401610454565b610f18898989611031565b505050505050505050565b33610f2c610a2c565b6001600160a01b031614610f525760405162461bcd60e51b815260040161045490611b0b565b6008546301000000900460ff1615610f7c5760405162461bcd60e51b815260040161045490611b40565b6008805463ff00000019166301000000179055565b33610f9a610a2c565b6001600160a01b031614610fc05760405162461bcd60e51b815260040161045490611b0b565b6001600160a01b0381166110255760405162461bcd60e51b815260206004820152602660248201527f4f776e61626c653a206e6577206f776e657220697320746865207a65726f206160448201526564647265737360d01b6064820152608401610454565b61102e81611270565b50565b6001600160a01b0383166110935760405162461bcd60e51b8152602060048201526024808201527f45524332303a20617070726f76652066726f6d20746865207a65726f206164646044820152637265737360e01b6064820152608401610454565b6001600160a01b0382166110f45760405162461bcd60e51b815260206004820152602260248201527f45524332303a20617070726f766520746f20746865207a65726f206164647265604482015261737360f01b6064820152608401610454565b6001600160a01b0383811660008181526001602090815260408083209487168084529482529182902085905590518481527f8c5be1e5ebec7d5bd14f71427d1e84f3dd0314c0f7b2291e5b200ac8c7c3b925910160405180910390a3505050565b60006111628484846112f7565b6001600160a01b0384166000908152600160209081526040808320338452909152902054828110156111e75760405162461bcd60e51b815260206004820152602860248201527f45524332303a207472616e7366657220616d6f756e74206578636565647320616044820152676c6c6f77616e636560c01b6064820152608401610454565b6111f48533858403611031565b506001949350505050565b611207610645565b8161121160025490565b61121b9190611c14565b11156112625760405162461bcd60e51b8152602060048201526016602482015275105c19551bdad95b8e8818d85c08195e18d95959195960521b6044820152606401610454565b61126c82826114b4565b5050565b600580546001600160a01b038381166001600160a01b0319831681179093556040519116919082907f8be0079c531659141344cd1fd0a4f28419497f9722a3daafe3b4186f6b6457e090600090a35050565b600061056a3384846112f7565b60008060006112e087878787611582565b915091506112ed81611665565b5095945050505050565b6001600160a01b03831661135b5760405162461bcd60e51b815260206004820152602560248201527f45524332303a207472616e736665722066726f6d20746865207a65726f206164604482015264647265737360d81b6064820152608401610454565b6001600160a01b0382166113bd5760405162461bcd60e51b815260206004820152602360248201527f45524332303a207472616e7366657220746f20746865207a65726f206164647260448201526265737360e81b6064820152608401610454565b6001600160a01b038316600090815260208190526040902054818110156114355760405162461bcd60e51b815260206004820152602660248201527f45524332303a207472616e7366657220616d6f756e7420657863656564732062604482015265616c616e636560d01b6064820152608401610454565b6001600160a01b0380851660009081526020819052604080822085850390559185168152908120805484929061146c908490611c14565b92505081905550826001600160a01b0316846001600160a01b0316600080516020611cb9833981519152846040516114a691815260200190565b60405180910390a350505050565b6001600160a01b03821661150a5760405162461bcd60e51b815260206004820152601f60248201527f45524332303a206d696e7420746f20746865207a65726f2061646472657373006044820152606401610454565b806002600082825461151c9190611c14565b90915550506001600160a01b03821660009081526020819052604081208054839290611549908490611c14565b90915550506040518181526001600160a01b03831690600090600080516020611cb98339815191529060200160405180910390a361126c565b6000806fa2a8918ca85bafe22016d0b997e4df60600160ff1b038311156115af575060009050600361165c565b8460ff16601b141580156115c757508460ff16601c14155b156115d8575060009050600461165c565b6040805160008082526020820180845289905260ff881692820192909252606081018690526080810185905260019060a0016020604051602081039080840390855afa15801561162c573d6000803e3d6000fd5b5050604051601f1901519150506001600160a01b0381166116555760006001925092505061165c565b9150600090505b94509492505050565b600081600481111561168757634e487b7160e01b600052602160045260246000fd5b14156116925761102e565b60018160048111156116b457634e487b7160e01b600052602160045260246000fd5b14156116fd5760405162461bcd60e51b815260206004820152601860248201527745434453413a20696e76616c6964207369676e617475726560401b6044820152606401610454565b600281600481111561171f57634e487b7160e01b600052602160045260246000fd5b141561176d5760405162461bcd60e51b815260206004820152601f60248201527f45434453413a20696e76616c6964207369676e6174757265206c656e677468006044820152606401610454565b600381600481111561178f57634e487b7160e01b600052602160045260246000fd5b14156117e85760405162461bcd60e51b815260206004820152602260248201527f45434453413a20696e76616c6964207369676e6174757265202773272076616c604482015261756560f01b6064820152608401610454565b600481600481111561180a57634e487b7160e01b600052602160045260246000fd5b141561102e5760405162461bcd60e51b815260206004820152602260248201527f45434453413a20696e76616c6964207369676e6174757265202776272076616c604482015261756560f01b6064820152608401610454565b80356001600160a01b038116811461087457600080fd5b60006020828403121561188b578081fd5b610b4282611863565b600080604083850312156118a6578081fd5b6118af83611863565b91506118bd60208401611863565b90509250929050565b6000806000606084860312156118da578081fd5b6118e384611863565b92506118f160208501611863565b9150604084013590509250925092565b600080600080600080600060e0888a03121561191b578283fd5b61192488611863565b965061193260208901611863565b95506040880135945060608801359350608088013560ff81168114611955578384fd5b9699959850939692959460a0840135945060c09093013592915050565b60008060408385031215611984578182fd5b61198d83611863565b946020939093013593505050565b600080602083850312156119ad578182fd5b82356001600160401b03808211156119c3578384fd5b818501915085601f8301126119d6578384fd5b8135818111156119e4578485fd5b86602080830285010111156119f7578485fd5b60209290920196919550909350505050565b600060208284031215611a1a578081fd5b81358015158114610b42578182fd5b60208082528181018390526000908460408401835b86811015611a6a576001600160a01b03611a5784611863565b1682529183019190830190600101611a3e565b509695505050505050565b6000602080835283518082850152825b81811015611aa157858101830151858201604001528201611a85565b81811115611ab25783604083870101525b50601f01601f1916929092016040019392505050565b60208082526023908201527f416363657373436f6e74726f6c3a20557365722063616e6e6f74207472616e736040820152623332b960e91b606082015260800190565b6020808252818101527f4f776e61626c653a2063616c6c6572206973206e6f7420746865206f776e6572604082015260600190565b60208082526029908201527f416363657373436f6e74726f6c3a2057686974656c69737420616c726561647960408201526808191a5cd8589b195960ba1b606082015260800190565b6020808252602b908201527f416363657373436f6e74726f6c3a20436f6e747261637420697320756e70617560408201526a39b2b2103337b932bb32b960a91b606082015260800190565b6020808252603290820152600080516020611c99833981519152604082015271696e7420746f6b656e7320616e796d6f726560701b606082015260800190565b60008219821115611c2757611c27611c82565b500190565b600281046001821680611c4057607f821691505b60208210811415611c6157634e487b7160e01b600052602260045260246000fd5b50919050565b6000600019821415611c7b57611c7b611c82565b5060010190565b634e487b7160e01b600052601160045260246000fdfe416363657373436f6e74726f6c3a20436f6e74726163742063616e6e6f74206dddf252ad1be2c89b69c2b068fc378daa952ba7f163c4a11628f55a4df523b3efa26469706673582212202e66acde4c7cf009966703f3351e898b8ef9c45d8b0e5aec9c3d20db2185feff64736f6c63430008020033",
  "devdoc": {
    "kind": "dev",
    "methods": {
      "allowance(address,address)": {
        "details": "See {IERC20-allowance}."
      },
      "approve(address,uint256)": {
        "details": "See {IERC20-approve}. Requirements: - `spender` cannot be the zero address."
      },
      "balanceOf(address)": {
        "details": "See {IERC20-balanceOf}."
      },
      "decimals()": {
        "details": "Returns the number of decimals used to get its user representation. For example, if `decimals` equals `2`, a balance of `505` tokens should be displayed to a user as `5.05` (`505 / 10 ** 2`). Tokens usually opt for a value of 18, imitating the relationship between Ether and Wei. This is the value {ERC20} uses, unless this function is overridden; NOTE: This information is only used for _display_ purposes: it in no way affects any of the arithmetic of the contract, including {IERC20-balanceOf} and {IERC20-transfer}."
      },
      "decreaseAllowance(address,uint256)": {
        "details": "Atomically decreases the allowance granted to `spender` by the caller. This is an alternative to {approve} that can be used as a mitigation for problems described in {IERC20-approve}. Emits an {Approval} event indicating the updated allowance. Requirements: - `spender` cannot be the zero address. - `spender` must have allowance for the caller of at least `subtractedValue`."
      },
      "increaseAllowance(address,uint256)": {
        "details": "Atomically increases the allowance granted to `spender` by the caller. This is an alternative to {approve} that can be used as a mitigation for problems described in {IERC20-approve}. Emits an {Approval} event indicating the updated allowance. Requirements: - `spender` cannot be the zero address."
      },
      "name()": {
        "details": "Returns the name of the token."
      },
      "owner()": {
        "details": "Returns the address of the current owner."
      },
      "renounceOwnership()": {
        "details": "Leaves the contract without owner. It will not be possible to call `onlyOwner` functions anymore. Can only be called by the current owner. NOTE: Renouncing ownership will leave the contract without an owner, thereby removing any functionality that is only available to the owner."
      },
      "symbol()": {
        "details": "Returns the symbol of the token, usually a shorter version of the name."
      },
      "totalSupply()": {
        "details": "See {IERC20-totalSupply}."
      },
      "transferOwnership(address)": {
        "details": "Transfers ownership of the contract to a new account (`newOwner`). Can only be called by the current owner."
      }
    },
    "version": 1
  },
  "userdoc": {
    "kind": "user",
    "methods": {},
    "version": 1
  },
  "storageLayout": {
    "storage": [
      {
        "astId": 119,
        "contract": "contracts/coordinape-protocol/contracts/ApeProtocol/token/ApeToken.sol:ApeToken",
        "label": "_balances",
        "offset": 0,
        "slot": "0",
        "type": "t_mapping(t_address,t_uint256)"
      },
      {
        "astId": 125,
        "contract": "contracts/coordinape-protocol/contracts/ApeProtocol/token/ApeToken.sol:ApeToken",
        "label": "_allowances",
        "offset": 0,
        "slot": "1",
        "type": "t_mapping(t_address,t_mapping(t_address,t_uint256))"
      },
      {
        "astId": 127,
        "contract": "contracts/coordinape-protocol/contracts/ApeProtocol/token/ApeToken.sol:ApeToken",
        "label": "_totalSupply",
        "offset": 0,
        "slot": "2",
        "type": "t_uint256"
      },
      {
        "astId": 129,
        "contract": "contracts/coordinape-protocol/contracts/ApeProtocol/token/ApeToken.sol:ApeToken",
        "label": "_name",
        "offset": 0,
        "slot": "3",
        "type": "t_string_storage"
      },
      {
        "astId": 131,
        "contract": "contracts/coordinape-protocol/contracts/ApeProtocol/token/ApeToken.sol:ApeToken",
        "label": "_symbol",
        "offset": 0,
        "slot": "4",
        "type": "t_string_storage"
      },
      {
        "astId": 7,
        "contract": "contracts/coordinape-protocol/contracts/ApeProtocol/token/ApeToken.sol:ApeToken",
        "label": "_owner",
        "offset": 0,
        "slot": "5",
        "type": "t_address"
      },
      {
        "astId": 5861,
        "contract": "contracts/coordinape-protocol/contracts/ApeProtocol/token/ApeToken.sol:ApeToken",
        "label": "minters",
        "offset": 0,
        "slot": "6",
        "type": "t_mapping(t_address,t_bool)"
      },
      {
        "astId": 5865,
        "contract": "contracts/coordinape-protocol/contracts/ApeProtocol/token/ApeToken.sol:ApeToken",
        "label": "whitelistedAddresses",
        "offset": 0,
        "slot": "7",
        "type": "t_mapping(t_address,t_bool)"
      },
      {
        "astId": 5867,
        "contract": "contracts/coordinape-protocol/contracts/ApeProtocol/token/ApeToken.sol:ApeToken",
        "label": "paused",
        "offset": 0,
        "slot": "8",
        "type": "t_bool"
      },
      {
        "astId": 5869,
        "contract": "contracts/coordinape-protocol/contracts/ApeProtocol/token/ApeToken.sol:ApeToken",
        "label": "foreverUnpaused",
        "offset": 1,
        "slot": "8",
        "type": "t_bool"
      },
      {
        "astId": 5871,
        "contract": "contracts/coordinape-protocol/contracts/ApeProtocol/token/ApeToken.sol:ApeToken",
        "label": "mintingDisabled",
        "offset": 2,
        "slot": "8",
        "type": "t_bool"
      },
      {
        "astId": 5873,
        "contract": "contracts/coordinape-protocol/contracts/ApeProtocol/token/ApeToken.sol:ApeToken",
        "label": "whitelistDisabled",
        "offset": 3,
        "slot": "8",
        "type": "t_bool"
      },
      {
        "astId": 5644,
        "contract": "contracts/coordinape-protocol/contracts/ApeProtocol/token/ApeToken.sol:ApeToken",
        "label": "DOMAIN_SEPARATOR",
        "offset": 0,
        "slot": "9",
        "type": "t_bytes32"
      },
      {
        "astId": 5648,
        "contract": "contracts/coordinape-protocol/contracts/ApeProtocol/token/ApeToken.sol:ApeToken",
        "label": "nonces",
        "offset": 0,
        "slot": "10",
        "type": "t_mapping(t_address,t_uint256)"
      }
    ],
    "types": {
      "t_address": {
        "encoding": "inplace",
        "label": "address",
        "numberOfBytes": "20"
      },
      "t_bool": {
        "encoding": "inplace",
        "label": "bool",
        "numberOfBytes": "1"
      },
      "t_bytes32": {
        "encoding": "inplace",
        "label": "bytes32",
        "numberOfBytes": "32"
      },
      "t_mapping(t_address,t_bool)": {
        "encoding": "mapping",
        "key": "t_address",
        "label": "mapping(address => bool)",
        "numberOfBytes": "32",
        "value": "t_bool"
      },
      "t_mapping(t_address,t_mapping(t_address,t_uint256))": {
        "encoding": "mapping",
        "key": "t_address",
        "label": "mapping(address => mapping(address => uint256))",
        "numberOfBytes": "32",
        "value": "t_mapping(t_address,t_uint256)"
      },
      "t_mapping(t_address,t_uint256)": {
        "encoding": "mapping",
        "key": "t_address",
        "label": "mapping(address => uint256)",
        "numberOfBytes": "32",
        "value": "t_uint256"
      },
      "t_string_storage": {
        "encoding": "bytes",
        "label": "string",
        "numberOfBytes": "32"
      },
      "t_uint256": {
        "encoding": "inplace",
        "label": "uint256",
        "numberOfBytes": "32"
      }
    }
  }
}