{
  "address": "0x978A2941BA6CA861DFEE872c75e9FA5C51030d63",
  "abi": [
    {
      "inputs": [
        {
          "internalType": "address",
          "name": "_reg",
          "type": "address"
        },
        {
          "internalType": "address",
          "name": "_apeReg",
          "type": "address"
        }
      ],
      "stateMutability": "nonpayable",
      "type": "constructor"
    },
    {
      "anonymous": false,
      "inputs": [
        {
          "indexed": false,
          "internalType": "address",
          "name": "vault",
          "type": "address"
        }
      ],
      "name": "VaultCreated",
      "type": "event"
    },
    {
      "inputs": [],
      "name": "apeRegistry",
      "outputs": [
        {
          "internalType": "address",
          "name": "",
          "type": "address"
        }
      ],
      "stateMutability": "view",
      "type": "function"
    },
    {
      "inputs": [
        {
          "internalType": "address",
          "name": "_token",
          "type": "address"
        },
        {
          "internalType": "address",
          "name": "_simpleToken",
          "type": "address"
        }
      ],
      "name": "createApeVault",
      "outputs": [],
      "stateMutability": "nonpayable",
      "type": "function"
    },
    {
      "inputs": [
        {
          "internalType": "address",
          "name": "",
          "type": "address"
        }
      ],
      "name": "vaultRegistry",
      "outputs": [
        {
          "internalType": "bool",
          "name": "",
          "type": "bool"
        }
      ],
      "stateMutability": "view",
      "type": "function"
    },
    {
      "inputs": [],
      "name": "yearnRegistry",
      "outputs": [
        {
          "internalType": "address",
          "name": "",
          "type": "address"
        }
      ],
      "stateMutability": "view",
      "type": "function"
    }
  ],
  "transactionHash": "0x7aab9598d7061662d88a4bd594624ad39f5745a1eb13816976735ed71a8df359",
  "args": [
    "0xE15461B18EE31b7379019Dc523231C57d1Cbc18c",
    "0xB6f8ed8dB8d6AC13f9d34dC0353Bc86c445c36EC"
  ],
  "solcInputHash": "9e6e1217bf4d4d1936e45638d60026ce",
  "bytecode": "0x608060405234801561001057600080fd5b50604051613ecb380380613ecb83398101604081905261002f9161007f565b600280546001600160a01b039283166001600160a01b031991821617909155600180549390921692169190911790556100b1565b80516001600160a01b038116811461007a57600080fd5b919050565b60008060408385031215610091578182fd5b61009a83610063565b91506100a860208401610063565b90509250929050565b613e0b806100c06000396000f3fe608060405234801561001057600080fd5b506004361061004c5760003560e01c80632635aec2146100515780635487beb614610066578063b9c4b4961461009e578063bb870317146100be575b600080fd5b61006461005f366004610249565b6100d1565b005b610089610074366004610228565b60006020819052908152604090205460ff1681565b60405190151581526020015b60405180910390f35b6002546100b1906001600160a01b031681565b604051610095919061027b565b6001546100b1906001600160a01b031681565b6002546001546040516000926001600160a01b0390811692869291169085906100f9906101ff565b6001600160a01b039485168152928416602084015290831660408301529091166060820152608001604051809103906000f08015801561013d573d6000803e3d6000fd5b5060405163f2fde38b60e01b81529091506001600160a01b0382169063f2fde38b9061016d90339060040161027b565b600060405180830381600087803b15801561018757600080fd5b505af115801561019b573d6000803e3d6000fd5b5050506001600160a01b03821660009081526020819052604090819020805460ff19166001179055517f2e49a5810fda2439a23771848b4acec786b0a64d4de3d124ac57fc8739c3887591506101f290839061027b565b60405180910390a1505050565b613b468061029083390190565b80356001600160a01b038116811461022357600080fd5b919050565b600060208284031215610239578081fd5b6102428261020c565b9392505050565b6000806040838503121561025b578081fd5b6102648361020c565b91506102726020840161020c565b90509250929050565b6001600160a01b039190911681526020019056fe60806040523480156200001157600080fd5b5060405162003b4638038062003b468339810160408190526200003491620001f9565b600080546001600160a01b038086166001600160a01b031992831617909255600280549285169290911691909117905562000076620000703390565b62000166565b600780546001600160a01b0319166001600160a01b03868116919091179091558316156200013c57604051630e177dc760e41b81526001600160a01b03848116600483015283169063e177dc709060240160206040518083038186803b158015620000e057600080fd5b505afa158015620000f5573d6000803e3d6000fd5b505050506040513d601f19601f820116820180604052508101906200011b9190620001d5565b600880546001600160a01b0319166001600160a01b03929092169190911790555b600480546001600160a01b0319166001600160a01b03929092169190911790555062000255915050565b600380546001600160a01b038381166001600160a01b0319831681179093556040519116919082907f8be0079c531659141344cd1fd0a4f28419497f9722a3daafe3b4186f6b6457e090600090a35050565b80516001600160a01b0381168114620001d057600080fd5b919050565b600060208284031215620001e7578081fd5b620001f282620001b8565b9392505050565b600080600080608085870312156200020f578283fd5b6200021a85620001b8565b93506200022a60208601620001b8565b92506200023a60408601620001b8565b91506200024a60608601620001b8565b905092959194509250565b6138e180620002656000396000f3fe608060405234801561001057600080fd5b506004361061013d5760003560e01c80628bd5691461014257806301e1d11414610157578063063effeb146101725780631963e7f8146101875780632a64e6351461019a57806330e5065e146101ba57806331be3a60146101cd578063335df652146101e057806344552b5f146101f357806366d16cc3146101fb578063715018a6146102035780637b1039991461020b5780638c3268761461021e5780638da5cb5b1461022757806395a078e81461022f578063a91ee0dc14610262578063b9c4b49614610275578063be99970514610288578063c70245c21461029b578063e95b2de8146102ae578063eac9b92c146102b6578063f030d912146102c9578063f2fde38b146102dc578063f5c16af3146102ef578063fbfa77cf146102f7578063fc0c546a1461030a575b600080fd5b61015561015036600461342f565b61031d565b005b61015f61043e565b6040519081526020015b60405180910390f35b61017a610512565b60405161016991906135dd565b6101556101953660046134d5565b6107d9565b6004546101ad906001600160a01b031681565b604051610169919061353e565b61015f6101c83660046133bf565b610a81565b6101556101db3660046133f7565b610ca8565b6101556101ee3660046134a5565b610f5a565b610155610f74565b61015f61102f565b610155611094565b6002546101ad906001600160a01b031681565b61015f60065481565b6101ad6110cf565b61025261023d3660046133bf565b60056020526000908152604090205460ff1681565b6040519015158152602001610169565b6101556102703660046133bf565b6110de565b6007546101ad906001600160a01b031681565b6101556102963660046134a5565b611232565b6101556102a936600461345e565b6112ef565b6101ad611424565b6009546101ad906001600160a01b031681565b61015f6102d73660046134f9565b6114af565b6101556102ea3660046133bf565b611598565b61015f611635565b6008546101ad906001600160a01b031681565b6000546101ad906001600160a01b031681565b336103266110cf565b6001600160a01b0316146103555760405162461bcd60e51b815260040161034c90613674565b60405180910390fd5b600760009054906101000a90046001600160a01b03166001600160a01b031663bfe109286040518163ffffffff1660e01b815260040160206040518083038186803b1580156103a357600080fd5b505afa1580156103b7573d6000803e3d6000fd5b505050506040513d601f19601f820116820180604052508101906103db91906133db565b6001600160a01b0316633a5d5a3983836040518363ffffffff1660e01b815260040161040892919061362a565b600060405180830381600087803b15801561042257600080fd5b505af1158015610436573d6000803e3d6000fd5b505050505050565b600080610449610512565b905060005b815181101561050d576104f982828151811061047a57634e487b7160e01b600052603260045260246000fd5b60200260200101516001600160a01b03166301e1d1146040518163ffffffff1660e01b815260040160206040518083038186803b1580156104ba57600080fd5b505afa1580156104ce573d6000803e3d6000fd5b505050506040513d601f19601f820116820180604052508101906104f291906134bd565b8490611718565b92508061050581613857565b91505061044e565b505090565b6001546002546000805460405163f9c7bba560e01b8152606094936001600160a01b039081169263f9c7bba59261054f929091169060040161353e565b60206040518083038186803b15801561056757600080fd5b505afa15801561057b573d6000803e3d6000fd5b505050506040513d601f19601f8201168201806040525081019061059f91906134bd565b90508082141561060d5760018054806020026020016040519081016040528092919081815260200182805480156105ff57602002820191906000526020600020905b81546001600160a01b031681526001909101906020018083116105e1575b5050505050925050506107d6565b6000816001600160401b0381111561063557634e487b7160e01b600052604160045260246000fd5b60405190808252806020026020018201604052801561065e578160200160208202803683370190505b50905060005b838110156106f5576001818154811061068d57634e487b7160e01b600052603260045260246000fd5b9060005260206000200160009054906101000a90046001600160a01b03168282815181106106cb57634e487b7160e01b600052603260045260246000fd5b6001600160a01b0390921660209283029190910190910152806106ed81613857565b915050610664565b50825b828110156107d057600254600054604051633ddfe34f60e11b81526001600160a01b0392831692637bbfc69e926107369291169085906004016135c4565b60206040518083038186803b15801561074e57600080fd5b505afa158015610762573d6000803e3d6000fd5b505050506040513d601f19601f8201168201806040525081019061078691906133db565b8282815181106107a657634e487b7160e01b600052603260045260246000fd5b6001600160a01b0390921660209283029190910190910152806107c881613857565b9150506106f8565b50925050505b90565b336107e26110cf565b6001600160a01b0316146108085760405162461bcd60e51b815260040161034c90613674565b60006108138361172b565b90506006548111156108795760405162461bcd60e51b815260206004820152602960248201527f756e6465726c79696e6720616d6f756e7420686967686572207468616e207661604482015268756c742076616c756560b81b606482015260840161034c565b600754604080516303e21fa960e61b815290516000926001600160a01b03169163f887ea40916004808301926020929190829003018186803b1580156108be57600080fd5b505afa1580156108d2573d6000803e3d6000fd5b505050506040513d601f19601f820116820180604052508101906108f691906133db565b9050816006600082825461090a9190613814565b909155505060085460405163a9059cbb60e01b81526001600160a01b039091169063a9059cbb9061094190849088906004016135c4565b602060405180830381600087803b15801561095b57600080fd5b505af115801561096f573d6000803e3d6000fd5b505050506040513d601f19601f820116820180604052508101906109939190613413565b50806001600160a01b031663499ab9766109ab6110cf565b60085460408051637e062a3560e11b8152905130926001600160a01b03169163fc0c546a916004808301926020929190829003018186803b1580156109ef57600080fd5b505afa158015610a03573d6000803e3d6000fd5b505050506040513d601f19601f82011682018060405250810190610a2791906133db565b88886040518663ffffffff1660e01b8152600401610a4995949392919061356c565b600060405180830381600087803b158015610a6357600080fd5b505af1158015610a77573d6000803e3d6000fd5b5050505050505050565b600080610a8c610512565b905060005b8151811015610ca157610c8d6104f2838381518110610ac057634e487b7160e01b600052603260045260246000fd5b60200260200101516001600160a01b031663313ce5676040518163ffffffff1660e01b815260040160206040518083038186803b158015610b0057600080fd5b505afa158015610b14573d6000803e3d6000fd5b505050506040513d601f19601f82011682018060405250810190610b3891906134bd565b610b4390600a613727565b610c87858581518110610b6657634e487b7160e01b600052603260045260246000fd5b60200260200101516001600160a01b03166399530b066040518163ffffffff1660e01b815260040160206040518083038186803b158015610ba657600080fd5b505afa158015610bba573d6000803e3d6000fd5b505050506040513d601f19601f82011682018060405250810190610bde91906134bd565b868681518110610bfe57634e487b7160e01b600052603260045260246000fd5b60200260200101516001600160a01b03166370a082318a6040518263ffffffff1660e01b8152600401610c31919061353e565b60206040518083038186803b158015610c4957600080fd5b505afa158015610c5d573d6000803e3d6000fd5b505050506040513d601f19601f82011682018060405250810190610c8191906134bd565b90611843565b9061184f565b925080610c9981613857565b915050610a91565b5050919050565b33610cb16110cf565b6001600160a01b031614610cd75760405162461bcd60e51b815260040161034c90613674565b600060068190556008546040516370a0823160e01b81526001600160a01b03909116906370a0823190610d0e90309060040161353e565b60206040518083038186803b158015610d2657600080fd5b505afa158015610d3a573d6000803e3d6000fd5b505050506040513d601f19601f82011682018060405250810190610d5e91906134bd565b90506000600760009054906101000a90046001600160a01b03166001600160a01b031663f887ea406040518163ffffffff1660e01b815260040160206040518083038186803b158015610db057600080fd5b505afa158015610dc4573d6000803e3d6000fd5b505050506040513d601f19601f82011682018060405250810190610de891906133db565b60085460405163a9059cbb60e01b81529192506001600160a01b03169063a9059cbb90610e1b90849086906004016135c4565b602060405180830381600087803b158015610e3557600080fd5b505af1158015610e49573d6000803e3d6000fd5b505050506040513d601f19601f82011682018060405250810190610e6d9190613413565b50806001600160a01b031663499ab976610e856110cf565b60085460408051637e062a3560e11b8152905130926001600160a01b03169163fc0c546a916004808301926020929190829003018186803b158015610ec957600080fd5b505afa158015610edd573d6000803e3d6000fd5b505050506040513d601f19601f82011682018060405250810190610f0191906133db565b86886040518663ffffffff1660e01b8152600401610f2395949392919061356c565b600060405180830381600087803b158015610f3d57600080fd5b505af1158015610f51573d6000803e3d6000fd5b50505050505050565b600454610f71906001600160a01b0316338361185b565b50565b33610f7d6110cf565b6001600160a01b031614610fa35760405162461bcd60e51b815260040161034c90613674565b6008546040516370a0823160e01b815261102a916001600160a01b0316906370a0823190610fd590309060040161353e565b60206040518083038186803b158015610fed57600080fd5b505afa158015611001573d6000803e3d6000fd5b505050506040513d601f19601f8201168201806040525081019061102591906134bd565b61172b565b600655565b6008546040516370a0823160e01b81526000918291611066916001600160a01b0316906370a0823190610fd590309060040161353e565b9050600654811161107b5760009150506107d6565b6006546110889082613814565b9150506107d6565b5090565b3361109d6110cf565b6001600160a01b0316146110c35760405162461bcd60e51b815260040161034c90613674565b6110cd60006118b6565b565b6003546001600160a01b031690565b600260009054906101000a90046001600160a01b03166001600160a01b0316635aa6e6756040518163ffffffff1660e01b815260040160206040518083038186803b15801561112c57600080fd5b505afa158015611140573d6000803e3d6000fd5b505050506040513d601f19601f8201168201806040525081019061116491906133db565b6001600160a01b0316336001600160a01b03161461118157600080fd5b600280546001600160a01b0319166001600160a01b03838116919091179182905560408051635aa6e67560e01b815290519290911691635aa6e67591600480820192602092909190829003018186803b1580156111dd57600080fd5b505afa1580156111f1573d6000803e3d6000fd5b505050506040513d601f19601f8201168201806040525081019061121591906133db565b6001600160a01b0316336001600160a01b031614610f7157600080fd5b600760009054906101000a90046001600160a01b03166001600160a01b031663f887ea406040518163ffffffff1660e01b815260040160206040518083038186803b15801561128057600080fd5b505afa158015611294573d6000803e3d6000fd5b505050506040513d601f19601f820116820180604052508101906112b891906133db565b6001600160a01b0316336001600160a01b0316146112d557600080fd5b80600660008282546112e791906136a9565b909155505050565b336112f86110cf565b6001600160a01b03161461131e5760405162461bcd60e51b815260040161034c90613674565b600760009054906101000a90046001600160a01b03166001600160a01b031663bfe109286040518163ffffffff1660e01b815260040160206040518083038186803b15801561136c57600080fd5b505afa158015611380573d6000803e3d6000fd5b505050506040513d601f19601f820116820180604052508101906113a491906133db565b6040516372b9edeb60e11b8152600481018790526001600160a01b038681166024830152604482018690526064820185905260848201849052919091169063e573dbd69060a401600060405180830381600087803b15801561140557600080fd5b505af1158015611419573d6000803e3d6000fd5b505050505050505050565b60025460008054604051630e177dc760e41b815291926001600160a01b039081169263e177dc709261145a92169060040161353e565b60206040518083038186803b15801561147257600080fd5b505afa158015611486573d6000803e3d6000fd5b505050506040513d601f19601f820116820180604052508101906114aa91906133db565b905090565b600754604080516317fc212560e31b815290516000926001600160a01b03169163bfe10928916004808301926020929190829003018186803b1580156114f457600080fd5b505afa158015611508573d6000803e3d6000fd5b505050506040513d601f19601f8201168201806040525081019061152c91906133db565b6001600160a01b0316336001600160a01b03161461154957600080fd5b60ff82166115625761155b8333611908565b5081611592565b60ff8216600114156115785761155b8333611b53565b60ff82166002141561158e5761158e8333611e59565b5060005b92915050565b336115a16110cf565b6001600160a01b0316146115c75760405162461bcd60e51b815260040161034c90613674565b6001600160a01b03811661162c5760405162461bcd60e51b815260206004820152602660248201527f4f776e61626c653a206e6577206f776e657220697320746865207a65726f206160448201526564647265737360d01b606482015260840161034c565b610f71816118b6565b6000336116406110cf565b6001600160a01b0316146116665760405162461bcd60e51b815260040161034c90613674565b61166f306120e5565b600254600054604051630e177dc760e41b81529293506001600160a01b039182169263e177dc70926116a592169060040161353e565b60206040518083038186803b1580156116bd57600080fd5b505afa1580156116d1573d6000803e3d6000fd5b505050506040513d601f19601f820116820180604052508101906116f591906133db565b600880546001600160a01b0319166001600160a01b039290921691909117905590565b600061172482846136a9565b9392505050565b6008546040805163313ce56760e01b815290516000926001600160a01b03169163313ce567916004808301926020929190829003018186803b15801561177057600080fd5b505afa158015611784573d6000803e3d6000fd5b505050506040513d601f19601f820116820180604052508101906117a891906134bd565b6117b390600a613727565b60085460408051634ca9858360e11b8152905185926001600160a01b0316916399530b06916004808301926020929190829003018186803b1580156117f757600080fd5b505afa15801561180b573d6000803e3d6000fd5b505050506040513d601f19601f8201168201806040525081019061182f91906134bd565b61183991906137f5565b61159291906136c1565b600061172482846137f5565b600061172482846136c1565b6118b18363a9059cbb60e01b848460405160240161187a9291906135c4565b60408051601f198184030181529190526020810180516001600160e01b03166001600160e01b0319909316929092179091526120f3565b505050565b600380546001600160a01b038381166001600160a01b0319831681179093556040519116919082907f8be0079c531659141344cd1fd0a4f28419497f9722a3daafe3b4186f6b6457e090600090a35050565b60075460408051631674811760e31b815290516000926001600160a01b03169163b3a408b8916004808301926020929190829003018186803b15801561194d57600080fd5b505afa158015611961573d6000803e3d6000fd5b505050506040513d601f19601f8201168201806040525081019061198591906133db565b604051636a89e82d60e01b815260048101859052602481018590526001600160a01b039190911690636a89e82d90604401602060405180830381600087803b1580156119d057600080fd5b505af11580156119e4573d6000803e3d6000fd5b505050506040513d601f19601f82011682018060405250810190611a0891906134bd565b90506000612710611a1983866137f5565b611a2391906136c1565b611a2d90856136a9565b9050611a3761102f565b611a408261172b565b1115611a8e5760405162461bcd60e51b815260206004820181905260248201527f4e6f7420656e6f7567682070726f66697420746f20636f7665722065706f6368604482015260640161034c565b600854611aa5906001600160a01b0316848661185b565b600754604080516361d027b360e01b81529051611b4d926001600160a01b0316916361d027b3916004808301926020929190829003018186803b158015611aeb57600080fd5b505afa158015611aff573d6000803e3d6000fd5b505050506040513d601f19601f82011682018060405250810190611b2391906133db565b612710611b3085886137f5565b611b3a91906136c1565b6008546001600160a01b0316919061185b565b50505050565b6000611b5e8361172b565b90506000611b6a61102f565b90506000600760009054906101000a90046001600160a01b03166001600160a01b031663b3a408b86040518163ffffffff1660e01b815260040160206040518083038186803b158015611bbc57600080fd5b505afa158015611bd0573d6000803e3d6000fd5b505050506040513d601f19601f82011682018060405250810190611bf491906133db565b604051636a89e82d60e01b815260048101849052602481018590526001600160a01b039190911690636a89e82d90604401602060405180830381600087803b158015611c3f57600080fd5b505af1158015611c53573d6000803e3d6000fd5b505050506040513d601f19601f82011682018060405250810190611c7791906134bd565b90506000612710611c8883866137f5565b611c9291906136c1565b611c9c90856136a9565b905082811115611cc757611cb08382613814565b60066000828254611cc19190613814565b90915550505b60085460405163a9059cbb60e01b81526001600160a01b039091169063a9059cbb90611cf99088908a906004016135c4565b602060405180830381600087803b158015611d1357600080fd5b505af1158015611d27573d6000803e3d6000fd5b505050506040513d601f19601f82011682018060405250810190611d4b9190613413565b50600854600754604080516361d027b360e01b815290516001600160a01b039384169363a9059cbb9316916361d027b3916004808301926020929190829003018186803b158015611d9b57600080fd5b505afa158015611daf573d6000803e3d6000fd5b505050506040513d601f19601f82011682018060405250810190611dd391906133db565b612710611de0868b6137f5565b611dea91906136c1565b6040518363ffffffff1660e01b8152600401611e079291906135c4565b602060405180830381600087803b158015611e2157600080fd5b505af1158015611e35573d6000803e3d6000fd5b505050506040513d601f19601f82011682018060405250810190610f519190613413565b6000612710600760009054906101000a90046001600160a01b03166001600160a01b031663b3a408b86040518163ffffffff1660e01b815260040160206040518083038186803b158015611eac57600080fd5b505afa158015611ec0573d6000803e3d6000fd5b505050506040513d601f19601f82011682018060405250810190611ee491906133db565b6001600160a01b031663231051b46040518163ffffffff1660e01b815260040160206040518083038186803b158015611f1c57600080fd5b505afa158015611f30573d6000803e3d6000fd5b505050506040513d601f19601f82011682018060405250810190611f5491906134bd565b611f5e90856137f5565b611f6891906136c1565b6004805460405163a9059cbb60e01b81529293506001600160a01b03169163a9059cbb91611f9a9186918891016135c4565b602060405180830381600087803b158015611fb457600080fd5b505af1158015611fc8573d6000803e3d6000fd5b505050506040513d601f19601f82011682018060405250810190611fec9190613413565b5060048054600754604080516361d027b360e01b815290516001600160a01b039384169463a9059cbb94909316926361d027b392808201926020929091829003018186803b15801561203d57600080fd5b505afa158015612051573d6000803e3d6000fd5b505050506040513d601f19601f8201168201806040525081019061207591906133db565b836040518363ffffffff1660e01b81526004016120939291906135c4565b602060405180830381600087803b1580156120ad57600080fd5b505af11580156120c1573d6000803e3d6000fd5b505050506040513d601f19601f82011682018060405250810190611b4d9190613413565b6000611592826000196121c5565b6000612148826040518060400160405280602081526020017f5361666545524332303a206c6f772d6c6576656c2063616c6c206661696c6564815250856001600160a01b03166121d39092919063ffffffff16565b8051909150156118b157808060200190518101906121669190613413565b6118b15760405162461bcd60e51b815260206004820152602a60248201527f5361666545524332303a204552433230206f7065726174696f6e20646964206e6044820152691bdd081cdd58d8d9595960b21b606482015260840161034c565b6000611724838360006121ea565b60606121e28484600085612384565b949350505050565b6000806121f5611424565b90506000816001600160a01b031663ecf708586040518163ffffffff1660e01b815260040160206040518083038186803b15801561223257600080fd5b505afa158015612246573d6000803e3d6000fd5b505050506040513d601f19601f8201168201806040525081019061226a91906134bd565b90506000826001600160a01b03166301e1d1146040518163ffffffff1660e01b815260040160206040518083038186803b1580156122a757600080fd5b505afa1580156122bb573d6000803e3d6000fd5b505050506040513d601f19601f820116820180604052508101906122df91906134bd565b90508082116122f45760009350505050611724565b8560001983108015612307575060001981105b1561232857600061231884846124ac565b905080821115612326578091505b505b801561237957600061233d89308460006124b8565b90508061235257600095505050505050611724565b61235f308a836000612d88565b95508661236c82886124ac565b111561237757600080fd5b505b505050509392505050565b6060824710156123e55760405162461bcd60e51b815260206004820152602660248201527f416464726573733a20696e73756666696369656e742062616c616e636520666f6044820152651c8818d85b1b60d21b606482015260840161034c565b843b6124335760405162461bcd60e51b815260206004820152601d60248201527f416464726573733a2063616c6c20746f206e6f6e2d636f6e7472616374000000604482015260640161034c565b600080866001600160a01b0316858760405161244f9190613522565b60006040518083038185875af1925050503d806000811461248c576040519150601f19603f3d011682016040523d82523d6000602084013e612491565b606091505b50915091506124a18282866131aa565b979650505050505050565b60006117248284613814565b6000806124c3611424565b905060006124cf610512565b90506124da816131e3565b60005b8151811015612b12578415801561252c5750826001600160a01b031682828151811061251957634e487b7160e01b600052603260045260246000fd5b60200260200101516001600160a01b0316145b1561253657612b00565b600082828151811061255857634e487b7160e01b600052603260045260246000fd5b60200260200101516001600160a01b03166370a082318a6040518263ffffffff1660e01b815260040161258b919061353e565b60206040518083038186803b1580156125a357600080fd5b505afa1580156125b7573d6000803e3d6000fd5b505050506040513d601f19601f820116820180604052508101906125db91906134bd565b90506001600160a01b038916301461269e5761269b8184848151811061261157634e487b7160e01b600052603260045260246000fd5b60200260200101516001600160a01b031663dd62ed3e8c306040518363ffffffff1660e01b8152600401612646929190613552565b60206040518083038186803b15801561265e57600080fd5b505afa158015612672573d6000803e3d6000fd5b505050506040513d601f19601f8201168201806040525081019061269691906134bd565b613205565b90505b612702818484815181106126c257634e487b7160e01b600052603260045260246000fd5b60200260200101516001600160a01b03166375de29026040518163ffffffff1660e01b815260040160206040518083038186803b15801561265e57600080fd5b90508015612afe576001600160a01b03891630146127c55782828151811061273a57634e487b7160e01b600052603260045260246000fd5b60200260200101516001600160a01b03166323b872dd8a30846040518463ffffffff1660e01b8152600401612771939291906135a0565b602060405180830381600087803b15801561278b57600080fd5b505af115801561279f573d6000803e3d6000fd5b505050506040513d601f19601f820116820180604052508101906127c39190613413565b505b6000198714612a4a57600061291b8484815181106127f357634e487b7160e01b600052603260045260246000fd5b60200260200101516001600160a01b03166399530b066040518163ffffffff1660e01b815260040160206040518083038186803b15801561283357600080fd5b505afa158015612847573d6000803e3d6000fd5b505050506040513d601f19601f8201168201806040525081019061286b91906134bd565b610c8786868151811061288e57634e487b7160e01b600052603260045260246000fd5b60200260200101516001600160a01b031663313ce5676040518163ffffffff1660e01b815260040160206040518083038186803b1580156128ce57600080fd5b505afa1580156128e2573d6000803e3d6000fd5b505050506040513d601f19601f8201168201806040525081019061290691906134bd565b61291190600a613727565b610c818c8b6124ac565b905060008111801561292c57508181105b156129e9576129e284848151811061295457634e487b7160e01b600052603260045260246000fd5b60200260200101516001600160a01b0316632e1a7d4d836040518263ffffffff1660e01b815260040161298991815260200190565b602060405180830381600087803b1580156129a357600080fd5b505af11580156129b7573d6000803e3d6000fd5b505050506040513d601f19601f820116820180604052508101906129db91906134bd565b8790611718565b9550612a44565b612a41848481518110612a0c57634e487b7160e01b600052603260045260246000fd5b60200260200101516001600160a01b0316632e1a7d4d846040518263ffffffff1660e01b815260040161298991815260200190565b95505b50612af1565b612aee838381518110612a6d57634e487b7160e01b600052603260045260246000fd5b60200260200101516001600160a01b0316633ccfd60b6040518163ffffffff1660e01b8152600401602060405180830381600087803b158015612aaf57600080fd5b505af1158015612ac3573d6000803e3d6000fd5b505050506040513d601f19601f82011682018060405250810190612ae791906134bd565b8690611718565b94505b848711612afe5750612b12565b505b80612b0a81613857565b9150506124dd565b508483118015612c195750612c0d826001600160a01b031663313ce5676040518163ffffffff1660e01b815260040160206040518083038186803b158015612b5957600080fd5b505afa158015612b6d573d6000803e3d6000fd5b505050506040513d601f19601f82011682018060405250810190612b9191906134bd565b612b9c90600a613727565b836001600160a01b03166399530b066040518163ffffffff1660e01b815260040160206040518083038186803b158015612bd557600080fd5b505afa158015612be9573d6000803e3d6000fd5b505050506040513d601f19601f82011682018060405250810190610c8791906134bd565b612c1784876124ac565b115b15612d5757612c2883866124ac565b600054604051636eb1769f60e11b81526001600160a01b039091169063dd62ed3e90612c5a9030908790600401613552565b60206040518083038186803b158015612c7257600080fd5b505afa158015612c86573d6000803e3d6000fd5b505050506040513d601f19601f82011682018060405250810190612caa91906134bd565b1015612cc957600054612cc9906001600160a01b03168360001961321b565b6001600160a01b038216636e553f65612ce285886124ac565b896040518363ffffffff1660e01b8152600401612d0092919061362a565b602060405180830381600087803b158015612d1a57600080fd5b505af1158015612d2e573d6000803e3d6000fd5b505050506040513d601f19601f82011682018060405250810190612d5291906134bd565b508492505b6001600160a01b0386163014612d7e57600054612d7e906001600160a01b0316878561185b565b5050949350505050565b600080612d93611424565b90508215612e5b576000198414612dc157600054612dbc906001600160a01b031687308761332d565b612e5b565b6000546040516370a0823160e01b8152612e5b91889130916001600160a01b0316906370a0823190612df790859060040161353e565b60206040518083038186803b158015612e0f57600080fd5b505afa158015612e23573d6000803e3d6000fd5b505050506040513d601f19601f82011682018060405250810190612e4791906134bd565b6000546001600160a01b031692919061332d565b600054604051636eb1769f60e11b815285916001600160a01b03169063dd62ed3e90612e8d9030908690600401613552565b60206040518083038186803b158015612ea557600080fd5b505afa158015612eb9573d6000803e3d6000fd5b505050506040513d601f19601f82011682018060405250810190612edd91906134bd565b1015612f175760008054612efe916001600160a01b0390911690839061321b565b600054612f17906001600160a01b03168260001961321b565b600080546040516370a0823160e01b81526001600160a01b03909116906370a0823190612f4890309060040161353e565b60206040518083038186803b158015612f6057600080fd5b505afa158015612f74573d6000803e3d6000fd5b505050506040513d601f19601f82011682018060405250810190612f9891906134bd565b90506001600160a01b038616301461303057604051636e553f6560e01b81526001600160a01b03831690636e553f6590612fd89088908a9060040161362a565b602060405180830381600087803b158015612ff257600080fd5b505af1158015613006573d6000803e3d6000fd5b505050506040513d601f19601f8201168201806040525081019061302a91906134bd565b506130db565b60001985146130665760405163b6b55f2560e01b8152600481018690526001600160a01b0383169063b6b55f2590602401612fd8565b816001600160a01b031663d0e30db06040518163ffffffff1660e01b8152600401602060405180830381600087803b1580156130a157600080fd5b505af11580156130b5573d6000803e3d6000fd5b505050506040513d601f19601f820116820180604052508101906130d991906134bd565b505b600080546040516370a0823160e01b81526001600160a01b03909116906370a082319061310c90309060040161353e565b60206040518083038186803b15801561312457600080fd5b505afa158015613138573d6000803e3d6000fd5b505050506040513d601f19601f8201168201806040525081019061315c91906134bd565b905061316882826124ac565b93506001600160a01b03881630148015906131835750600081115b1561319f5760005461319f906001600160a01b0316898361185b565b505050949350505050565b606083156131b9575081611724565b8251156131c95782518084602001fd5b8160405162461bcd60e51b815260040161034c9190613641565b60015481511115610f7157805161320190600190602084019061334e565b5050565b60008183106132145781611724565b5090919050565b8015806132a35750604051636eb1769f60e11b81526001600160a01b0384169063dd62ed3e906132519030908690600401613552565b60206040518083038186803b15801561326957600080fd5b505afa15801561327d573d6000803e3d6000fd5b505050506040513d601f19601f820116820180604052508101906132a191906134bd565b155b61330e5760405162461bcd60e51b815260206004820152603660248201527f5361666545524332303a20617070726f76652066726f6d206e6f6e2d7a65726f60448201527520746f206e6f6e2d7a65726f20616c6c6f77616e636560501b606482015260840161034c565b6118b18363095ea7b360e01b848460405160240161187a9291906135c4565b611b4d846323b872dd60e01b85858560405160240161187a939291906135a0565b8280548282559060005260206000209081019282156133a3579160200282015b828111156133a357825182546001600160a01b0319166001600160a01b0390911617825560209092019160019091019061336e565b506110909291505b8082111561109057600081556001016133ab565b6000602082840312156133d0578081fd5b813561172481613888565b6000602082840312156133ec578081fd5b815161172481613888565b600060208284031215613408578081fd5b81356117248161389d565b600060208284031215613424578081fd5b81516117248161389d565b60008060408385031215613441578081fd5b82359150602083013561345381613888565b809150509250929050565b600080600080600060a08688031215613475578081fd5b85359450602086013561348781613888565b94979496505050506040830135926060810135926080909101359150565b6000602082840312156134b6578081fd5b5035919050565b6000602082840312156134ce578081fd5b5051919050565b600080604083850312156134e7578182fd5b8235915060208301356134538161389d565b6000806040838503121561350b578182fd5b82359150602083013560ff81168114613453578182fd5b6000825161353481846020870161382b565b9190910192915050565b6001600160a01b0391909116815260200190565b6001600160a01b0392831681529116602082015260400190565b6001600160a01b03958616815293851660208501529190931660408301526060820192909252901515608082015260a00190565b6001600160a01b039384168152919092166020820152604081019190915260600190565b6001600160a01b03929092168252602082015260400190565b6020808252825182820181905260009190848201906040850190845b8181101561361e5783516001600160a01b0316835292840192918401916001016135f9565b50909695505050505050565b9182526001600160a01b0316602082015260400190565b600060208252825180602084015261366081604085016020870161382b565b601f01601f19169190910160400192915050565b6020808252818101527f4f776e61626c653a2063616c6c6572206973206e6f7420746865206f776e6572604082015260600190565b600082198211156136bc576136bc613872565b500190565b6000826136dc57634e487b7160e01b81526012600452602481fd5b500490565b80825b60018086116136f3575061371e565b81870482111561370557613705613872565b8086161561371257918102915b9490941c9380026136e4565b94509492505050565b6000611724600019848460008261374057506001611724565b8161374d57506000611724565b8160018114613763576002811461376d5761379a565b6001915050611724565b60ff84111561377e5761377e613872565b6001841b91508482111561379457613794613872565b50611724565b5060208310610133831016604e8410600b84101617156137cd575081810a838111156137c8576137c8613872565b611724565b6137da84848460016136e1565b8086048211156137ec576137ec613872565b02949350505050565b600081600019048311821515161561380f5761380f613872565b500290565b60008282101561382657613826613872565b500390565b60005b8381101561384657818101518382015260200161382e565b83811115611b4d5750506000910152565b600060001982141561386b5761386b613872565b5060010190565b634e487b7160e01b600052601160045260246000fd5b6001600160a01b0381168114610f7157600080fd5b8015158114610f7157600080fdfea26469706673582212205896b8c49a9da4c7fd3a3acdbd2650e927c3b6935ee7581389c17d7c4ed9f9c364736f6c63430008020033a2646970667358221220df6f62eb5ff9c5402dcc7806609aa8ebfdfcfdb30b3e886636e29ab78fa6c8cb64736f6c63430008020033",
  "devdoc": {
    "kind": "dev",
    "methods": {},
    "version": 1
  },
  "userdoc": {
    "kind": "user",
    "methods": {},
    "version": 1
  },
  "storageLayout": {
    "storage": [
      {
        "astId": 7201,
        "contract": "contracts/coordinape-protocol/contracts/ApeProtocol/wrapper/ApeVaultFactory.sol:ApeVaultFactory",
        "label": "vaultRegistry",
        "offset": 0,
        "slot": "0",
        "type": "t_mapping(t_address,t_bool)"
      },
      {
        "astId": 7203,
        "contract": "contracts/coordinape-protocol/contracts/ApeProtocol/wrapper/ApeVaultFactory.sol:ApeVaultFactory",
        "label": "yearnRegistry",
        "offset": 0,
        "slot": "1",
        "type": "t_address"
      },
      {
        "astId": 7205,
        "contract": "contracts/coordinape-protocol/contracts/ApeProtocol/wrapper/ApeVaultFactory.sol:ApeVaultFactory",
        "label": "apeRegistry",
        "offset": 0,
        "slot": "2",
        "type": "t_address"
      }
    ],
    "types": {
      "t_address": {
        "encoding": "inplace",
        "label": "address",
        "numberOfBytes": "20"
      },
      "t_bool": {
        "encoding": "inplace",
        "label": "bool",
        "numberOfBytes": "1"
      },
      "t_mapping(t_address,t_bool)": {
        "encoding": "mapping",
        "key": "t_address",
        "label": "mapping(address => bool)",
        "numberOfBytes": "32",
        "value": "t_bool"
      }
    }
  }
}