{
  "address": "0x91922e6c71effbFe0BB93Fd927BE47fB9666f604",
  "abi": [
    {
      "anonymous": false,
      "inputs": [
        {
          "indexed": false,
          "internalType": "bytes32",
          "name": "id",
          "type": "bytes32"
        }
      ],
      "name": "CallCancelled",
      "type": "event"
    },
    {
      "anonymous": false,
      "inputs": [
        {
          "indexed": true,
          "internalType": "bytes32",
          "name": "id",
          "type": "bytes32"
        },
        {
          "indexed": false,
          "internalType": "address",
          "name": "target",
          "type": "address"
        },
        {
          "indexed": false,
          "internalType": "bytes",
          "name": "data",
          "type": "bytes"
        }
      ],
      "name": "CallExecuted",
      "type": "event"
    },
    {
      "anonymous": false,
      "inputs": [
        {
          "indexed": true,
          "internalType": "bytes32",
          "name": "id",
          "type": "bytes32"
        },
        {
          "indexed": false,
          "internalType": "address",
          "name": "target",
          "type": "address"
        },
        {
          "indexed": false,
          "internalType": "bytes",
          "name": "data",
          "type": "bytes"
        },
        {
          "indexed": false,
          "internalType": "bytes32",
          "name": "predecessor",
          "type": "bytes32"
        },
        {
          "indexed": false,
          "internalType": "uint256",
          "name": "delay",
          "type": "uint256"
        }
      ],
      "name": "CallScheduled",
      "type": "event"
    },
    {
      "anonymous": false,
      "inputs": [
        {
          "indexed": true,
          "internalType": "address",
          "name": "previousOwner",
          "type": "address"
        },
        {
          "indexed": true,
          "internalType": "address",
          "name": "newOwner",
          "type": "address"
        }
      ],
      "name": "OwnershipTransferred",
      "type": "event"
    },
    {
      "inputs": [],
      "name": "activateFee",
      "outputs": [],
      "stateMutability": "nonpayable",
      "type": "function"
    },
    {
      "inputs": [
        {
          "internalType": "bytes32",
          "name": "_id",
          "type": "bytes32"
        }
      ],
      "name": "cancel",
      "outputs": [],
      "stateMutability": "nonpayable",
      "type": "function"
    },
    {
      "inputs": [
        {
          "internalType": "uint256",
          "name": "_min",
          "type": "uint256"
        }
      ],
      "name": "changeMinDelay",
      "outputs": [],
      "stateMutability": "nonpayable",
      "type": "function"
    },
    {
      "inputs": [
        {
          "internalType": "address",
          "name": "_target",
          "type": "address"
        },
        {
          "internalType": "bytes",
          "name": "_data",
          "type": "bytes"
        },
        {
          "internalType": "bytes32",
          "name": "_predecessor",
          "type": "bytes32"
        },
        {
          "internalType": "bytes32",
          "name": "_salt",
          "type": "bytes32"
        },
        {
          "internalType": "uint256",
          "name": "_delay",
          "type": "uint256"
        }
      ],
      "name": "execute",
      "outputs": [],
      "stateMutability": "nonpayable",
      "type": "function"
    },
    {
      "inputs": [
        {
          "internalType": "uint256",
          "name": "_yield",
          "type": "uint256"
        },
        {
          "internalType": "uint256",
          "name": "_tapTotal",
          "type": "uint256"
        }
      ],
      "name": "getVariableFee",
      "outputs": [
        {
          "internalType": "uint256",
          "name": "variableFee",
          "type": "uint256"
        }
      ],
      "stateMutability": "nonpayable",
      "type": "function"
    },
    {
      "inputs": [
        {
          "internalType": "bytes32",
          "name": "_id",
          "type": "bytes32"
        }
      ],
      "name": "isDoneCall",
      "outputs": [
        {
          "internalType": "bool",
          "name": "",
          "type": "bool"
        }
      ],
      "stateMutability": "view",
      "type": "function"
    },
    {
      "inputs": [
        {
          "internalType": "bytes32",
          "name": "_id",
          "type": "bytes32"
        }
      ],
      "name": "isPendingCall",
      "outputs": [
        {
          "internalType": "bool",
          "name": "",
          "type": "bool"
        }
      ],
      "stateMutability": "view",
      "type": "function"
    },
    {
      "inputs": [
        {
          "internalType": "bytes32",
          "name": "_id",
          "type": "bytes32"
        }
      ],
      "name": "isReadyCall",
      "outputs": [
        {
          "internalType": "bool",
          "name": "",
          "type": "bool"
        }
      ],
      "stateMutability": "view",
      "type": "function"
    },
    {
      "inputs": [],
      "name": "minDelay",
      "outputs": [
        {
          "internalType": "uint256",
          "name": "",
          "type": "uint256"
        }
      ],
      "stateMutability": "view",
      "type": "function"
    },
    {
      "inputs": [],
      "name": "on",
      "outputs": [
        {
          "internalType": "bool",
          "name": "",
          "type": "bool"
        }
      ],
      "stateMutability": "view",
      "type": "function"
    },
    {
      "inputs": [],
      "name": "owner",
      "outputs": [
        {
          "internalType": "address",
          "name": "",
          "type": "address"
        }
      ],
      "stateMutability": "view",
      "type": "function"
    },
    {
      "inputs": [],
      "name": "renounceOwnership",
      "outputs": [],
      "stateMutability": "nonpayable",
      "type": "function"
    },
    {
      "inputs": [
        {
          "internalType": "address",
          "name": "_target",
          "type": "address"
        },
        {
          "internalType": "bytes",
          "name": "_data",
          "type": "bytes"
        },
        {
          "internalType": "bytes32",
          "name": "_predecessor",
          "type": "bytes32"
        },
        {
          "internalType": "bytes32",
          "name": "_salt",
          "type": "bytes32"
        },
        {
          "internalType": "uint256",
          "name": "_delay",
          "type": "uint256"
        }
      ],
      "name": "schedule",
      "outputs": [],
      "stateMutability": "nonpayable",
      "type": "function"
    },
    {
      "inputs": [],
      "name": "shutdownFee",
      "outputs": [],
      "stateMutability": "nonpayable",
      "type": "function"
    },
    {
      "inputs": [],
      "name": "staticFee",
      "outputs": [
        {
          "internalType": "uint256",
          "name": "",
          "type": "uint256"
        }
      ],
      "stateMutability": "view",
      "type": "function"
    },
    {
      "inputs": [
        {
          "internalType": "bytes32",
          "name": "",
          "type": "bytes32"
        }
      ],
      "name": "timestamps",
      "outputs": [
        {
          "internalType": "uint256",
          "name": "",
          "type": "uint256"
        }
      ],
      "stateMutability": "view",
      "type": "function"
    },
    {
      "inputs": [
        {
          "internalType": "address",
          "name": "newOwner",
          "type": "address"
        }
      ],
      "name": "transferOwnership",
      "outputs": [],
      "stateMutability": "nonpayable",
      "type": "function"
    }
  ],
  "transactionHash": "0x4c41564273768754902bd3f4fa1741c3ac51f72b677e7b7ffd0387afb90a10be",
  "args": [],
  "solcInputHash": "5c4c3df40c9a1c47594072bf6f28af44",
  "bytecode": "0x608060405234801561001057600080fd5b50600061001c33610024565b600255610074565b600080546001600160a01b038381166001600160a01b0319831681178455604051919092169283917f8be0079c531659141344cd1fd0a4f28419497f9722a3daafe3b4186f6b6457e09190a35050565b610cf9806100836000396000f3fe608060405234801561001057600080fd5b50600436106100db5760003560e01c80631333cdda146100e0578063231051b414610108578063274d5c2c1461011e5780632a9eda11146101285780632c5eaf211461013b5780634c84c5a11461014e57806367b7c034146101615780636a89e82d1461016e578063715018a6146101815780638da5cb5b146101895780639749b368146101a9578063abeb6997146101bc578063b5872958146101cf578063c4d252f5146101ef578063c63c4e9b14610202578063f2fde38b1461020b578063f672d81a1461021e575b600080fd5b6100f36100ee366004610b00565b610226565b60405190151581526020015b60405180910390f35b61011061023e565b6040519081526020016100ff565b61012661025a565b005b6100f3610136366004610b00565b610291565b610126610149366004610a6c565b6102a7565b6100f361015c366004610b00565b6103ff565b6003546100f39060ff1681565b61011061017c366004610b18565b610415565b610126610514565b61019161054f565b6040516001600160a01b0390911681526020016100ff565b6101266101b7366004610b00565b61055e565b6101266101ca366004610a6c565b610582565b6101106101dd366004610b00565b60016020526000908152604090205481565b6101266101fd366004610b00565b610707565b61011060025481565b610126610219366004610a4b565b6107d9565b610126610879565b6000818152600160205260409020544210155b919050565b60035460009060ff1661025357506000610257565b5060645b90565b3330146102825760405162461bcd60e51b815260040161027990610bda565b60405180910390fd5b6003805460ff19166001179055565b6000908152600160208190526040909120541490565b336102b061054f565b6001600160a01b0316146102d65760405162461bcd60e51b815260040161027990610c21565b60006102e587878787876108a4565b600081815260016020526040902054909150156103445760405162461bcd60e51b815260206004820181905260248201527f54696d654c6f636b3a2043616c6c20616c7265616479207363686564756c65646044820152606401610279565b6002548210156103955760405162461bcd60e51b815260206004820152601c60248201527b54696d654c6f636b3a20496e73756666696369656e742064656c617960201b6044820152606401610279565b6002546103a29042610c56565b60008281526001602052604090819020919091555181907f66dcc96f6c92c7919714879a908fc29b273e363ba3d409c0c6db86984ee3c480906103ee908a908a908a908a908990610ba1565b60405180910390a250505050505050565b6000908152600160208190526040909120541190565b60035460009060ff1661042a5750600061050e565b600082610439856103e8610c8e565b6104439190610c6e565b9050606461038482106104585780925061050b565b61032082106104735761046c816019610c56565b925061050b565b6102bc82106104875761046c816032610c56565b610258821061049b5761046c81604b610c56565b6101f482106104af5761046c816064610c56565b61019082106104c35761046c81607d610c56565b61012c82106104d75761046c816096610c56565b60c882106104ea5761046c8160af610c56565b606482106104fd5761046c8160c8610c56565b6105088160fa610c56565b92505b50505b92915050565b3361051d61054f565b6001600160a01b0316146105435760405162461bcd60e51b815260040161027990610c21565b61054d60006108e0565b565b6000546001600160a01b031690565b33301461057d5760405162461bcd60e51b815260040161027990610bda565b600255565b3361058b61054f565b6001600160a01b0316146105b15760405162461bcd60e51b815260040161027990610c21565b60006105c087878787876108a4565b90506105cb81610226565b6106215760405162461bcd60e51b815260206004820152602160248201527f54696d654c6f636b3a204e6f7420726561647920666f7220657865637574696f6044820152603760f91b6064820152608401610279565b61062a81610291565b156106745760405162461bcd60e51b815260206004820152601a602482015279151a5b59531bd8dace88105b1c9958591e48195e1958dd5d195960321b6044820152606401610279565b831580610685575061068584610291565b6106e15760405162461bcd60e51b815260206004820152602760248201527f54696d654c6f636b3a205072656465636573736f722063616c6c206e6f7420656044820152661e1958dd5d195960ca1b6064820152608401610279565b6106ed81888888610930565b600090815260016020819052604090912055505050505050565b3361071061054f565b6001600160a01b0316146107365760405162461bcd60e51b815260040161027990610c21565b61073f816103ff565b61078b5760405162461bcd60e51b815260206004820152601d60248201527f54696d654c6f636b3a2043616c6c206973206e6f742070656e64696e670000006044820152606401610279565b60008181526001602052604080822091909155517fab2af3494bc00bd4aa34e08bd246e5c402d3ee4856c19f5461ce47a6d57423e1906107ce9083815260200190565b60405180910390a150565b336107e261054f565b6001600160a01b0316146108085760405162461bcd60e51b815260040161027990610c21565b6001600160a01b03811661086d5760405162461bcd60e51b815260206004820152602660248201527f4f776e61626c653a206e6577206f776e657220697320746865207a65726f206160448201526564647265737360d01b6064820152608401610279565b610876816108e0565b50565b3330146108985760405162461bcd60e51b815260040161027990610bda565b6003805460ff19169055565b600085858585856040516020016108bf959493929190610ba1565b60405160208183030381529060405280519060200120905095945050505050565b600080546001600160a01b038381166001600160a01b0319831681178455604051919092169283917f8be0079c531659141344cd1fd0a4f28419497f9722a3daafe3b4186f6b6457e09190a35050565b6000836001600160a01b0316838360405161094c929190610b63565b6000604051808303816000865af19150503d8060008114610989576040519150601f19603f3d011682016040523d82523d6000602084013e61098e565b606091505b50509050806109f15760405162461bcd60e51b815260206004820152602960248201527f54696d656c6f636b3a20756e6465726c79696e67207472616e73616374696f6e604482015268081c995d995c9d195960ba1b6064820152608401610279565b847fc08872e260006100fd2e00a3ba4c617fdb250f802f99384d55c10097dc1d0487858585604051610a2593929190610b73565b60405180910390a25050505050565b80356001600160a01b038116811461023957600080fd5b600060208284031215610a5c578081fd5b610a6582610a34565b9392505050565b60008060008060008060a08789031215610a84578182fd5b610a8d87610a34565b955060208701356001600160401b0380821115610aa8578384fd5b818901915089601f830112610abb578384fd5b813581811115610ac9578485fd5b8a6020828501011115610ada578485fd5b979a60209290920199509697604081013597506060810135965060800135945092505050565b600060208284031215610b11578081fd5b5035919050565b60008060408385031215610b2a578182fd5b50508035926020909101359150565b60008284528282602086013780602084860101526020601f19601f85011685010190509392505050565b6000828483379101908152919050565b6001600160a01b0384168152604060208201819052600090610b989083018486610b39565b95945050505050565b6001600160a01b0386168152608060208201819052600090610bc69083018688610b39565b604083019490945250606001529392505050565b60208082526027908201527f54696d654c6f636b3a2043616c6c6572206973206e6f7420636f6e74726163746040820152661034ba39b2b63360c91b606082015260800190565b6020808252818101527f4f776e61626c653a2063616c6c6572206973206e6f7420746865206f776e6572604082015260600190565b60008219821115610c6957610c69610cad565b500190565b600082610c8957634e487b7160e01b81526012600452602481fd5b500490565b6000816000190483118215151615610ca857610ca8610cad565b500290565b634e487b7160e01b600052601160045260246000fdfea2646970667358221220ece032dcd2bde7b7a7eeb95ca9dd859814519fd918d315a8294d5201ed96ccbb64736f6c63430008020033",
  "devdoc": {
    "kind": "dev",
    "methods": {
      "owner()": {
        "details": "Returns the address of the current owner."
      },
      "renounceOwnership()": {
        "details": "Leaves the contract without owner. It will not be possible to call `onlyOwner` functions anymore. Can only be called by the current owner. NOTE: Renouncing ownership will leave the contract without an owner, thereby removing any functionality that is only available to the owner."
      },
      "transferOwnership(address)": {
        "details": "Transfers ownership of the contract to a new account (`newOwner`). Can only be called by the current owner."
      }
    },
    "version": 1
  },
  "userdoc": {
    "kind": "user",
    "methods": {},
    "version": 1
  },
  "storageLayout": {
    "storage": [
      {
        "astId": 7,
        "contract": "contracts/coordinape-protocol/contracts/ApeProtocol/FeeRegistry.sol:FeeRegistry",
        "label": "_owner",
        "offset": 0,
        "slot": "0",
        "type": "t_address"
      },
      {
        "astId": 5976,
        "contract": "contracts/coordinape-protocol/contracts/ApeProtocol/FeeRegistry.sol:FeeRegistry",
        "label": "timestamps",
        "offset": 0,
        "slot": "1",
        "type": "t_mapping(t_bytes32,t_uint256)"
      },
      {
        "astId": 5978,
        "contract": "contracts/coordinape-protocol/contracts/ApeProtocol/FeeRegistry.sol:FeeRegistry",
        "label": "minDelay",
        "offset": 0,
        "slot": "2",
        "type": "t_uint256"
      },
      {
        "astId": 5323,
        "contract": "contracts/coordinape-protocol/contracts/ApeProtocol/FeeRegistry.sol:FeeRegistry",
        "label": "on",
        "offset": 0,
        "slot": "3",
        "type": "t_bool"
      }
    ],
    "types": {
      "t_address": {
        "encoding": "inplace",
        "label": "address",
        "numberOfBytes": "20"
      },
      "t_bool": {
        "encoding": "inplace",
        "label": "bool",
        "numberOfBytes": "1"
      },
      "t_bytes32": {
        "encoding": "inplace",
        "label": "bytes32",
        "numberOfBytes": "32"
      },
      "t_mapping(t_bytes32,t_uint256)": {
        "encoding": "mapping",
        "key": "t_bytes32",
        "label": "mapping(bytes32 => uint256)",
        "numberOfBytes": "32",
        "value": "t_uint256"
      },
      "t_uint256": {
        "encoding": "inplace",
        "label": "uint256",
        "numberOfBytes": "32"
      }
    }
  }
}