{
  "address": "0x279c552AAA7d72C8242CD74d66F1B00709520Cf5",
  "abi": [
    {
      "anonymous": false,
      "inputs": [
        {
          "indexed": true,
          "internalType": "address",
          "name": "owner",
          "type": "address"
        },
        {
          "indexed": true,
          "internalType": "address",
          "name": "approved",
          "type": "address"
        },
        {
          "indexed": true,
          "internalType": "uint256",
          "name": "tokenId",
          "type": "uint256"
        }
      ],
      "name": "Approval",
      "type": "event"
    },
    {
      "anonymous": false,
      "inputs": [
        {
          "indexed": true,
          "internalType": "address",
          "name": "owner",
          "type": "address"
        },
        {
          "indexed": true,
          "internalType": "address",
          "name": "operator",
          "type": "address"
        },
        {
          "indexed": false,
          "internalType": "bool",
          "name": "approved",
          "type": "bool"
        }
      ],
      "name": "ApprovalForAll",
      "type": "event"
    },
    {
      "anonymous": false,
      "inputs": [
        {
          "indexed": false,
          "internalType": "uint256",
          "name": "_fromTokenId",
          "type": "uint256"
        },
        {
          "indexed": false,
          "internalType": "uint256",
          "name": "_toTokenId",
          "type": "uint256"
        }
      ],
      "name": "BatchMetadataUpdate",
      "type": "event"
    },
    {
      "anonymous": false,
      "inputs": [
        {
          "indexed": false,
          "internalType": "uint8",
          "name": "version",
          "type": "uint8"
        }
      ],
      "name": "Initialized",
      "type": "event"
    },
    {
      "anonymous": false,
      "inputs": [
        {
          "indexed": false,
          "internalType": "uint256",
          "name": "_tokenId",
          "type": "uint256"
        }
      ],
      "name": "MetadataUpdate",
      "type": "event"
    },
    {
      "anonymous": false,
      "inputs": [
        {
          "indexed": true,
          "internalType": "address",
          "name": "previousOwner",
          "type": "address"
        },
        {
          "indexed": true,
          "internalType": "address",
          "name": "newOwner",
          "type": "address"
        }
      ],
      "name": "OwnershipTransferred",
      "type": "event"
    },
    {
      "anonymous": false,
      "inputs": [
        {
          "indexed": true,
          "internalType": "address",
          "name": "from",
          "type": "address"
        },
        {
          "indexed": true,
          "internalType": "address",
          "name": "to",
          "type": "address"
        },
        {
          "indexed": true,
          "internalType": "uint256",
          "name": "tokenId",
          "type": "uint256"
        }
      ],
      "name": "Transfer",
      "type": "event"
    },
    {
      "inputs": [
        {
          "internalType": "address",
          "name": "to",
          "type": "address"
        },
        {
          "internalType": "uint256",
          "name": "tokenId",
          "type": "uint256"
        }
      ],
      "name": "approve",
      "outputs": [],
      "stateMutability": "nonpayable",
      "type": "function"
    },
    {
      "inputs": [
        {
          "internalType": "address",
          "name": "",
          "type": "address"
        }
      ],
      "name": "authorisedCallers",
      "outputs": [
        {
          "internalType": "bool",
          "name": "",
          "type": "bool"
        }
      ],
      "stateMutability": "view",
      "type": "function"
    },
    {
      "inputs": [
        {
          "internalType": "address",
          "name": "owner",
          "type": "address"
        }
      ],
      "name": "balanceOf",
      "outputs": [
        {
          "internalType": "uint256",
          "name": "",
          "type": "uint256"
        }
      ],
      "stateMutability": "view",
      "type": "function"
    },
    {
      "inputs": [
        {
          "internalType": "uint256[]",
          "name": "_slots",
          "type": "uint256[]"
        },
        {
          "internalType": "uint32[]",
          "name": "_amounts",
          "type": "uint32[]"
        },
        {
          "internalType": "uint256[]",
          "name": "_tokenIds",
          "type": "uint256[]"
        }
      ],
      "name": "batchSetSlot",
      "outputs": [],
      "stateMutability": "nonpayable",
      "type": "function"
    },
    {
      "inputs": [
        {
          "internalType": "bytes",
          "name": "_data",
          "type": "bytes"
        }
      ],
      "name": "batchSetSlot_UfO",
      "outputs": [],
      "stateMutability": "nonpayable",
      "type": "function"
    },
    {
      "inputs": [
        {
          "internalType": "uint256",
          "name": "",
          "type": "uint256"
        }
      ],
      "name": "blobs",
      "outputs": [
        {
          "internalType": "uint256",
          "name": "",
          "type": "uint256"
        }
      ],
      "stateMutability": "view",
      "type": "function"
    },
    {
      "inputs": [
        {
          "internalType": "uint256",
          "name": "_tokenId",
          "type": "uint256"
        }
      ],
      "name": "burn",
      "outputs": [],
      "stateMutability": "nonpayable",
      "type": "function"
    },
    {
      "inputs": [
        {
          "internalType": "uint256",
          "name": "",
          "type": "uint256"
        }
      ],
      "name": "burnNonces",
      "outputs": [
        {
          "internalType": "uint256",
          "name": "",
          "type": "uint256"
        }
      ],
      "stateMutability": "view",
      "type": "function"
    },
    {
      "inputs": [
        {
          "internalType": "uint256",
          "name": "_tokenId",
          "type": "uint256"
        },
        {
          "internalType": "uint256",
          "name": "_nonce",
          "type": "uint256"
        },
        {
          "internalType": "bytes",
          "name": "_signature",
          "type": "bytes"
        }
      ],
      "name": "burnWithSignature",
      "outputs": [],
      "stateMutability": "nonpayable",
      "type": "function"
    },
    {
      "inputs": [],
      "name": "counter",
      "outputs": [
        {
          "internalType": "uint256",
          "name": "",
          "type": "uint256"
        }
      ],
      "stateMutability": "view",
      "type": "function"
    },
    {
      "inputs": [
        {
          "internalType": "uint8",
          "name": "_slot",
          "type": "uint8"
        },
        {
          "internalType": "uint256",
          "name": "_amount",
          "type": "uint256"
        },
        {
          "internalType": "uint256",
          "name": "_tokenId",
          "type": "uint256"
        }
      ],
      "name": "decSlot",
      "outputs": [],
      "stateMutability": "nonpayable",
      "type": "function"
    },
    {
      "inputs": [
        {
          "internalType": "uint256",
          "name": "tokenId",
          "type": "uint256"
        }
      ],
      "name": "getApproved",
      "outputs": [
        {
          "internalType": "address",
          "name": "",
          "type": "address"
        }
      ],
      "stateMutability": "view",
      "type": "function"
    },
    {
      "inputs": [
        {
          "internalType": "uint8",
          "name": "_slot",
          "type": "uint8"
        },
        {
          "internalType": "uint256",
          "name": "_tokenId",
          "type": "uint256"
        }
      ],
      "name": "getSlot",
      "outputs": [
        {
          "internalType": "uint256",
          "name": "value",
          "type": "uint256"
        }
      ],
      "stateMutability": "view",
      "type": "function"
    },
    {
      "inputs": [
        {
          "internalType": "uint8",
          "name": "_slot",
          "type": "uint8"
        },
        {
          "internalType": "uint256",
          "name": "_amount",
          "type": "uint256"
        },
        {
          "internalType": "uint256",
          "name": "_tokenId",
          "type": "uint256"
        }
      ],
      "name": "incSlot",
      "outputs": [],
      "stateMutability": "nonpayable",
      "type": "function"
    },
    {
      "inputs": [
        {
          "internalType": "string",
          "name": "__name",
          "type": "string"
        },
        {
          "internalType": "string",
          "name": "__symbol",
          "type": "string"
        },
        {
          "internalType": "address",
          "name": "_signer",
          "type": "address"
        }
      ],
      "name": "initialize",
      "outputs": [],
      "stateMutability": "nonpayable",
      "type": "function"
    },
    {
      "inputs": [],
      "name": "initiated",
      "outputs": [
        {
          "internalType": "bool",
          "name": "",
          "type": "bool"
        }
      ],
      "stateMutability": "view",
      "type": "function"
    },
    {
      "inputs": [
        {
          "internalType": "address",
          "name": "owner",
          "type": "address"
        },
        {
          "internalType": "address",
          "name": "operator",
          "type": "address"
        }
      ],
      "name": "isApprovedForAll",
      "outputs": [
        {
          "internalType": "bool",
          "name": "",
          "type": "bool"
        }
      ],
      "stateMutability": "view",
      "type": "function"
    },
    {
      "inputs": [],
      "name": "mint",
      "outputs": [],
      "stateMutability": "payable",
      "type": "function"
    },
    {
      "inputs": [],
      "name": "mintFeeInWei",
      "outputs": [
        {
          "internalType": "uint256",
          "name": "",
          "type": "uint256"
        }
      ],
      "stateMutability": "view",
      "type": "function"
    },
    {
      "inputs": [
        {
          "internalType": "address",
          "name": "",
          "type": "address"
        }
      ],
      "name": "mintNonces",
      "outputs": [
        {
          "internalType": "uint256",
          "name": "",
          "type": "uint256"
        }
      ],
      "stateMutability": "view",
      "type": "function"
    },
    {
      "inputs": [
        {
          "internalType": "uint256",
          "name": "_nonce",
          "type": "uint256"
        },
        {
          "internalType": "bytes",
          "name": "_signature",
          "type": "bytes"
        }
      ],
      "name": "mintWithSignature",
      "outputs": [],
      "stateMutability": "nonpayable",
      "type": "function"
    },
    {
      "inputs": [],
      "name": "name",
      "outputs": [
        {
          "internalType": "string",
          "name": "",
          "type": "string"
        }
      ],
      "stateMutability": "view",
      "type": "function"
    },
    {
      "inputs": [
        {
          "internalType": "address",
          "name": "_from",
          "type": "address"
        },
        {
          "internalType": "address",
          "name": "_to",
          "type": "address"
        },
        {
          "internalType": "uint256",
          "name": "_tokenId",
          "type": "uint256"
        }
      ],
      "name": "overrideTransfer",
      "outputs": [],
      "stateMutability": "nonpayable",
      "type": "function"
    },
    {
      "inputs": [
        {
          "internalType": "address",
          "name": "_from",
          "type": "address"
        },
        {
          "internalType": "address",
          "name": "_to",
          "type": "address"
        },
        {
          "internalType": "uint256",
          "name": "_tokenId",
          "type": "uint256"
        },
        {
          "internalType": "uint256",
          "name": "_nonce",
          "type": "uint256"
        },
        {
          "internalType": "bytes",
          "name": "_signature",
          "type": "bytes"
        }
      ],
      "name": "overrideTransferWithSignature",
      "outputs": [],
      "stateMutability": "nonpayable",
      "type": "function"
    },
    {
      "inputs": [],
      "name": "owner",
      "outputs": [
        {
          "internalType": "address",
          "name": "",
          "type": "address"
        }
      ],
      "stateMutability": "view",
      "type": "function"
    },
    {
      "inputs": [
        {
          "internalType": "uint256",
          "name": "tokenId",
          "type": "uint256"
        }
      ],
      "name": "ownerOf",
      "outputs": [
        {
          "internalType": "address",
          "name": "",
          "type": "address"
        }
      ],
      "stateMutability": "view",
      "type": "function"
    },
    {
      "inputs": [],
      "name": "renounceOwnership",
      "outputs": [],
      "stateMutability": "nonpayable",
      "type": "function"
    },
    {
      "inputs": [
        {
          "internalType": "address",
          "name": "from",
          "type": "address"
        },
        {
          "internalType": "address",
          "name": "to",
          "type": "address"
        },
        {
          "internalType": "uint256",
          "name": "tokenId",
          "type": "uint256"
        }
      ],
      "name": "safeTransferFrom",
      "outputs": [],
      "stateMutability": "nonpayable",
      "type": "function"
    },
    {
      "inputs": [
        {
          "internalType": "address",
          "name": "from",
          "type": "address"
        },
        {
          "internalType": "address",
          "name": "to",
          "type": "address"
        },
        {
          "internalType": "uint256",
          "name": "tokenId",
          "type": "uint256"
        },
        {
          "internalType": "bytes",
          "name": "_data",
          "type": "bytes"
        }
      ],
      "name": "safeTransferFrom",
      "outputs": [],
      "stateMutability": "nonpayable",
      "type": "function"
    },
    {
      "inputs": [
        {
          "internalType": "address",
          "name": "operator",
          "type": "address"
        },
        {
          "internalType": "bool",
          "name": "approved",
          "type": "bool"
        }
      ],
      "name": "setApprovalForAll",
      "outputs": [],
      "stateMutability": "nonpayable",
      "type": "function"
    },
    {
      "inputs": [
        {
          "internalType": "string",
          "name": "_newBaseURI",
          "type": "string"
        }
      ],
      "name": "setBaseURI",
      "outputs": [],
      "stateMutability": "nonpayable",
      "type": "function"
    },
    {
      "inputs": [
        {
          "internalType": "address",
          "name": "_caller",
          "type": "address"
        },
        {
          "internalType": "bool",
          "name": "_val",
          "type": "bool"
        }
      ],
      "name": "setCallers",
      "outputs": [],
      "stateMutability": "nonpayable",
      "type": "function"
    },
    {
      "inputs": [
        {
          "internalType": "uint256",
          "name": "_mintFeeInWei",
          "type": "uint256"
        }
      ],
      "name": "setMintFee",
      "outputs": [],
      "stateMutability": "nonpayable",
      "type": "function"
    },
    {
      "inputs": [
        {
          "internalType": "address",
          "name": "_signer",
          "type": "address"
        }
      ],
      "name": "setSigner",
      "outputs": [],
      "stateMutability": "nonpayable",
      "type": "function"
    },
    {
      "inputs": [
        {
          "internalType": "uint256",
          "name": "_slot",
          "type": "uint256"
        },
        {
          "internalType": "uint32",
          "name": "_amount",
          "type": "uint32"
        },
        {
          "internalType": "uint256",
          "name": "_tokenId",
          "type": "uint256"
        }
      ],
      "name": "setSlot",
      "outputs": [],
      "stateMutability": "nonpayable",
      "type": "function"
    },
    {
      "inputs": [],
      "name": "signer",
      "outputs": [
        {
          "internalType": "address",
          "name": "",
          "type": "address"
        }
      ],
      "stateMutability": "view",
      "type": "function"
    },
    {
      "inputs": [
        {
          "internalType": "bytes4",
          "name": "interfaceId",
          "type": "bytes4"
        }
      ],
      "name": "supportsInterface",
      "outputs": [
        {
          "internalType": "bool",
          "name": "",
          "type": "bool"
        }
      ],
      "stateMutability": "view",
      "type": "function"
    },
    {
      "inputs": [],
      "name": "symbol",
      "outputs": [
        {
          "internalType": "string",
          "name": "",
          "type": "string"
        }
      ],
      "stateMutability": "view",
      "type": "function"
    },
    {
      "inputs": [
        {
          "internalType": "uint256",
          "name": "",
          "type": "uint256"
        }
      ],
      "name": "syncNonces",
      "outputs": [
        {
          "internalType": "uint256",
          "name": "",
          "type": "uint256"
        }
      ],
      "stateMutability": "view",
      "type": "function"
    },
    {
      "inputs": [
        {
          "internalType": "uint256",
          "name": "_data",
          "type": "uint256"
        },
        {
          "internalType": "uint256",
          "name": "_tokenId",
          "type": "uint256"
        },
        {
          "internalType": "uint256",
          "name": "_nonce",
          "type": "uint256"
        },
        {
          "internalType": "bytes",
          "name": "_signature",
          "type": "bytes"
        }
      ],
      "name": "syncWithSignature",
      "outputs": [],
      "stateMutability": "nonpayable",
      "type": "function"
    },
    {
      "inputs": [
        {
          "internalType": "uint256",
          "name": "index",
          "type": "uint256"
        }
      ],
      "name": "tokenByIndex",
      "outputs": [
        {
          "internalType": "uint256",
          "name": "",
          "type": "uint256"
        }
      ],
      "stateMutability": "view",
      "type": "function"
    },
    {
      "inputs": [
        {
          "internalType": "address",
          "name": "owner",
          "type": "address"
        },
        {
          "internalType": "uint256",
          "name": "index",
          "type": "uint256"
        }
      ],
      "name": "tokenOfOwnerByIndex",
      "outputs": [
        {
          "internalType": "uint256",
          "name": "",
          "type": "uint256"
        }
      ],
      "stateMutability": "view",
      "type": "function"
    },
    {
      "inputs": [
        {
          "internalType": "uint256",
          "name": "tokenId",
          "type": "uint256"
        }
      ],
      "name": "tokenURI",
      "outputs": [
        {
          "internalType": "string",
          "name": "",
          "type": "string"
        }
      ],
      "stateMutability": "view",
      "type": "function"
    },
    {
      "inputs": [],
      "name": "totalSupply",
      "outputs": [
        {
          "internalType": "uint256",
          "name": "",
          "type": "uint256"
        }
      ],
      "stateMutability": "view",
      "type": "function"
    },
    {
      "inputs": [
        {
          "internalType": "address",
          "name": "from",
          "type": "address"
        },
        {
          "internalType": "address",
          "name": "to",
          "type": "address"
        },
        {
          "internalType": "uint256",
          "name": "tokenId",
          "type": "uint256"
        }
      ],
      "name": "transferFrom",
      "outputs": [],
      "stateMutability": "nonpayable",
      "type": "function"
    },
    {
      "inputs": [
        {
          "internalType": "uint256",
          "name": "",
          "type": "uint256"
        }
      ],
      "name": "transferNonces",
      "outputs": [
        {
          "internalType": "uint256",
          "name": "",
          "type": "uint256"
        }
      ],
      "stateMutability": "view",
      "type": "function"
    },
    {
      "inputs": [
        {
          "internalType": "address",
          "name": "newOwner",
          "type": "address"
        }
      ],
      "name": "transferOwnership",
      "outputs": [],
      "stateMutability": "nonpayable",
      "type": "function"
    }
  ],
  "transactionHash": "0x6e8c74ac719e1f8b76124af81f94353b61651151c869c1fe47c9d114d0f9ad9b",
  "args": [],
  "numDeployments": 8,
  "solcInputHash": "1163990e5dcc1c52e405382290edc4cc",
  "bytecode": "0x608060405234801561001057600080fd5b50613105806100206000396000f3fe6080604052600436106102155760003560e01c8061c2fc1461021a5780628ffa061461023c57806301ffc9a71461025c57806306fdde0314610291578063077f224a146102b3578063081812fc146102d3578063095ea7b31461030b5780631249c58b1461032b57806318160ddd1461033357806318badae814610352578063238ac9331461037257806323b872dd146103925780632abc3d4e146103ad5780632f745c59146103db5780633007daae146103fb57806342842e0e1461039257806342966c681461041b5780634eac19f81461043b5780634f6ccce71461045b57806355f804b31461047b57806361bc221a1461049b5780636352211e146104b25780636562f5f7146104d25780636c19e783146104f257806370a0823114610512578063715018a6146105325780637a0f4de2146105475780637c772c67146105745780637ead60a6146105a25780638da5cb5b146105c2578063944fd180146105d75780639540bce81461060757806395d89b41146106355780639763d6261461064a5780639e7593551461066a5780639f1185361461068a578063a22cb465146106a4578063a2b56140146106bf578063ae347105146106d6578063b88d4fde146106f6578063c87b56dd14610711578063cde4a8fc14610731578063d3f94a8714610751578063e985e9c51461077f578063eddd0d9c146107c8578063f2fde38b146107e8578063fc68c68914610808575b600080fd5b34801561022657600080fd5b5061023a610235366004612b13565b610828565b005b34801561024857600080fd5b5061023a610257366004612a58565b6108f8565b34801561026857600080fd5b5061027c610277366004612adb565b610ab2565b60405190151581526020015b60405180910390f35b34801561029d57600080fd5b506102a6610adf565b6040516102889190612de7565b3480156102bf57600080fd5b5061023a6102ce366004612b45565b610b71565b3480156102df57600080fd5b506102f36102ee366004612bb5565b610cb6565b6040516001600160a01b039091168152602001610288565b34801561031757600080fd5b5061023a610326366004612a2f565b610cdd565b61023a610d0e565b34801561033f57600080fd5b5060cb545b604051908152602001610288565b34801561035e57600080fd5b5061023a61036d3660046128e0565b610e3d565b34801561037e57600080fd5b5060fd546102f3906001600160a01b031681565b34801561039e57600080fd5b5061023a6103263660046128e0565b3480156103b957600080fd5b506103446103c8366004612bb5565b6101046020526000908152604090205481565b3480156103e757600080fd5b506103446103f6366004612a2f565b610e9a565b34801561040757600080fd5b50610344610416366004612d02565b610f30565b34801561042757600080fd5b5061023a610436366004612bb5565b610f66565b34801561044757600080fd5b5061023a610456366004612d1d565b610f9c565b34801561046757600080fd5b50610344610476366004612bb5565b611054565b34801561048757600080fd5b5061023a610496366004612b13565b6110f5565b3480156104a757600080fd5b506103446101035481565b3480156104be57600080fd5b506102f36104cd366004612bb5565b611114565b3480156104de57600080fd5b5061023a6104ed3660046129f5565b611148565b3480156104fe57600080fd5b5061023a61050d366004612894565b61117b565b34801561051e57600080fd5b5061034461052d366004612894565b6111a5565b34801561053e57600080fd5b5061023a61122b565b34801561055357600080fd5b50610344610562366004612bb5565b60ff6020526000908152604090205481565b34801561058057600080fd5b5061034461058f366004612bb5565b6101006020526000908152604090205481565b3480156105ae57600080fd5b5061023a6105bd366004612980565b61123f565b3480156105ce57600080fd5b506102f3611382565b3480156105e357600080fd5b5061027c6105f2366004612894565b60fe6020526000908152604090205460ff1681565b34801561061357600080fd5b50610344610622366004612894565b6101026020526000908152604090205481565b34801561064157600080fd5b506102a6611391565b34801561065657600080fd5b5061023a610665366004612bcd565b6113a0565b34801561067657600080fd5b5061023a610685366004612d1d565b611490565b34801561069657600080fd5b5060fb5461027c9060ff1681565b3480156106b057600080fd5b5061023a6103263660046129f5565b3480156106cb57600080fd5b506103446101055481565b3480156106e257600080fd5b5061023a6106f1366004612c66565b61153a565b34801561070257600080fd5b5061023a61032636600461291b565b34801561071d57600080fd5b506102a661072c366004612bb5565b61162a565b34801561073d57600080fd5b5061023a61074c366004612cc4565b611691565b34801561075d57600080fd5b5061034461076c366004612bb5565b6101016020526000908152604090205481565b34801561078b57600080fd5b5061027c61079a3660046128ae565b6001600160a01b039182166000908152609c6020908152604080832093909416825291909152205460ff1690565b3480156107d457600080fd5b5061023a6107e3366004612bb5565b61174c565b3480156107f457600080fd5b5061023a610803366004612894565b611792565b34801561081457600080fd5b5061023a610823366004612c16565b611808565b33600081815260fe602052604090205460ff168061085e5750610849611382565b6001600160a01b0316816001600160a01b0316145b61086757600080fd5b6000600883516108779190612fb4565b602084015190915060f81c600080805b848110156108ef57600881026021018088015160e01c93506004810188015160e01c9250506108dd848484600090815261010460205260409020805463ffffffff80851b1990911692811690931b909216179055565b806108e781613052565b915050610887565b50505050505050565b33600081815260fe602052604090205460ff168061092e5750610919611382565b6001600160a01b0316816001600160a01b0316145b61093757600080fd5b60005b86811015610aa857600888888381811061096457634e487b7160e01b600052603260045260246000fd5b905060200201351061097557600080fd5b6000610104600086868581811061099c57634e487b7160e01b600052603260045260246000fd5b90506020020135815260200190815260200160002054905060008989848181106109d657634e487b7160e01b600052603260045260246000fd5b9050602002013563ffffffff901b199050898984818110610a0757634e487b7160e01b600052603260045260246000fd5b90506020020135888885818110610a2e57634e487b7160e01b600052603260045260246000fd5b9050602002016020810190610a439190612ce8565b63ffffffff16901b63ffffffff16818316176101046000888887818110610a7a57634e487b7160e01b600052603260045260246000fd5b9050602002013581526020019081526020016000208190555050508080610aa090613052565b91505061093a565b5050505050505050565b60006001600160e01b0319821663780e9d6360e01b1480610ad75750610ad7826118f5565b90505b919050565b606060978054610aee90613017565b80601f0160208091040260200160405190810160405280929190818152602001828054610b1a90613017565b8015610b675780601f10610b3c57610100808354040283529160200191610b67565b820191906000526020600020905b815481529060010190602001808311610b4a57829003601f168201915b5050505050905090565b600054610100900460ff1615808015610b915750600054600160ff909116105b80610bb25750610ba030611945565b158015610bb2575060005460ff166001145b610c1a5760405162461bcd60e51b815260206004820152602e60248201527f496e697469616c697a61626c653a20636f6e747261637420697320616c72656160448201526d191e481a5b9a5d1a585b1a5e995960921b60648201526084015b60405180910390fd5b6000805460ff191660011790558015610c3d576000805461ff0019166101001790555b610c45611954565b610c4f8484611983565b60fd80546001600160a01b0319166001600160a01b0384161790558015610cb0576000805461ff0019169055604051600181527f7f26b83ff96e1f2b6a682f133852f6798a09c465da95921460cefb38474024989060200160405180910390a15b50505050565b6000610cc1826119b4565b506000908152609b60205260409020546001600160a01b031690565b60405162461bcd60e51b8152600401610c11906020808252600490820152636e6f706560e01b604082015260600190565b610d17336111a5565b15610d2157600080fd5b61010554341015610d745760405162461bcd60e51b815260206004820152601d60248201527f436f536f756c3a20496e73756666696369656e74206d696e74206665650000006044820152606401610c11565b6000610d7e611382565b6001600160a01b03163460405160006040518083038185875af1925050503d8060008114610dc8576040519150601f19603f3d011682016040523d82523d6000602084013e610dcd565b606091505b5050905080610e1c5760405162461bcd60e51b815260206004820152601b60248201527a4661696c656420746f207472616e73666572206d696e742066656560281b6044820152606401610c11565b610e3a3361010360008154610e3090613052565b91829055506119d9565b50565b33600081815260fe602052604090205460ff1680610e735750610e5e611382565b6001600160a01b0316816001600160a01b0316145b610e7c57600080fd5b610e85836111a5565b15610e8f57600080fd5b610cb08484846119f3565b6000610ea5836111a5565b8210610f075760405162461bcd60e51b815260206004820152602b60248201527f455243373231456e756d657261626c653a206f776e657220696e646578206f7560448201526a74206f6620626f756e647360a81b6064820152608401610c11565b506001600160a01b0391909116600090815260c960209081526040808320938352929052205490565b600060088360ff1610610f4257600080fd5b506000908152610104602052604090205463ffffffff60ff90921691821b16901c90565b33610f7082611114565b6001600160a01b031614610f8357600080fd5b60008181526101046020526040812055610e3a81611b52565b33600081815260fe602052604090205460ff1680610fd25750610fbd611382565b6001600160a01b0316816001600160a01b0316145b610fdb57600080fd5b60088460ff1610610feb57600080fd5b6000610ff78584610f30565b9050838110156110195760405162461bcd60e51b8152600401610c1190612f20565b6000838152610104602052604090205461103960ff871686901b82612fd4565b60009485526101046020526040909420939093555050505050565b600061105f60cb5490565b82106110c25760405162461bcd60e51b815260206004820152602c60248201527f455243373231456e756d657261626c653a20676c6f62616c20696e646578206f60448201526b7574206f6620626f756e647360a01b6064820152608401610c11565b60cb82815481106110e357634e487b7160e01b600052603260045260246000fd5b90600052602060002001549050919050565b6110fd611be4565b80516111109060fc9060208401906126b9565b5050565b60008061112083611c43565b90506001600160a01b038116610ad75760405162461bcd60e51b8152600401610c1190612eee565b611150611be4565b6001600160a01b0391909116600090815260fe60205260409020805460ff1916911515919091179055565b611183611be4565b60fd80546001600160a01b0319166001600160a01b0392909216919091179055565b60006001600160a01b03821661120f5760405162461bcd60e51b815260206004820152602960248201527f4552433732313a2061646472657373207a65726f206973206e6f7420612076616044820152683634b21037bbb732b960b91b6064820152608401610c11565b506001600160a01b03166000908152609a602052604090205490565b611233611be4565b61123d6000611c5e565b565b3361124985611114565b6001600160a01b03161461125c57600080fd5b611265856111a5565b1561126f57600080fd5b600084815260ff602052604081208054859290919061128d83613052565b919050551461129b57600080fd5b60fd54604080516020601f85018190048102820181019092528381526001600160a01b03909216916113499185908590819084018382808284376000920191909152505060408051602081018b9052908101899052611343925060600190505b604051602081830303815290604052805190602001207b0ca2ba3432b932bab69029b4b3b732b21026b2b9b9b0b3b29d05199960211b6000908152601c91909152603c902090565b90611cb0565b6001600160a01b03161461136f5760405162461bcd60e51b8152600401610c1190612ec7565b61137a8686866119f3565b505050505050565b6033546001600160a01b031690565b606060988054610aee90613017565b6113a9336111a5565b156113b357600080fd5b33600090815261010260205260408120805485929091906113d383613052565b91905055146113e157600080fd5b60fd54604080516020601f85018190048102820181019092528381526001600160a01b0390921691611451918590859081908401838280828437600092019190915250506040516001600160601b03193360601b16602082015260348101899052611343925060540190506112fb565b6001600160a01b0316146114775760405162461bcd60e51b8152600401610c1190612ec7565b61148b3361010360008154610e3090613052565b505050565b33600081815260fe602052604090205460ff16806114c657506114b1611382565b6001600160a01b0316816001600160a01b0316145b6114cf57600080fd5b60088460ff16106114df57600080fd5b60006114eb8584610f30565b905063ffffffff6114fc8583612f9c565b111561151a5760405162461bcd60e51b8152600401610c1190612f20565b6000838152610104602052604090205461103960ff871686901b82612f9c565b3361154485611114565b6001600160a01b03161461155757600080fd5b6000838152610100602052604081208054859290919061157683613052565b919050551461158457600080fd5b60fd54604080516020601f85018190048102820181019092528381526001600160a01b03909216916115ef9185908590819084018382808284376000920191909152505060408051602081018b9052908101899052606081018b9052611343925060800190506112fb565b6001600160a01b0316146116155760405162461bcd60e51b8152600401610c1190612ec7565b50505060009081526101046020526040902055565b6060611635826119b4565b600061163f611cd4565b9050600081511161165f576040518060200160405280600081525061168a565b8061166984611ce3565b60405160200161167a929190612d7b565b6040516020818303038152906040525b9392505050565b33600081815260fe602052604090205460ff16806116c757506116b2611382565b6001600160a01b0316816001600160a01b0316145b6116d057600080fd5b600884106116dd57600080fd5b6000828152610104602052604090819020805463ffffffff80881b198083168883168a1b9092169190911790925591517ff8e1a15aba9398e019f0b49df1a4fde98ee17ae345cb5f6b5e2c27f5033e8ce79061173c9086815260200190565b60405180910390a1505050505050565b33600081815260fe602052604090205460ff1680611782575061176d611382565b6001600160a01b0316816001600160a01b0316145b61178b57600080fd5b5061010555565b61179a611be4565b6001600160a01b0381166117ff5760405162461bcd60e51b815260206004820152602660248201527f4f776e61626c653a206e6577206f776e657220697320746865207a65726f206160448201526564647265737360d01b6064820152608401610c11565b610e3a81611c5e565b3361181285611114565b6001600160a01b03161461182557600080fd5b6000848152610101602052604081208054859290919061184483613052565b919050551461185257600080fd5b60fd54604080516020601f85018190048102820181019092528381526001600160a01b03909216916118b69185908590819084018382808284376000920191909152505060408051602081018b9052908101899052611343925060600190506112fb565b6001600160a01b0316146118dc5760405162461bcd60e51b8152600401610c1190612ec7565b60008481526101046020526040812055610cb084611b52565b60006001600160e01b031982166380ac58cd60e01b148061192657506001600160e01b03198216635b5e139f60e01b145b80610ad757506301ffc9a760e01b6001600160e01b0319831614610ad7565b6001600160a01b03163b151590565b600054610100900460ff1661197b5760405162461bcd60e51b8152600401610c1190612f51565b61123d611d85565b600054610100900460ff166119aa5760405162461bcd60e51b8152600401610c1190612f51565b6111108282611db5565b6119bd81611e03565b610e3a5760405162461bcd60e51b8152600401610c1190612eee565b611110828260405180602001604052806000815250611e20565b826001600160a01b0316611a0682611114565b6001600160a01b031614611a2c5760405162461bcd60e51b8152600401610c1190612e4c565b6001600160a01b038216611a8e5760405162461bcd60e51b8152602060048201526024808201527f4552433732313a207472616e7366657220746f20746865207a65726f206164646044820152637265737360e01b6064820152608401610c11565b611a9b8383836001611e53565b826001600160a01b0316611aae82611114565b6001600160a01b031614611ad45760405162461bcd60e51b8152600401610c1190612e4c565b6000818152609b6020908152604080832080546001600160a01b03199081169091556001600160a01b03878116808652609a8552838620805460001901905590871680865283862080546001019055868652609990945282852080549092168417909155905184936000805160206130b083398151915291a461148b565b6000611b5d82611114565b9050611b6d816000846001611e53565b611b7682611114565b6000838152609b6020908152604080832080546001600160a01b03199081169091556001600160a01b038516808552609a845282852080546000190190558785526099909352818420805490911690555192935084926000805160206130b0833981519152908390a4611110565b33611bed611382565b6001600160a01b03161461123d5760405162461bcd60e51b815260206004820181905260248201527f4f776e61626c653a2063616c6c6572206973206e6f7420746865206f776e65726044820152606401610c11565b6000908152609960205260409020546001600160a01b031690565b603380546001600160a01b038381166001600160a01b0319831681179093556040519116919082907f8be0079c531659141344cd1fd0a4f28419497f9722a3daafe3b4186f6b6457e090600090a35050565b6000806000611cbf8585611f87565b91509150611ccc81611fcd565b509392505050565b606060fc8054610aee90613017565b60606000611cf083612150565b60010190506000816001600160401b03811115611d1d57634e487b7160e01b600052604160045260246000fd5b6040519080825280601f01601f191660200182016040528015611d47576020820181803683370190505b5090508181016020015b600019016f181899199a1a9b1b9c1cb0b131b232b360811b600a86061a8153600a8504945084611d8057611ccc565b611d51565b600054610100900460ff16611dac5760405162461bcd60e51b8152600401610c1190612f51565b61123d33611c5e565b600054610100900460ff16611ddc5760405162461bcd60e51b8152600401610c1190612f51565b8151611def9060979060208501906126b9565b50805161148b9060989060208401906126b9565b600080611e0f83611c43565b6001600160a01b0316141592915050565b611e2a8383612226565b611e376000848484612330565b61148b5760405162461bcd60e51b8152600401610c1190612dfa565b6001811115611ec25760405162461bcd60e51b815260206004820152603560248201527f455243373231456e756d657261626c653a20636f6e7365637574697665207472604482015274185b9cd9995c9cc81b9bdd081cdd5c1c1bdc9d1959605a1b6064820152608401610c11565b816001600160a01b038516611f1e57611f198160cb8054600083815260cc60205260408120829055600182018355919091527fa7ce836d032b2bf62b7e2097a8e0a6d8aeb35405ad15271e96d3b0188a1d06fb0155565b611f41565b836001600160a01b0316856001600160a01b031614611f4157611f418582612445565b6001600160a01b038416611f5d57611f58816124e2565b611f80565b846001600160a01b0316846001600160a01b031614611f8057611f8084826125bb565b5050505050565b600080825160411415611fbe5760208301516040840151606085015160001a611fb2878285856125ff565b94509450505050611fc6565b506000905060025b9250929050565b6000816004811115611fef57634e487b7160e01b600052602160045260246000fd5b1415611ffa57610e3a565b600181600481111561201c57634e487b7160e01b600052602160045260246000fd5b14156120655760405162461bcd60e51b815260206004820152601860248201527745434453413a20696e76616c6964207369676e617475726560401b6044820152606401610c11565b600281600481111561208757634e487b7160e01b600052602160045260246000fd5b14156120d55760405162461bcd60e51b815260206004820152601f60248201527f45434453413a20696e76616c6964207369676e6174757265206c656e677468006044820152606401610c11565b60038160048111156120f757634e487b7160e01b600052602160045260246000fd5b1415610e3a5760405162461bcd60e51b815260206004820152602260248201527f45434453413a20696e76616c6964207369676e6174757265202773272076616c604482015261756560f01b6064820152608401610c11565b60008072184f03e93ff9f4daa797ed6e38ed64bf6a1f0160401b831061218f5772184f03e93ff9f4daa797ed6e38ed64bf6a1f0160401b830492506040015b6904ee2d6d415b85acef8160201b83106121b9576904ee2d6d415b85acef8160201b830492506020015b662386f26fc1000083106121d757662386f26fc10000830492506010015b6305f5e10083106121ef576305f5e100830492506008015b612710831061220357612710830492506004015b60648310612215576064830492506002015b600a8310610ad75760010192915050565b6001600160a01b03821661227c5760405162461bcd60e51b815260206004820181905260248201527f4552433732313a206d696e7420746f20746865207a65726f20616464726573736044820152606401610c11565b61228581611e03565b156122a25760405162461bcd60e51b8152600401610c1190612e91565b6122b0600083836001611e53565b6122b981611e03565b156122d65760405162461bcd60e51b8152600401610c1190612e91565b6001600160a01b0382166000818152609a6020908152604080832080546001019055848352609990915280822080546001600160a01b0319168417905551839291906000805160206130b0833981519152908290a4611110565b6000612344846001600160a01b0316611945565b1561243957604051630a85bd0160e11b81526001600160a01b0385169063150b7a029061237b903390899088908890600401612daa565b602060405180830381600087803b15801561239557600080fd5b505af19250505080156123c5575060408051601f3d908101601f191682019092526123c291810190612af7565b60015b61241f573d8080156123f3576040519150601f19603f3d011682016040523d82523d6000602084013e6123f8565b606091505b5080516124175760405162461bcd60e51b8152600401610c1190612dfa565b805181602001fd5b6001600160e01b031916630a85bd0160e11b14905061243d565b5060015b949350505050565b60006001612452846111a5565b61245c9190612fd4565b600083815260ca60205260409020549091508082146124af576001600160a01b038416600090815260c960209081526040808320858452825280832054848452818420819055835260ca90915290208190555b50600091825260ca602090815260408084208490556001600160a01b03909416835260c981528383209183525290812055565b60cb546000906124f490600190612fd4565b600083815260cc602052604081205460cb805493945090928490811061252a57634e487b7160e01b600052603260045260246000fd5b906000526020600020015490508060cb838154811061255957634e487b7160e01b600052603260045260246000fd5b600091825260208083209091019290925582815260cc909152604080822084905585825281205560cb80548061259f57634e487b7160e01b600052603160045260246000fd5b6001900381819060005260206000200160009055905550505050565b60006125c6836111a5565b6001600160a01b03909316600090815260c960209081526040808320868452825280832085905593825260ca9052919091209190915550565b6000806fa2a8918ca85bafe22016d0b997e4df60600160ff1b0383111561262c57506000905060036126b0565b6040805160008082526020820180845289905260ff881692820192909252606081018690526080810185905260019060a0016020604051602081039080840390855afa158015612680573d6000803e3d6000fd5b5050604051601f1901519150506001600160a01b0381166126a9576000600192509250506126b0565b9150600090505b94509492505050565b8280546126c590613017565b90600052602060002090601f0160209004810192826126e7576000855561272d565b82601f1061270057805160ff191683800117855561272d565b8280016001018555821561272d579182015b8281111561272d578251825591602001919060010190612712565b5061273992915061273d565b5090565b5b80821115612739576000815560010161273e565b80356001600160a01b0381168114610ada57600080fd5b60008083601f84011261277a578081fd5b5081356001600160401b03811115612790578182fd5b6020830191508360208083028501011115611fc657600080fd5b60008083601f8401126127bb578182fd5b5081356001600160401b038111156127d1578182fd5b602083019150836020828501011115611fc657600080fd5b600082601f8301126127f9578081fd5b81356001600160401b038082111561281357612813613083565b604051601f8301601f19908116603f0116810190828211818310171561283b5761283b613083565b81604052838152866020858801011115612853578485fd5b8360208701602083013792830160200193909352509392505050565b803563ffffffff81168114610ada57600080fd5b803560ff81168114610ada57600080fd5b6000602082840312156128a5578081fd5b61168a82612752565b600080604083850312156128c0578081fd5b6128c983612752565b91506128d760208401612752565b90509250929050565b6000806000606084860312156128f4578081fd5b6128fd84612752565b925061290b60208501612752565b9150604084013590509250925092565b60008060008060808587031215612930578081fd5b61293985612752565b935061294760208601612752565b92506040850135915060608501356001600160401b03811115612968578182fd5b612974878288016127e9565b91505092959194509250565b60008060008060008060a08789031215612998578182fd5b6129a187612752565b95506129af60208801612752565b9450604087013593506060870135925060808701356001600160401b038111156129d7578283fd5b6129e389828a016127aa565b979a9699509497509295939492505050565b60008060408385031215612a07578182fd5b612a1083612752565b915060208301358015158114612a24578182fd5b809150509250929050565b60008060408385031215612a41578182fd5b612a4a83612752565b946020939093013593505050565b60008060008060008060608789031215612a70578182fd5b86356001600160401b0380821115612a86578384fd5b612a928a838b01612769565b90985096506020890135915080821115612aaa578384fd5b612ab68a838b01612769565b90965094506040890135915080821115612ace578384fd5b506129e389828a01612769565b600060208284031215612aec578081fd5b813561168a81613099565b600060208284031215612b08578081fd5b815161168a81613099565b600060208284031215612b24578081fd5b81356001600160401b03811115612b39578182fd5b61243d848285016127e9565b600080600060608486031215612b59578081fd5b83356001600160401b0380821115612b6f578283fd5b612b7b878388016127e9565b94506020860135915080821115612b90578283fd5b50612b9d868287016127e9565b925050612bac60408501612752565b90509250925092565b600060208284031215612bc6578081fd5b5035919050565b600080600060408486031215612be1578081fd5b8335925060208401356001600160401b03811115612bfd578182fd5b612c09868287016127aa565b9497909650939450505050565b60008060008060608587031215612c2b578182fd5b843593506020850135925060408501356001600160401b03811115612c4e578283fd5b612c5a878288016127aa565b95989497509550505050565b600080600080600060808688031215612c7d578283fd5b85359450602086013593506040860135925060608601356001600160401b03811115612ca7578182fd5b612cb3888289016127aa565b969995985093965092949392505050565b600080600060608486031215612cd8578081fd5b8335925061290b6020850161286f565b600060208284031215612cf9578081fd5b61168a8261286f565b60008060408385031215612d14578182fd5b612a4a83612883565b600080600060608486031215612d31578081fd5b612d3a84612883565b95602085013595506040909401359392505050565b60008151808452612d67816020860160208601612feb565b601f01601f19169290920160200192915050565b60008351612d8d818460208801612feb565b835190830190612da1818360208801612feb565b01949350505050565b6001600160a01b0385811682528416602082015260408101839052608060608201819052600090612ddd90830184612d4f565b9695505050505050565b60006020825261168a6020830184612d4f565b60208082526032908201527f4552433732313a207472616e7366657220746f206e6f6e20455243373231526560408201527131b2b4bb32b91034b6b83632b6b2b73a32b960711b606082015260800190565b60208082526025908201527f4552433732313a207472616e736665722066726f6d20696e636f72726563742060408201526437bbb732b960d91b606082015260800190565b6020808252601c908201527b115490cdcc8c4e881d1bdad95b88185b1c9958591e481b5a5b9d195960221b604082015260600190565b6020808252600d908201526c14da59c81b9bdd081d985b1a59609a1b604082015260600190565b602080825260189082015277115490cdcc8c4e881a5b9d985b1a59081d1bdad95b88125160421b604082015260600190565b602080825260179082015276436f536f756c3a2075696e743332206f766572666c6f7760481b604082015260600190565b6020808252602b908201527f496e697469616c697a61626c653a20636f6e7472616374206973206e6f74206960408201526a6e697469616c697a696e6760a81b606082015260800190565b60008219821115612faf57612faf61306d565b500190565b600082612fcf57634e487b7160e01b81526012600452602481fd5b500490565b600082821015612fe657612fe661306d565b500390565b60005b83811015613006578181015183820152602001612fee565b83811115610cb05750506000910152565b60028104600182168061302b57607f821691505b6020821081141561304c57634e487b7160e01b600052602260045260246000fd5b50919050565b60006000198214156130665761306661306d565b5060010190565b634e487b7160e01b600052601160045260246000fd5b634e487b7160e01b600052604160045260246000fd5b6001600160e01b031981168114610e3a57600080fdfeddf252ad1be2c89b69c2b068fc378daa952ba7f163c4a11628f55a4df523b3efa2646970667358221220d9c8c895523e056590b07574d524c894b55c1d378fab8a85f24c49158ce9567464736f6c63430008020033",
  "devdoc": {
    "events": {
      "BatchMetadataUpdate(uint256,uint256)": {
        "details": "This event emits when the metadata of a range of tokens is changed. So that the third-party platforms such as NFT market could timely update the images and related attributes of the NFTs."
      },
      "MetadataUpdate(uint256)": {
        "details": "This event emits when the metadata of a token is changed. So that the third-party platforms such as NFT market could timely update the images and related attributes of the NFT."
      }
    },
    "kind": "dev",
    "methods": {
      "approve(address,uint256)": {
        "details": "See {IERC721-approve}."
      },
      "balanceOf(address)": {
        "details": "See {IERC721-balanceOf}."
      },
      "batchSetSlot(uint256[],uint32[],uint256[])": {
        "params": {
          "_amounts": "Amout to update",
          "_slots": "Slot value. Up to 7",
          "_tokenIds": "Token ID from which to update the blob data"
        }
      },
      "batchSetSlot_UfO(bytes)": {
        "params": {
          "_data": "bytes data               3 bits for slot | one byte               after previous byte, alternate bewteen next elements like a packed array               4 bytes for each address               4 bytes for each token ID"
        }
      },
      "burn(uint256)": {
        "params": {
          "_tokenId": "Token ID to be burnt (fiiire)"
        }
      },
      "burnWithSignature(uint256,uint256,bytes)": {
        "params": {
          "_nonce": "Burn counter used to prevent replays",
          "_signature": "Signature provided by our signer to validate burn",
          "_tokenId": "Token ID to be burnt (fiiire)"
        }
      },
      "decSlot(uint8,uint256,uint256)": {
        "params": {
          "_amount": "Amout to decrement a slot",
          "_slot": "Slot value. Up to 7",
          "_tokenId": "Token ID from which to update the blob data"
        }
      },
      "getApproved(uint256)": {
        "details": "See {IERC721-getApproved}."
      },
      "getSlot(uint8,uint256)": {
        "params": {
          "_slot": "Slot value. Up to 7",
          "_tokenId": "Token ID from which to get the blob data"
        }
      },
      "incSlot(uint8,uint256,uint256)": {
        "params": {
          "_amount": "Amout to increment a slot",
          "_slot": "Slot value. Up to 7",
          "_tokenId": "Token ID from which to update the blob data"
        }
      },
      "initialize(string,string,address)": {
        "params": {
          "__name": "Name of SBT",
          "__symbol": "Symbol of SBT",
          "_signer": "Address that will provide valid signatures"
        }
      },
      "isApprovedForAll(address,address)": {
        "details": "See {IERC721-isApprovedForAll}."
      },
      "mintWithSignature(uint256,bytes)": {
        "params": {
          "_nonce": "Mint counter used to prevent replays",
          "_signature": "Signature provided by our signer to validate mint"
        }
      },
      "name()": {
        "details": "See {IERC721Metadata-name}."
      },
      "overrideTransfer(address,address,uint256)": {
        "params": {
          "_from": "Previous token owner",
          "_to": "New token owner",
          "_tokenId": "Token to transfer"
        }
      },
      "overrideTransferWithSignature(address,address,uint256,uint256,bytes)": {
        "params": {
          "_from": "Previous token owner",
          "_nonce": "Transfer counter used to prevent replays",
          "_signature": "Signature provided by our signer to validate transfer",
          "_to": "New token owner",
          "_tokenId": "Token to transfer"
        }
      },
      "owner()": {
        "details": "Returns the address of the current owner."
      },
      "ownerOf(uint256)": {
        "details": "See {IERC721-ownerOf}."
      },
      "renounceOwnership()": {
        "details": "Leaves the contract without owner. It will not be possible to call `onlyOwner` functions. Can only be called by the current owner. NOTE: Renouncing ownership will leave the contract without an owner, thereby disabling any functionality that is only available to the owner."
      },
      "safeTransferFrom(address,address,uint256)": {
        "details": "See {IERC721-safeTransferFrom}."
      },
      "setApprovalForAll(address,bool)": {
        "details": "See {IERC721-setApprovalForAll}."
      },
      "setBaseURI(string)": {
        "params": {
          "_newBaseURI": "New baseURI"
        }
      },
      "setCallers(address,bool)": {
        "params": {
          "_caller": "New signer",
          "_val": "Boolean to set/unset"
        }
      },
      "setMintFee(uint256)": {
        "params": {
          "_mintFeeInWei": "New mintFee"
        }
      },
      "setSigner(address)": {
        "params": {
          "_signer": "New signer"
        }
      },
      "setSlot(uint256,uint32,uint256)": {
        "params": {
          "_amount": "Amout to update",
          "_slot": "Slot value. Up to 7",
          "_tokenId": "Token ID from which to update the blob data"
        }
      },
      "supportsInterface(bytes4)": {
        "details": "See {IERC165-supportsInterface}."
      },
      "symbol()": {
        "details": "See {IERC721Metadata-symbol}."
      },
      "syncWithSignature(uint256,uint256,uint256,bytes)": {
        "params": {
          "_data": "Blob data that will overwrite current data",
          "_nonce": "Sync counter used to prevent replays",
          "_signature": "Signature provided by our signer to validate leaf data",
          "_tokenId": "Token ID from which to update blob"
        }
      },
      "tokenByIndex(uint256)": {
        "details": "See {IERC721Enumerable-tokenByIndex}."
      },
      "tokenOfOwnerByIndex(address,uint256)": {
        "details": "See {IERC721Enumerable-tokenOfOwnerByIndex}."
      },
      "tokenURI(uint256)": {
        "details": "See {IERC721Metadata-tokenURI}."
      },
      "totalSupply()": {
        "details": "See {IERC721Enumerable-totalSupply}."
      },
      "transferFrom(address,address,uint256)": {
        "details": "See {IERC721-transferFrom}."
      },
      "transferOwnership(address)": {
        "details": "Transfers ownership of the contract to a new account (`newOwner`). Can only be called by the current owner."
      }
    },
    "version": 1
  },
  "userdoc": {
    "kind": "user",
    "methods": {
      "batchSetSlot(uint256[],uint32[],uint256[])": {
        "notice": "Function to update the value of a slot in a blob"
      },
      "batchSetSlot_UfO(bytes)": {
        "notice": "Function to update the value of a slot in a blob"
      },
      "burn(uint256)": {
        "notice": "Function to burn token from msg.sender"
      },
      "burnWithSignature(uint256,uint256,bytes)": {
        "notice": "Function to burn token via signature to msg.sender"
      },
      "decSlot(uint8,uint256,uint256)": {
        "notice": "Function to decrement the value of a slot in a blob by some amount"
      },
      "getSlot(uint8,uint256)": {
        "notice": "Getter function to get the value in a specific slot of a given blob"
      },
      "incSlot(uint8,uint256,uint256)": {
        "notice": "Function to increment the value of a slot in a blob by some amount"
      },
      "initialize(string,string,address)": {
        "notice": "Init function called during proxy setup"
      },
      "mint()": {
        "notice": "Function to mint token"
      },
      "mintWithSignature(uint256,bytes)": {
        "notice": "Function to mint token via signature to msg.sender"
      },
      "overrideTransfer(address,address,uint256)": {
        "notice": "Function to transfer token under approval of the protocol. Gated by authorised addresses"
      },
      "overrideTransferWithSignature(address,address,uint256,uint256,bytes)": {
        "notice": "Function to transfer token under approval of the protocol via signature"
      },
      "setBaseURI(string)": {
        "notice": "Set a new baseURI. Owner gated."
      },
      "setCallers(address,bool)": {
        "notice": "Set a addreses capable of updating blob data of SBTs"
      },
      "setMintFee(uint256)": {
        "notice": "Function to set the mintFee, demoninated in Wei. Requires authorised caller."
      },
      "setSigner(address)": {
        "notice": "Set a new signer. Owner gated"
      },
      "setSlot(uint256,uint32,uint256)": {
        "notice": "Function to update the value of a slot in a blob Emits {MetadataUpdate}."
      },
      "syncWithSignature(uint256,uint256,uint256,bytes)": {
        "notice": "Function to sync blob data of a token from a signature signed by our signer"
      }
    },
    "version": 1
  },
  "storageLayout": {
    "storage": [
      {
        "astId": 138,
        "contract": "contracts/coordinape-protocol/contracts/cosoul/CoSoul.sol:CoSoul",
        "label": "_initialized",
        "offset": 0,
        "slot": "0",
        "type": "t_uint8"
      },
      {
        "astId": 141,
        "contract": "contracts/coordinape-protocol/contracts/cosoul/CoSoul.sol:CoSoul",
        "label": "_initializing",
        "offset": 1,
        "slot": "0",
        "type": "t_bool"
      },
      {
        "astId": 2189,
        "contract": "contracts/coordinape-protocol/contracts/cosoul/CoSoul.sol:CoSoul",
        "label": "__gap",
        "offset": 0,
        "slot": "1",
        "type": "t_array(t_uint256)50_storage"
      },
      {
        "astId": 10,
        "contract": "contracts/coordinape-protocol/contracts/cosoul/CoSoul.sol:CoSoul",
        "label": "_owner",
        "offset": 0,
        "slot": "51",
        "type": "t_address"
      },
      {
        "astId": 130,
        "contract": "contracts/coordinape-protocol/contracts/cosoul/CoSoul.sol:CoSoul",
        "label": "__gap",
        "offset": 0,
        "slot": "52",
        "type": "t_array(t_uint256)49_storage"
      },
      {
        "astId": 2828,
        "contract": "contracts/coordinape-protocol/contracts/cosoul/CoSoul.sol:CoSoul",
        "label": "__gap",
        "offset": 0,
        "slot": "101",
        "type": "t_array(t_uint256)50_storage"
      },
      {
        "astId": 329,
        "contract": "contracts/coordinape-protocol/contracts/cosoul/CoSoul.sol:CoSoul",
        "label": "_name",
        "offset": 0,
        "slot": "151",
        "type": "t_string_storage"
      },
      {
        "astId": 331,
        "contract": "contracts/coordinape-protocol/contracts/cosoul/CoSoul.sol:CoSoul",
        "label": "_symbol",
        "offset": 0,
        "slot": "152",
        "type": "t_string_storage"
      },
      {
        "astId": 335,
        "contract": "contracts/coordinape-protocol/contracts/cosoul/CoSoul.sol:CoSoul",
        "label": "_owners",
        "offset": 0,
        "slot": "153",
        "type": "t_mapping(t_uint256,t_address)"
      },
      {
        "astId": 339,
        "contract": "contracts/coordinape-protocol/contracts/cosoul/CoSoul.sol:CoSoul",
        "label": "_balances",
        "offset": 0,
        "slot": "154",
        "type": "t_mapping(t_address,t_uint256)"
      },
      {
        "astId": 343,
        "contract": "contracts/coordinape-protocol/contracts/cosoul/CoSoul.sol:CoSoul",
        "label": "_tokenApprovals",
        "offset": 0,
        "slot": "155",
        "type": "t_mapping(t_uint256,t_address)"
      },
      {
        "astId": 349,
        "contract": "contracts/coordinape-protocol/contracts/cosoul/CoSoul.sol:CoSoul",
        "label": "_operatorApprovals",
        "offset": 0,
        "slot": "156",
        "type": "t_mapping(t_address,t_mapping(t_address,t_bool))"
      },
      {
        "astId": 1251,
        "contract": "contracts/coordinape-protocol/contracts/cosoul/CoSoul.sol:CoSoul",
        "label": "__gap",
        "offset": 0,
        "slot": "157",
        "type": "t_array(t_uint256)44_storage"
      },
      {
        "astId": 1416,
        "contract": "contracts/coordinape-protocol/contracts/cosoul/CoSoul.sol:CoSoul",
        "label": "_ownedTokens",
        "offset": 0,
        "slot": "201",
        "type": "t_mapping(t_address,t_mapping(t_uint256,t_uint256))"
      },
      {
        "astId": 1420,
        "contract": "contracts/coordinape-protocol/contracts/cosoul/CoSoul.sol:CoSoul",
        "label": "_ownedTokensIndex",
        "offset": 0,
        "slot": "202",
        "type": "t_mapping(t_uint256,t_uint256)"
      },
      {
        "astId": 1423,
        "contract": "contracts/coordinape-protocol/contracts/cosoul/CoSoul.sol:CoSoul",
        "label": "_allTokens",
        "offset": 0,
        "slot": "203",
        "type": "t_array(t_uint256)dyn_storage"
      },
      {
        "astId": 1427,
        "contract": "contracts/coordinape-protocol/contracts/cosoul/CoSoul.sol:CoSoul",
        "label": "_allTokensIndex",
        "offset": 0,
        "slot": "204",
        "type": "t_mapping(t_uint256,t_uint256)"
      },
      {
        "astId": 1759,
        "contract": "contracts/coordinape-protocol/contracts/cosoul/CoSoul.sol:CoSoul",
        "label": "__gap",
        "offset": 0,
        "slot": "205",
        "type": "t_array(t_uint256)46_storage"
      },
      {
        "astId": 3838,
        "contract": "contracts/coordinape-protocol/contracts/cosoul/CoSoul.sol:CoSoul",
        "label": "initiated",
        "offset": 0,
        "slot": "251",
        "type": "t_bool"
      },
      {
        "astId": 3840,
        "contract": "contracts/coordinape-protocol/contracts/cosoul/CoSoul.sol:CoSoul",
        "label": "baseUri",
        "offset": 0,
        "slot": "252",
        "type": "t_string_storage"
      },
      {
        "astId": 3842,
        "contract": "contracts/coordinape-protocol/contracts/cosoul/CoSoul.sol:CoSoul",
        "label": "signer",
        "offset": 0,
        "slot": "253",
        "type": "t_address"
      },
      {
        "astId": 3846,
        "contract": "contracts/coordinape-protocol/contracts/cosoul/CoSoul.sol:CoSoul",
        "label": "authorisedCallers",
        "offset": 0,
        "slot": "254",
        "type": "t_mapping(t_address,t_bool)"
      },
      {
        "astId": 3850,
        "contract": "contracts/coordinape-protocol/contracts/cosoul/CoSoul.sol:CoSoul",
        "label": "transferNonces",
        "offset": 0,
        "slot": "255",
        "type": "t_mapping(t_uint256,t_uint256)"
      },
      {
        "astId": 3854,
        "contract": "contracts/coordinape-protocol/contracts/cosoul/CoSoul.sol:CoSoul",
        "label": "syncNonces",
        "offset": 0,
        "slot": "256",
        "type": "t_mapping(t_uint256,t_uint256)"
      },
      {
        "astId": 3858,
        "contract": "contracts/coordinape-protocol/contracts/cosoul/CoSoul.sol:CoSoul",
        "label": "burnNonces",
        "offset": 0,
        "slot": "257",
        "type": "t_mapping(t_uint256,t_uint256)"
      },
      {
        "astId": 3862,
        "contract": "contracts/coordinape-protocol/contracts/cosoul/CoSoul.sol:CoSoul",
        "label": "mintNonces",
        "offset": 0,
        "slot": "258",
        "type": "t_mapping(t_address,t_uint256)"
      },
      {
        "astId": 3864,
        "contract": "contracts/coordinape-protocol/contracts/cosoul/CoSoul.sol:CoSoul",
        "label": "counter",
        "offset": 0,
        "slot": "259",
        "type": "t_uint256"
      },
      {
        "astId": 3868,
        "contract": "contracts/coordinape-protocol/contracts/cosoul/CoSoul.sol:CoSoul",
        "label": "blobs",
        "offset": 0,
        "slot": "260",
        "type": "t_mapping(t_uint256,t_uint256)"
      },
      {
        "astId": 3870,
        "contract": "contracts/coordinape-protocol/contracts/cosoul/CoSoul.sol:CoSoul",
        "label": "mintFeeInWei",
        "offset": 0,
        "slot": "261",
        "type": "t_uint256"
      }
    ],
    "types": {
      "t_address": {
        "encoding": "inplace",
        "label": "address",
        "numberOfBytes": "20"
      },
      "t_array(t_uint256)44_storage": {
        "base": "t_uint256",
        "encoding": "inplace",
        "label": "uint256[44]",
        "numberOfBytes": "1408"
      },
      "t_array(t_uint256)46_storage": {
        "base": "t_uint256",
        "encoding": "inplace",
        "label": "uint256[46]",
        "numberOfBytes": "1472"
      },
      "t_array(t_uint256)49_storage": {
        "base": "t_uint256",
        "encoding": "inplace",
        "label": "uint256[49]",
        "numberOfBytes": "1568"
      },
      "t_array(t_uint256)50_storage": {
        "base": "t_uint256",
        "encoding": "inplace",
        "label": "uint256[50]",
        "numberOfBytes": "1600"
      },
      "t_array(t_uint256)dyn_storage": {
        "base": "t_uint256",
        "encoding": "dynamic_array",
        "label": "uint256[]",
        "numberOfBytes": "32"
      },
      "t_bool": {
        "encoding": "inplace",
        "label": "bool",
        "numberOfBytes": "1"
      },
      "t_mapping(t_address,t_bool)": {
        "encoding": "mapping",
        "key": "t_address",
        "label": "mapping(address => bool)",
        "numberOfBytes": "32",
        "value": "t_bool"
      },
      "t_mapping(t_address,t_mapping(t_address,t_bool))": {
        "encoding": "mapping",
        "key": "t_address",
        "label": "mapping(address => mapping(address => bool))",
        "numberOfBytes": "32",
        "value": "t_mapping(t_address,t_bool)"
      },
      "t_mapping(t_address,t_mapping(t_uint256,t_uint256))": {
        "encoding": "mapping",
        "key": "t_address",
        "label": "mapping(address => mapping(uint256 => uint256))",
        "numberOfBytes": "32",
        "value": "t_mapping(t_uint256,t_uint256)"
      },
      "t_mapping(t_address,t_uint256)": {
        "encoding": "mapping",
        "key": "t_address",
        "label": "mapping(address => uint256)",
        "numberOfBytes": "32",
        "value": "t_uint256"
      },
      "t_mapping(t_uint256,t_address)": {
        "encoding": "mapping",
        "key": "t_uint256",
        "label": "mapping(uint256 => address)",
        "numberOfBytes": "32",
        "value": "t_address"
      },
      "t_mapping(t_uint256,t_uint256)": {
        "encoding": "mapping",
        "key": "t_uint256",
        "label": "mapping(uint256 => uint256)",
        "numberOfBytes": "32",
        "value": "t_uint256"
      },
      "t_string_storage": {
        "encoding": "bytes",
        "label": "string",
        "numberOfBytes": "32"
      },
      "t_uint256": {
        "encoding": "inplace",
        "label": "uint256",
        "numberOfBytes": "32"
      },
      "t_uint8": {
        "encoding": "inplace",
        "label": "uint8",
        "numberOfBytes": "1"
      }
    }
  }
}