{
  "address": "0xD0d0CF7be1273b9267e1a80c5DE867748FB84B14",
  "abi": [
    {
      "anonymous": false,
      "inputs": [
        {
          "indexed": true,
          "internalType": "address",
          "name": "owner",
          "type": "address"
        },
        {
          "indexed": true,
          "internalType": "address",
          "name": "approved",
          "type": "address"
        },
        {
          "indexed": true,
          "internalType": "uint256",
          "name": "tokenId",
          "type": "uint256"
        }
      ],
      "name": "Approval",
      "type": "event"
    },
    {
      "anonymous": false,
      "inputs": [
        {
          "indexed": true,
          "internalType": "address",
          "name": "owner",
          "type": "address"
        },
        {
          "indexed": true,
          "internalType": "address",
          "name": "operator",
          "type": "address"
        },
        {
          "indexed": false,
          "internalType": "bool",
          "name": "approved",
          "type": "bool"
        }
      ],
      "name": "ApprovalForAll",
      "type": "event"
    },
    {
      "anonymous": false,
      "inputs": [
        {
          "indexed": false,
          "internalType": "uint8",
          "name": "version",
          "type": "uint8"
        }
      ],
      "name": "Initialized",
      "type": "event"
    },
    {
      "anonymous": false,
      "inputs": [
        {
          "indexed": true,
          "internalType": "address",
          "name": "previousOwner",
          "type": "address"
        },
        {
          "indexed": true,
          "internalType": "address",
          "name": "newOwner",
          "type": "address"
        }
      ],
      "name": "OwnershipTransferred",
      "type": "event"
    },
    {
      "anonymous": false,
      "inputs": [
        {
          "indexed": true,
          "internalType": "address",
          "name": "from",
          "type": "address"
        },
        {
          "indexed": true,
          "internalType": "address",
          "name": "to",
          "type": "address"
        },
        {
          "indexed": true,
          "internalType": "uint256",
          "name": "tokenId",
          "type": "uint256"
        }
      ],
      "name": "Transfer",
      "type": "event"
    },
    {
      "inputs": [
        {
          "internalType": "address",
          "name": "to",
          "type": "address"
        },
        {
          "internalType": "uint256",
          "name": "tokenId",
          "type": "uint256"
        }
      ],
      "name": "approve",
      "outputs": [],
      "stateMutability": "nonpayable",
      "type": "function"
    },
    {
      "inputs": [
        {
          "internalType": "address",
          "name": "",
          "type": "address"
        }
      ],
      "name": "authorisedCallers",
      "outputs": [
        {
          "internalType": "bool",
          "name": "",
          "type": "bool"
        }
      ],
      "stateMutability": "view",
      "type": "function"
    },
    {
      "inputs": [
        {
          "internalType": "address",
          "name": "owner",
          "type": "address"
        }
      ],
      "name": "balanceOf",
      "outputs": [
        {
          "internalType": "uint256",
          "name": "",
          "type": "uint256"
        }
      ],
      "stateMutability": "view",
      "type": "function"
    },
    {
      "inputs": [
        {
          "internalType": "uint256[]",
          "name": "_slots",
          "type": "uint256[]"
        },
        {
          "internalType": "uint32[]",
          "name": "_amounts",
          "type": "uint32[]"
        },
        {
          "internalType": "uint256[]",
          "name": "_tokenIds",
          "type": "uint256[]"
        }
      ],
      "name": "batchSetSlot",
      "outputs": [],
      "stateMutability": "nonpayable",
      "type": "function"
    },
    {
      "inputs": [
        {
          "internalType": "bytes",
          "name": "_data",
          "type": "bytes"
        }
      ],
      "name": "batchSetSlot_UfO",
      "outputs": [],
      "stateMutability": "nonpayable",
      "type": "function"
    },
    {
      "inputs": [
        {
          "internalType": "uint256",
          "name": "",
          "type": "uint256"
        }
      ],
      "name": "blobs",
      "outputs": [
        {
          "internalType": "uint256",
          "name": "",
          "type": "uint256"
        }
      ],
      "stateMutability": "view",
      "type": "function"
    },
    {
      "inputs": [
        {
          "internalType": "uint256",
          "name": "_tokenId",
          "type": "uint256"
        }
      ],
      "name": "burn",
      "outputs": [],
      "stateMutability": "nonpayable",
      "type": "function"
    },
    {
      "inputs": [
        {
          "internalType": "uint256",
          "name": "",
          "type": "uint256"
        }
      ],
      "name": "burnNonces",
      "outputs": [
        {
          "internalType": "uint256",
          "name": "",
          "type": "uint256"
        }
      ],
      "stateMutability": "view",
      "type": "function"
    },
    {
      "inputs": [
        {
          "internalType": "uint256",
          "name": "_tokenId",
          "type": "uint256"
        },
        {
          "internalType": "uint256",
          "name": "_nonce",
          "type": "uint256"
        },
        {
          "internalType": "bytes",
          "name": "_signature",
          "type": "bytes"
        }
      ],
      "name": "burnWithSignature",
      "outputs": [],
      "stateMutability": "nonpayable",
      "type": "function"
    },
    {
      "inputs": [],
      "name": "counter",
      "outputs": [
        {
          "internalType": "uint256",
          "name": "",
          "type": "uint256"
        }
      ],
      "stateMutability": "view",
      "type": "function"
    },
    {
      "inputs": [
        {
          "internalType": "uint8",
          "name": "_slot",
          "type": "uint8"
        },
        {
          "internalType": "uint256",
          "name": "_amount",
          "type": "uint256"
        },
        {
          "internalType": "uint256",
          "name": "_tokenId",
          "type": "uint256"
        }
      ],
      "name": "decSlot",
      "outputs": [],
      "stateMutability": "nonpayable",
      "type": "function"
    },
    {
      "inputs": [
        {
          "internalType": "uint256",
          "name": "tokenId",
          "type": "uint256"
        }
      ],
      "name": "getApproved",
      "outputs": [
        {
          "internalType": "address",
          "name": "",
          "type": "address"
        }
      ],
      "stateMutability": "view",
      "type": "function"
    },
    {
      "inputs": [
        {
          "internalType": "uint8",
          "name": "_slot",
          "type": "uint8"
        },
        {
          "internalType": "uint256",
          "name": "_tokenId",
          "type": "uint256"
        }
      ],
      "name": "getSlot",
      "outputs": [
        {
          "internalType": "uint256",
          "name": "value",
          "type": "uint256"
        }
      ],
      "stateMutability": "view",
      "type": "function"
    },
    {
      "inputs": [
        {
          "internalType": "uint8",
          "name": "_slot",
          "type": "uint8"
        },
        {
          "internalType": "uint256",
          "name": "_amount",
          "type": "uint256"
        },
        {
          "internalType": "uint256",
          "name": "_tokenId",
          "type": "uint256"
        }
      ],
      "name": "incSlot",
      "outputs": [],
      "stateMutability": "nonpayable",
      "type": "function"
    },
    {
      "inputs": [
        {
          "internalType": "string",
          "name": "__name",
          "type": "string"
        },
        {
          "internalType": "string",
          "name": "__symbol",
          "type": "string"
        },
        {
          "internalType": "address",
          "name": "_signer",
          "type": "address"
        }
      ],
      "name": "initialize",
      "outputs": [],
      "stateMutability": "nonpayable",
      "type": "function"
    },
    {
      "inputs": [],
      "name": "initiated",
      "outputs": [
        {
          "internalType": "bool",
          "name": "",
          "type": "bool"
        }
      ],
      "stateMutability": "view",
      "type": "function"
    },
    {
      "inputs": [
        {
          "internalType": "address",
          "name": "owner",
          "type": "address"
        },
        {
          "internalType": "address",
          "name": "operator",
          "type": "address"
        }
      ],
      "name": "isApprovedForAll",
      "outputs": [
        {
          "internalType": "bool",
          "name": "",
          "type": "bool"
        }
      ],
      "stateMutability": "view",
      "type": "function"
    },
    {
      "inputs": [],
      "name": "mint",
      "outputs": [],
      "stateMutability": "nonpayable",
      "type": "function"
    },
    {
      "inputs": [
        {
          "internalType": "address",
          "name": "",
          "type": "address"
        }
      ],
      "name": "mintNonces",
      "outputs": [
        {
          "internalType": "uint256",
          "name": "",
          "type": "uint256"
        }
      ],
      "stateMutability": "view",
      "type": "function"
    },
    {
      "inputs": [
        {
          "internalType": "uint256",
          "name": "_nonce",
          "type": "uint256"
        },
        {
          "internalType": "bytes",
          "name": "_signature",
          "type": "bytes"
        }
      ],
      "name": "mintWithSignature",
      "outputs": [],
      "stateMutability": "nonpayable",
      "type": "function"
    },
    {
      "inputs": [],
      "name": "name",
      "outputs": [
        {
          "internalType": "string",
          "name": "",
          "type": "string"
        }
      ],
      "stateMutability": "view",
      "type": "function"
    },
    {
      "inputs": [
        {
          "internalType": "address",
          "name": "_from",
          "type": "address"
        },
        {
          "internalType": "address",
          "name": "_to",
          "type": "address"
        },
        {
          "internalType": "uint256",
          "name": "_tokenId",
          "type": "uint256"
        }
      ],
      "name": "overrideTransfer",
      "outputs": [],
      "stateMutability": "nonpayable",
      "type": "function"
    },
    {
      "inputs": [
        {
          "internalType": "address",
          "name": "_from",
          "type": "address"
        },
        {
          "internalType": "address",
          "name": "_to",
          "type": "address"
        },
        {
          "internalType": "uint256",
          "name": "_tokenId",
          "type": "uint256"
        },
        {
          "internalType": "uint256",
          "name": "_nonce",
          "type": "uint256"
        },
        {
          "internalType": "bytes",
          "name": "_signature",
          "type": "bytes"
        }
      ],
      "name": "overrideTransferWithSignature",
      "outputs": [],
      "stateMutability": "nonpayable",
      "type": "function"
    },
    {
      "inputs": [],
      "name": "owner",
      "outputs": [
        {
          "internalType": "address",
          "name": "",
          "type": "address"
        }
      ],
      "stateMutability": "view",
      "type": "function"
    },
    {
      "inputs": [
        {
          "internalType": "uint256",
          "name": "tokenId",
          "type": "uint256"
        }
      ],
      "name": "ownerOf",
      "outputs": [
        {
          "internalType": "address",
          "name": "",
          "type": "address"
        }
      ],
      "stateMutability": "view",
      "type": "function"
    },
    {
      "inputs": [],
      "name": "renounceOwnership",
      "outputs": [],
      "stateMutability": "nonpayable",
      "type": "function"
    },
    {
      "inputs": [
        {
          "internalType": "address",
          "name": "from",
          "type": "address"
        },
        {
          "internalType": "address",
          "name": "to",
          "type": "address"
        },
        {
          "internalType": "uint256",
          "name": "tokenId",
          "type": "uint256"
        }
      ],
      "name": "safeTransferFrom",
      "outputs": [],
      "stateMutability": "nonpayable",
      "type": "function"
    },
    {
      "inputs": [
        {
          "internalType": "address",
          "name": "from",
          "type": "address"
        },
        {
          "internalType": "address",
          "name": "to",
          "type": "address"
        },
        {
          "internalType": "uint256",
          "name": "tokenId",
          "type": "uint256"
        },
        {
          "internalType": "bytes",
          "name": "_data",
          "type": "bytes"
        }
      ],
      "name": "safeTransferFrom",
      "outputs": [],
      "stateMutability": "nonpayable",
      "type": "function"
    },
    {
      "inputs": [
        {
          "internalType": "address",
          "name": "operator",
          "type": "address"
        },
        {
          "internalType": "bool",
          "name": "approved",
          "type": "bool"
        }
      ],
      "name": "setApprovalForAll",
      "outputs": [],
      "stateMutability": "nonpayable",
      "type": "function"
    },
    {
      "inputs": [
        {
          "internalType": "string",
          "name": "_newBaseURI",
          "type": "string"
        }
      ],
      "name": "setBaseURI",
      "outputs": [],
      "stateMutability": "nonpayable",
      "type": "function"
    },
    {
      "inputs": [
        {
          "internalType": "address",
          "name": "_caller",
          "type": "address"
        },
        {
          "internalType": "bool",
          "name": "_val",
          "type": "bool"
        }
      ],
      "name": "setCallers",
      "outputs": [],
      "stateMutability": "nonpayable",
      "type": "function"
    },
    {
      "inputs": [
        {
          "internalType": "address",
          "name": "_signer",
          "type": "address"
        }
      ],
      "name": "setSigner",
      "outputs": [],
      "stateMutability": "nonpayable",
      "type": "function"
    },
    {
      "inputs": [
        {
          "internalType": "uint256",
          "name": "_slot",
          "type": "uint256"
        },
        {
          "internalType": "uint32",
          "name": "_amount",
          "type": "uint32"
        },
        {
          "internalType": "uint256",
          "name": "_tokenId",
          "type": "uint256"
        }
      ],
      "name": "setSlot",
      "outputs": [],
      "stateMutability": "nonpayable",
      "type": "function"
    },
    {
      "inputs": [],
      "name": "signer",
      "outputs": [
        {
          "internalType": "address",
          "name": "",
          "type": "address"
        }
      ],
      "stateMutability": "view",
      "type": "function"
    },
    {
      "inputs": [
        {
          "internalType": "bytes4",
          "name": "interfaceId",
          "type": "bytes4"
        }
      ],
      "name": "supportsInterface",
      "outputs": [
        {
          "internalType": "bool",
          "name": "",
          "type": "bool"
        }
      ],
      "stateMutability": "view",
      "type": "function"
    },
    {
      "inputs": [],
      "name": "symbol",
      "outputs": [
        {
          "internalType": "string",
          "name": "",
          "type": "string"
        }
      ],
      "stateMutability": "view",
      "type": "function"
    },
    {
      "inputs": [
        {
          "internalType": "uint256",
          "name": "",
          "type": "uint256"
        }
      ],
      "name": "syncNonces",
      "outputs": [
        {
          "internalType": "uint256",
          "name": "",
          "type": "uint256"
        }
      ],
      "stateMutability": "view",
      "type": "function"
    },
    {
      "inputs": [
        {
          "internalType": "uint256",
          "name": "_data",
          "type": "uint256"
        },
        {
          "internalType": "uint256",
          "name": "_tokenId",
          "type": "uint256"
        },
        {
          "internalType": "uint256",
          "name": "_nonce",
          "type": "uint256"
        },
        {
          "internalType": "bytes",
          "name": "_signature",
          "type": "bytes"
        }
      ],
      "name": "syncWithSignature",
      "outputs": [],
      "stateMutability": "nonpayable",
      "type": "function"
    },
    {
      "inputs": [
        {
          "internalType": "uint256",
          "name": "index",
          "type": "uint256"
        }
      ],
      "name": "tokenByIndex",
      "outputs": [
        {
          "internalType": "uint256",
          "name": "",
          "type": "uint256"
        }
      ],
      "stateMutability": "view",
      "type": "function"
    },
    {
      "inputs": [
        {
          "internalType": "address",
          "name": "owner",
          "type": "address"
        },
        {
          "internalType": "uint256",
          "name": "index",
          "type": "uint256"
        }
      ],
      "name": "tokenOfOwnerByIndex",
      "outputs": [
        {
          "internalType": "uint256",
          "name": "",
          "type": "uint256"
        }
      ],
      "stateMutability": "view",
      "type": "function"
    },
    {
      "inputs": [
        {
          "internalType": "uint256",
          "name": "tokenId",
          "type": "uint256"
        }
      ],
      "name": "tokenURI",
      "outputs": [
        {
          "internalType": "string",
          "name": "",
          "type": "string"
        }
      ],
      "stateMutability": "view",
      "type": "function"
    },
    {
      "inputs": [],
      "name": "totalSupply",
      "outputs": [
        {
          "internalType": "uint256",
          "name": "",
          "type": "uint256"
        }
      ],
      "stateMutability": "view",
      "type": "function"
    },
    {
      "inputs": [
        {
          "internalType": "address",
          "name": "from",
          "type": "address"
        },
        {
          "internalType": "address",
          "name": "to",
          "type": "address"
        },
        {
          "internalType": "uint256",
          "name": "tokenId",
          "type": "uint256"
        }
      ],
      "name": "transferFrom",
      "outputs": [],
      "stateMutability": "nonpayable",
      "type": "function"
    },
    {
      "inputs": [
        {
          "internalType": "uint256",
          "name": "",
          "type": "uint256"
        }
      ],
      "name": "transferNonces",
      "outputs": [
        {
          "internalType": "uint256",
          "name": "",
          "type": "uint256"
        }
      ],
      "stateMutability": "view",
      "type": "function"
    },
    {
      "inputs": [
        {
          "internalType": "address",
          "name": "newOwner",
          "type": "address"
        }
      ],
      "name": "transferOwnership",
      "outputs": [],
      "stateMutability": "nonpayable",
      "type": "function"
    }
  ],
  "transactionHash": "0x6ef13a15a8a06b236de7811ef35924113961418ac9d3e7cc0b0eac5ba7745a42",
  "args": [],
  "numDeployments": 1,
  "solcInputHash": "5fd9f2fbd550a9393b407fd862d4f875",
  "bytecode": "0x608060405234801561001057600080fd5b50612d11806100206000396000f3fe608060405234801561001057600080fd5b506004361061020c5760003560e01c8061c2fc146102115780628ffa061461022657806301ffc9a71461023957806306fdde0314610261578063077f224a14610276578063081812fc14610289578063095ea7b3146102b45780631249c58b146102c757806318160ddd146102cf57806318badae8146102e1578063238ac933146102f457806323b872dd146103075780632abc3d4e146103155780632f745c59146103365780633007daae1461034957806342842e0e1461030757806342966c681461035c5780634eac19f81461036f5780634f6ccce71461038257806355f804b31461039557806361bc221a146103a85780636352211e146103b25780636562f5f7146103c55780636c19e783146103d857806370a08231146103eb578063715018a6146103fe5780637a0f4de2146104065780637c772c67146104265780637ead60a6146104475780638da5cb5b1461045a578063944fd180146104625780639540bce81461048557806395d89b41146104a65780639763d626146104ae5780639e759355146104c15780639f118536146104d4578063a22cb465146104e1578063ae347105146104ef578063b88d4fde14610502578063c87b56dd14610510578063cde4a8fc14610523578063d3f94a8714610536578063e985e9c514610557578063f2fde38b14610593578063fc68c689146105a6575b600080fd5b61022461021f36600461271f565b6105b9565b005b610224610234366004612664565b610689565b61024c6102473660046126e7565b610843565b60405190151581526020015b60405180910390f35b610269610870565b60405161025891906129f3565b610224610284366004612751565b610902565b61029c6102973660046127c1565b610a47565b6040516001600160a01b039091168152602001610258565b6102246102c236600461263b565b610a6e565b610224610a9f565b60cb545b604051908152602001610258565b6102246102ef3660046124ec565b610ad2565b60fd5461029c906001600160a01b031681565b6102246102c23660046124ec565b6102d36103233660046127c1565b6101046020526000908152604090205481565b6102d361034436600461263b565b610b2f565b6102d361035736600461290e565b610bc5565b61022461036a3660046127c1565b610bfb565b61022461037d366004612929565b610c34565b6102d36103903660046127c1565b610cec565b6102246103a336600461271f565b610d8d565b6102d36101035481565b61029c6103c03660046127c1565b610dac565b6102246103d3366004612601565b610de0565b6102246103e63660046124a0565b610e13565b6102d36103f93660046124a0565b610e3d565b610224610ec3565b6102d36104143660046127c1565b60ff6020526000908152604090205481565b6102d36104343660046127c1565b6101006020526000908152604090205481565b61022461045536600461258c565b610ed5565b61029c611018565b61024c6104703660046124a0565b60fe6020526000908152604090205460ff1681565b6102d36104933660046124a0565b6101026020526000908152604090205481565b610269611027565b6102246104bc3660046127d9565b611036565b6102246104cf366004612929565b611126565b60fb5461024c9060ff1681565b6102246102c2366004612601565b6102246104fd366004612872565b6111d0565b6102246102c2366004612527565b61026961051e3660046127c1565b6112c0565b6102246105313660046128d0565b611327565b6102d36105443660046127c1565b6101016020526000908152604090205481565b61024c6105653660046124ba565b6001600160a01b039182166000908152609c6020908152604080832093909416825291909152205460ff1690565b6102246105a13660046124a0565b61139e565b6102246105b4366004612822565b611414565b33600081815260fe602052604090205460ff16806105ef57506105da611018565b6001600160a01b0316816001600160a01b0316145b6105f857600080fd5b6000600883516106089190612bc0565b602084015190915060f81c600080805b8481101561068057600881026021018088015160e01c93506004810188015160e01c92505061066e848484600090815261010460205260409020805463ffffffff80851b1990911692811690931b909216179055565b8061067881612c5e565b915050610618565b50505050505050565b33600081815260fe602052604090205460ff16806106bf57506106aa611018565b6001600160a01b0316816001600160a01b0316145b6106c857600080fd5b60005b868110156108395760088888838181106106f557634e487b7160e01b600052603260045260246000fd5b905060200201351061070657600080fd5b6000610104600086868581811061072d57634e487b7160e01b600052603260045260246000fd5b905060200201358152602001908152602001600020549050600089898481811061076757634e487b7160e01b600052603260045260246000fd5b9050602002013563ffffffff901b19905089898481811061079857634e487b7160e01b600052603260045260246000fd5b905060200201358888858181106107bf57634e487b7160e01b600052603260045260246000fd5b90506020020160208101906107d491906128f4565b63ffffffff16901b63ffffffff1681831617610104600088888781811061080b57634e487b7160e01b600052603260045260246000fd5b905060200201358152602001908152602001600020819055505050808061083190612c5e565b9150506106cb565b5050505050505050565b60006001600160e01b0319821663780e9d6360e01b1480610868575061086882611501565b90505b919050565b60606097805461087f90612c23565b80601f01602080910402602001604051908101604052809291908181526020018280546108ab90612c23565b80156108f85780601f106108cd576101008083540402835291602001916108f8565b820191906000526020600020905b8154815290600101906020018083116108db57829003601f168201915b5050505050905090565b600054610100900460ff16158080156109225750600054600160ff909116105b80610943575061093130611551565b158015610943575060005460ff166001145b6109ab5760405162461bcd60e51b815260206004820152602e60248201527f496e697469616c697a61626c653a20636f6e747261637420697320616c72656160448201526d191e481a5b9a5d1a585b1a5e995960921b60648201526084015b60405180910390fd5b6000805460ff1916600117905580156109ce576000805461ff0019166101001790555b6109d6611560565b6109e0848461158f565b60fd80546001600160a01b0319166001600160a01b0384161790558015610a41576000805461ff0019169055604051600181527f7f26b83ff96e1f2b6a682f133852f6798a09c465da95921460cefb38474024989060200160405180910390a15b50505050565b6000610a52826115c0565b506000908152609b60205260409020546001600160a01b031690565b60405162461bcd60e51b81526004016109a2906020808252600490820152636e6f706560e01b604082015260600190565b610aa833610e3d565b15610ab257600080fd5b610ad03361010360008154610ac690612c5e565b91829055506115e5565b565b33600081815260fe602052604090205460ff1680610b085750610af3611018565b6001600160a01b0316816001600160a01b0316145b610b1157600080fd5b610b1a83610e3d565b15610b2457600080fd5b610a418484846115ff565b6000610b3a83610e3d565b8210610b9c5760405162461bcd60e51b815260206004820152602b60248201527f455243373231456e756d657261626c653a206f776e657220696e646578206f7560448201526a74206f6620626f756e647360a81b60648201526084016109a2565b506001600160a01b0391909116600090815260c960209081526040808320938352929052205490565b600060088360ff1610610bd757600080fd5b506000908152610104602052604090205463ffffffff60ff90921691821b16901c90565b33610c0582610dac565b6001600160a01b031614610c1857600080fd5b60008181526101046020526040812055610c318161175e565b50565b33600081815260fe602052604090205460ff1680610c6a5750610c55611018565b6001600160a01b0316816001600160a01b0316145b610c7357600080fd5b60088460ff1610610c8357600080fd5b6000610c8f8584610bc5565b905083811015610cb15760405162461bcd60e51b81526004016109a290612b2c565b60008381526101046020526040902054610cd160ff871686901b82612be0565b60009485526101046020526040909420939093555050505050565b6000610cf760cb5490565b8210610d5a5760405162461bcd60e51b815260206004820152602c60248201527f455243373231456e756d657261626c653a20676c6f62616c20696e646578206f60448201526b7574206f6620626f756e647360a01b60648201526084016109a2565b60cb8281548110610d7b57634e487b7160e01b600052603260045260246000fd5b90600052602060002001549050919050565b610d956117f0565b8051610da89060fc9060208401906122c5565b5050565b600080610db88361184f565b90506001600160a01b0381166108685760405162461bcd60e51b81526004016109a290612afa565b610de86117f0565b6001600160a01b0391909116600090815260fe60205260409020805460ff1916911515919091179055565b610e1b6117f0565b60fd80546001600160a01b0319166001600160a01b0392909216919091179055565b60006001600160a01b038216610ea75760405162461bcd60e51b815260206004820152602960248201527f4552433732313a2061646472657373207a65726f206973206e6f7420612076616044820152683634b21037bbb732b960b91b60648201526084016109a2565b506001600160a01b03166000908152609a602052604090205490565b610ecb6117f0565b610ad0600061186a565b33610edf85610dac565b6001600160a01b031614610ef257600080fd5b610efb85610e3d565b15610f0557600080fd5b600084815260ff6020526040812080548592909190610f2383612c5e565b9190505514610f3157600080fd5b60fd54604080516020601f85018190048102820181019092528381526001600160a01b0390921691610fdf9185908590819084018382808284376000920191909152505060408051602081018b9052908101899052610fd9925060600190505b604051602081830303815290604052805190602001207b0ca2ba3432b932bab69029b4b3b732b21026b2b9b9b0b3b29d05199960211b6000908152601c91909152603c902090565b906118bc565b6001600160a01b0316146110055760405162461bcd60e51b81526004016109a290612ad3565b6110108686866115ff565b505050505050565b6033546001600160a01b031690565b60606098805461087f90612c23565b61103f33610e3d565b1561104957600080fd5b336000908152610102602052604081208054859290919061106983612c5e565b919050551461107757600080fd5b60fd54604080516020601f85018190048102820181019092528381526001600160a01b03909216916110e7918590859081908401838280828437600092019190915250506040516001600160601b03193360601b16602082015260348101899052610fd992506054019050610f91565b6001600160a01b03161461110d5760405162461bcd60e51b81526004016109a290612ad3565b6111213361010360008154610ac690612c5e565b505050565b33600081815260fe602052604090205460ff168061115c5750611147611018565b6001600160a01b0316816001600160a01b0316145b61116557600080fd5b60088460ff161061117557600080fd5b60006111818584610bc5565b905063ffffffff6111928583612ba8565b11156111b05760405162461bcd60e51b81526004016109a290612b2c565b60008381526101046020526040902054610cd160ff871686901b82612ba8565b336111da85610dac565b6001600160a01b0316146111ed57600080fd5b6000838152610100602052604081208054859290919061120c83612c5e565b919050551461121a57600080fd5b60fd54604080516020601f85018190048102820181019092528381526001600160a01b03909216916112859185908590819084018382808284376000920191909152505060408051602081018b9052908101899052606081018b9052610fd992506080019050610f91565b6001600160a01b0316146112ab5760405162461bcd60e51b81526004016109a290612ad3565b50505060009081526101046020526040902055565b60606112cb826115c0565b60006112d56118e0565b905060008151116112f55760405180602001604052806000815250611320565b806112ff846118ef565b604051602001611310929190612987565b6040516020818303038152906040525b9392505050565b33600081815260fe602052604090205460ff168061135d5750611348611018565b6001600160a01b0316816001600160a01b0316145b61136657600080fd5b6008841061137357600080fd5b50600090815261010460205260409020805463ffffffff928316841b83169290931b19909216179055565b6113a66117f0565b6001600160a01b03811661140b5760405162461bcd60e51b815260206004820152602660248201527f4f776e61626c653a206e6577206f776e657220697320746865207a65726f206160448201526564647265737360d01b60648201526084016109a2565b610c318161186a565b3361141e85610dac565b6001600160a01b03161461143157600080fd5b6000848152610101602052604081208054859290919061145083612c5e565b919050551461145e57600080fd5b60fd54604080516020601f85018190048102820181019092528381526001600160a01b03909216916114c29185908590819084018382808284376000920191909152505060408051602081018b9052908101899052610fd992506060019050610f91565b6001600160a01b0316146114e85760405162461bcd60e51b81526004016109a290612ad3565b60008481526101046020526040812055610a418461175e565b60006001600160e01b031982166380ac58cd60e01b148061153257506001600160e01b03198216635b5e139f60e01b145b8061086857506301ffc9a760e01b6001600160e01b0319831614610868565b6001600160a01b03163b151590565b600054610100900460ff166115875760405162461bcd60e51b81526004016109a290612b5d565b610ad0611991565b600054610100900460ff166115b65760405162461bcd60e51b81526004016109a290612b5d565b610da882826119c1565b6115c981611a0f565b610c315760405162461bcd60e51b81526004016109a290612afa565b610da8828260405180602001604052806000815250611a2c565b826001600160a01b031661161282610dac565b6001600160a01b0316146116385760405162461bcd60e51b81526004016109a290612a58565b6001600160a01b03821661169a5760405162461bcd60e51b8152602060048201526024808201527f4552433732313a207472616e7366657220746f20746865207a65726f206164646044820152637265737360e01b60648201526084016109a2565b6116a78383836001611a5f565b826001600160a01b03166116ba82610dac565b6001600160a01b0316146116e05760405162461bcd60e51b81526004016109a290612a58565b6000818152609b6020908152604080832080546001600160a01b03199081169091556001600160a01b03878116808652609a855283862080546000190190559087168086528386208054600101905586865260999094528285208054909216841790915590518493600080516020612cbc83398151915291a4611121565b600061176982610dac565b9050611779816000846001611a5f565b61178282610dac565b6000838152609b6020908152604080832080546001600160a01b03199081169091556001600160a01b038516808552609a84528285208054600019019055878552609990935281842080549091169055519293508492600080516020612cbc833981519152908390a4610da8565b336117f9611018565b6001600160a01b031614610ad05760405162461bcd60e51b815260206004820181905260248201527f4f776e61626c653a2063616c6c6572206973206e6f7420746865206f776e657260448201526064016109a2565b6000908152609960205260409020546001600160a01b031690565b603380546001600160a01b038381166001600160a01b0319831681179093556040519116919082907f8be0079c531659141344cd1fd0a4f28419497f9722a3daafe3b4186f6b6457e090600090a35050565b60008060006118cb8585611b93565b915091506118d881611bd9565b509392505050565b606060fc805461087f90612c23565b606060006118fc83611d5c565b60010190506000816001600160401b0381111561192957634e487b7160e01b600052604160045260246000fd5b6040519080825280601f01601f191660200182016040528015611953576020820181803683370190505b5090508181016020015b600019016f181899199a1a9b1b9c1cb0b131b232b360811b600a86061a8153600a850494508461198c576118d8565b61195d565b600054610100900460ff166119b85760405162461bcd60e51b81526004016109a290612b5d565b610ad03361186a565b600054610100900460ff166119e85760405162461bcd60e51b81526004016109a290612b5d565b81516119fb9060979060208501906122c5565b5080516111219060989060208401906122c5565b600080611a1b8361184f565b6001600160a01b0316141592915050565b611a368383611e32565b611a436000848484611f3c565b6111215760405162461bcd60e51b81526004016109a290612a06565b6001811115611ace5760405162461bcd60e51b815260206004820152603560248201527f455243373231456e756d657261626c653a20636f6e7365637574697665207472604482015274185b9cd9995c9cc81b9bdd081cdd5c1c1bdc9d1959605a1b60648201526084016109a2565b816001600160a01b038516611b2a57611b258160cb8054600083815260cc60205260408120829055600182018355919091527fa7ce836d032b2bf62b7e2097a8e0a6d8aeb35405ad15271e96d3b0188a1d06fb0155565b611b4d565b836001600160a01b0316856001600160a01b031614611b4d57611b4d8582612051565b6001600160a01b038416611b6957611b64816120ee565b611b8c565b846001600160a01b0316846001600160a01b031614611b8c57611b8c84826121c7565b5050505050565b600080825160411415611bca5760208301516040840151606085015160001a611bbe8782858561220b565b94509450505050611bd2565b506000905060025b9250929050565b6000816004811115611bfb57634e487b7160e01b600052602160045260246000fd5b1415611c0657610c31565b6001816004811115611c2857634e487b7160e01b600052602160045260246000fd5b1415611c715760405162461bcd60e51b815260206004820152601860248201527745434453413a20696e76616c6964207369676e617475726560401b60448201526064016109a2565b6002816004811115611c9357634e487b7160e01b600052602160045260246000fd5b1415611ce15760405162461bcd60e51b815260206004820152601f60248201527f45434453413a20696e76616c6964207369676e6174757265206c656e6774680060448201526064016109a2565b6003816004811115611d0357634e487b7160e01b600052602160045260246000fd5b1415610c315760405162461bcd60e51b815260206004820152602260248201527f45434453413a20696e76616c6964207369676e6174757265202773272076616c604482015261756560f01b60648201526084016109a2565b60008072184f03e93ff9f4daa797ed6e38ed64bf6a1f0160401b8310611d9b5772184f03e93ff9f4daa797ed6e38ed64bf6a1f0160401b830492506040015b6904ee2d6d415b85acef8160201b8310611dc5576904ee2d6d415b85acef8160201b830492506020015b662386f26fc100008310611de357662386f26fc10000830492506010015b6305f5e1008310611dfb576305f5e100830492506008015b6127108310611e0f57612710830492506004015b60648310611e21576064830492506002015b600a83106108685760010192915050565b6001600160a01b038216611e885760405162461bcd60e51b815260206004820181905260248201527f4552433732313a206d696e7420746f20746865207a65726f206164647265737360448201526064016109a2565b611e9181611a0f565b15611eae5760405162461bcd60e51b81526004016109a290612a9d565b611ebc600083836001611a5f565b611ec581611a0f565b15611ee25760405162461bcd60e51b81526004016109a290612a9d565b6001600160a01b0382166000818152609a6020908152604080832080546001019055848352609990915280822080546001600160a01b031916841790555183929190600080516020612cbc833981519152908290a4610da8565b6000611f50846001600160a01b0316611551565b1561204557604051630a85bd0160e11b81526001600160a01b0385169063150b7a0290611f879033908990889088906004016129b6565b602060405180830381600087803b158015611fa157600080fd5b505af1925050508015611fd1575060408051601f3d908101601f19168201909252611fce91810190612703565b60015b61202b573d808015611fff576040519150601f19603f3d011682016040523d82523d6000602084013e612004565b606091505b5080516120235760405162461bcd60e51b81526004016109a290612a06565b805181602001fd5b6001600160e01b031916630a85bd0160e11b149050612049565b5060015b949350505050565b6000600161205e84610e3d565b6120689190612be0565b600083815260ca60205260409020549091508082146120bb576001600160a01b038416600090815260c960209081526040808320858452825280832054848452818420819055835260ca90915290208190555b50600091825260ca602090815260408084208490556001600160a01b03909416835260c981528383209183525290812055565b60cb5460009061210090600190612be0565b600083815260cc602052604081205460cb805493945090928490811061213657634e487b7160e01b600052603260045260246000fd5b906000526020600020015490508060cb838154811061216557634e487b7160e01b600052603260045260246000fd5b600091825260208083209091019290925582815260cc909152604080822084905585825281205560cb8054806121ab57634e487b7160e01b600052603160045260246000fd5b6001900381819060005260206000200160009055905550505050565b60006121d283610e3d565b6001600160a01b03909316600090815260c960209081526040808320868452825280832085905593825260ca9052919091209190915550565b6000806fa2a8918ca85bafe22016d0b997e4df60600160ff1b0383111561223857506000905060036122bc565b6040805160008082526020820180845289905260ff881692820192909252606081018690526080810185905260019060a0016020604051602081039080840390855afa15801561228c573d6000803e3d6000fd5b5050604051601f1901519150506001600160a01b0381166122b5576000600192509250506122bc565b9150600090505b94509492505050565b8280546122d190612c23565b90600052602060002090601f0160209004810192826122f35760008555612339565b82601f1061230c57805160ff1916838001178555612339565b82800160010185558215612339579182015b8281111561233957825182559160200191906001019061231e565b50612345929150612349565b5090565b5b80821115612345576000815560010161234a565b80356001600160a01b038116811461086b57600080fd5b60008083601f840112612386578081fd5b5081356001600160401b0381111561239c578182fd5b6020830191508360208083028501011115611bd257600080fd5b60008083601f8401126123c7578182fd5b5081356001600160401b038111156123dd578182fd5b602083019150836020828501011115611bd257600080fd5b600082601f830112612405578081fd5b81356001600160401b038082111561241f5761241f612c8f565b604051601f8301601f19908116603f0116810190828211818310171561244757612447612c8f565b8160405283815286602085880101111561245f578485fd5b8360208701602083013792830160200193909352509392505050565b803563ffffffff8116811461086b57600080fd5b803560ff8116811461086b57600080fd5b6000602082840312156124b1578081fd5b6113208261235e565b600080604083850312156124cc578081fd5b6124d58361235e565b91506124e36020840161235e565b90509250929050565b600080600060608486031215612500578081fd5b6125098461235e565b92506125176020850161235e565b9150604084013590509250925092565b6000806000806080858703121561253c578081fd5b6125458561235e565b93506125536020860161235e565b92506040850135915060608501356001600160401b03811115612574578182fd5b612580878288016123f5565b91505092959194509250565b60008060008060008060a087890312156125a4578182fd5b6125ad8761235e565b95506125bb6020880161235e565b9450604087013593506060870135925060808701356001600160401b038111156125e3578283fd5b6125ef89828a016123b6565b979a9699509497509295939492505050565b60008060408385031215612613578182fd5b61261c8361235e565b915060208301358015158114612630578182fd5b809150509250929050565b6000806040838503121561264d578182fd5b6126568361235e565b946020939093013593505050565b6000806000806000806060878903121561267c578182fd5b86356001600160401b0380821115612692578384fd5b61269e8a838b01612375565b909850965060208901359150808211156126b6578384fd5b6126c28a838b01612375565b909650945060408901359150808211156126da578384fd5b506125ef89828a01612375565b6000602082840312156126f8578081fd5b813561132081612ca5565b600060208284031215612714578081fd5b815161132081612ca5565b600060208284031215612730578081fd5b81356001600160401b03811115612745578182fd5b612049848285016123f5565b600080600060608486031215612765578081fd5b83356001600160401b038082111561277b578283fd5b612787878388016123f5565b9450602086013591508082111561279c578283fd5b506127a9868287016123f5565b9250506127b86040850161235e565b90509250925092565b6000602082840312156127d2578081fd5b5035919050565b6000806000604084860312156127ed578081fd5b8335925060208401356001600160401b03811115612809578182fd5b612815868287016123b6565b9497909650939450505050565b60008060008060608587031215612837578182fd5b843593506020850135925060408501356001600160401b0381111561285a578283fd5b612866878288016123b6565b95989497509550505050565b600080600080600060808688031215612889578283fd5b85359450602086013593506040860135925060608601356001600160401b038111156128b3578182fd5b6128bf888289016123b6565b969995985093965092949392505050565b6000806000606084860312156128e4578081fd5b833592506125176020850161247b565b600060208284031215612905578081fd5b6113208261247b565b60008060408385031215612920578182fd5b6126568361248f565b60008060006060848603121561293d578081fd5b6129468461248f565b95602085013595506040909401359392505050565b60008151808452612973816020860160208601612bf7565b601f01601f19169290920160200192915050565b60008351612999818460208801612bf7565b8351908301906129ad818360208801612bf7565b01949350505050565b6001600160a01b03858116825284166020820152604081018390526080606082018190526000906129e99083018461295b565b9695505050505050565b600060208252611320602083018461295b565b60208082526032908201527f4552433732313a207472616e7366657220746f206e6f6e20455243373231526560408201527131b2b4bb32b91034b6b83632b6b2b73a32b960711b606082015260800190565b60208082526025908201527f4552433732313a207472616e736665722066726f6d20696e636f72726563742060408201526437bbb732b960d91b606082015260800190565b6020808252601c908201527b115490cdcc8c4e881d1bdad95b88185b1c9958591e481b5a5b9d195960221b604082015260600190565b6020808252600d908201526c14da59c81b9bdd081d985b1a59609a1b604082015260600190565b602080825260189082015277115490cdcc8c4e881a5b9d985b1a59081d1bdad95b88125160421b604082015260600190565b602080825260179082015276436f536f756c3a2075696e743332206f766572666c6f7760481b604082015260600190565b6020808252602b908201527f496e697469616c697a61626c653a20636f6e7472616374206973206e6f74206960408201526a6e697469616c697a696e6760a81b606082015260800190565b60008219821115612bbb57612bbb612c79565b500190565b600082612bdb57634e487b7160e01b81526012600452602481fd5b500490565b600082821015612bf257612bf2612c79565b500390565b60005b83811015612c12578181015183820152602001612bfa565b83811115610a415750506000910152565b600281046001821680612c3757607f821691505b60208210811415612c5857634e487b7160e01b600052602260045260246000fd5b50919050565b6000600019821415612c7257612c72612c79565b5060010190565b634e487b7160e01b600052601160045260246000fd5b634e487b7160e01b600052604160045260246000fd5b6001600160e01b031981168114610c3157600080fdfeddf252ad1be2c89b69c2b068fc378daa952ba7f163c4a11628f55a4df523b3efa2646970667358221220e21d08cbd16be47217139de1d71f2e0c2e3ea9744a2fc471dfc1005a246fed2964736f6c63430008020033",
  "devdoc": {
    "kind": "dev",
    "methods": {
      "approve(address,uint256)": {
        "details": "See {IERC721-approve}."
      },
      "balanceOf(address)": {
        "details": "See {IERC721-balanceOf}."
      },
      "batchSetSlot(uint256[],uint32[],uint256[])": {
        "params": {
          "_amounts": "Amout to update",
          "_slots": "Slot value. Up to 7",
          "_tokenIds": "Token ID from which to update the blob data"
        }
      },
      "batchSetSlot_UfO(bytes)": {
        "params": {
          "_data": "bytes data               3 bits for slot | one byte               after previous byte, alternate bewteen next elements like a packed array               4 bytes for each address               4 bytes for each token ID"
        }
      },
      "burn(uint256)": {
        "params": {
          "_tokenId": "Token ID to be burnt (fiiire)"
        }
      },
      "burnWithSignature(uint256,uint256,bytes)": {
        "params": {
          "_nonce": "Burn counter used to prevent replays",
          "_signature": "Signature provided by our signer to validate burn",
          "_tokenId": "Token ID to be burnt (fiiire)"
        }
      },
      "decSlot(uint8,uint256,uint256)": {
        "params": {
          "_amount": "Amout to decrement a slot",
          "_slot": "Slot value. Up to 7",
          "_tokenId": "Token ID from which to update the blob data"
        }
      },
      "getApproved(uint256)": {
        "details": "See {IERC721-getApproved}."
      },
      "getSlot(uint8,uint256)": {
        "params": {
          "_slot": "Slot value. Up to 7",
          "_tokenId": "Token ID from which to get the blob data"
        }
      },
      "incSlot(uint8,uint256,uint256)": {
        "params": {
          "_amount": "Amout to increment a slot",
          "_slot": "Slot value. Up to 7",
          "_tokenId": "Token ID from which to update the blob data"
        }
      },
      "initialize(string,string,address)": {
        "params": {
          "__name": "Name of SBT",
          "__symbol": "Symbol of SBT",
          "_signer": "Address that will provide valid signatures"
        }
      },
      "isApprovedForAll(address,address)": {
        "details": "See {IERC721-isApprovedForAll}."
      },
      "mintWithSignature(uint256,bytes)": {
        "params": {
          "_nonce": "Mint counter used to prevent replays",
          "_signature": "Signature provided by our signer to validate mint"
        }
      },
      "name()": {
        "details": "See {IERC721Metadata-name}."
      },
      "overrideTransfer(address,address,uint256)": {
        "params": {
          "_from": "Previous token owner",
          "_to": "New token owner",
          "_tokenId": "Token to transfer"
        }
      },
      "overrideTransferWithSignature(address,address,uint256,uint256,bytes)": {
        "params": {
          "_from": "Previous token owner",
          "_nonce": "Transfer counter used to prevent replays",
          "_signature": "Signature provided by our signer to validate transfer",
          "_to": "New token owner",
          "_tokenId": "Token to transfer"
        }
      },
      "owner()": {
        "details": "Returns the address of the current owner."
      },
      "ownerOf(uint256)": {
        "details": "See {IERC721-ownerOf}."
      },
      "renounceOwnership()": {
        "details": "Leaves the contract without owner. It will not be possible to call `onlyOwner` functions. Can only be called by the current owner. NOTE: Renouncing ownership will leave the contract without an owner, thereby disabling any functionality that is only available to the owner."
      },
      "safeTransferFrom(address,address,uint256)": {
        "details": "See {IERC721-safeTransferFrom}."
      },
      "setApprovalForAll(address,bool)": {
        "details": "See {IERC721-setApprovalForAll}."
      },
      "setBaseURI(string)": {
        "params": {
          "_newBaseURI": "New baseURI"
        }
      },
      "setCallers(address,bool)": {
        "params": {
          "_caller": "New signer",
          "_val": "Boolean to set/unset"
        }
      },
      "setSigner(address)": {
        "params": {
          "_signer": "New signer"
        }
      },
      "setSlot(uint256,uint32,uint256)": {
        "params": {
          "_amount": "Amout to update",
          "_slot": "Slot value. Up to 7",
          "_tokenId": "Token ID from which to update the blob data"
        }
      },
      "supportsInterface(bytes4)": {
        "details": "See {IERC165-supportsInterface}."
      },
      "symbol()": {
        "details": "See {IERC721Metadata-symbol}."
      },
      "syncWithSignature(uint256,uint256,uint256,bytes)": {
        "params": {
          "_data": "Blob data that will overwrite current data",
          "_nonce": "Sync counter used to prevent replays",
          "_signature": "Signature provided by our signer to validate leaf data",
          "_tokenId": "Token ID from which to update blob"
        }
      },
      "tokenByIndex(uint256)": {
        "details": "See {IERC721Enumerable-tokenByIndex}."
      },
      "tokenOfOwnerByIndex(address,uint256)": {
        "details": "See {IERC721Enumerable-tokenOfOwnerByIndex}."
      },
      "tokenURI(uint256)": {
        "details": "See {IERC721Metadata-tokenURI}."
      },
      "totalSupply()": {
        "details": "See {IERC721Enumerable-totalSupply}."
      },
      "transferFrom(address,address,uint256)": {
        "details": "See {IERC721-transferFrom}."
      },
      "transferOwnership(address)": {
        "details": "Transfers ownership of the contract to a new account (`newOwner`). Can only be called by the current owner."
      }
    },
    "version": 1
  },
  "userdoc": {
    "kind": "user",
    "methods": {
      "batchSetSlot(uint256[],uint32[],uint256[])": {
        "notice": "Function to update the value of a slot in a blob"
      },
      "batchSetSlot_UfO(bytes)": {
        "notice": "Function to update the value of a slot in a blob"
      },
      "burn(uint256)": {
        "notice": "Function to burn token from msg.sender"
      },
      "burnWithSignature(uint256,uint256,bytes)": {
        "notice": "Function to burn token via signature to msg.sender"
      },
      "decSlot(uint8,uint256,uint256)": {
        "notice": "Function to decrement the value of a slot in a blob by some amount"
      },
      "getSlot(uint8,uint256)": {
        "notice": "Getter function to get the value in a specific slot of a given blob"
      },
      "incSlot(uint8,uint256,uint256)": {
        "notice": "Function to increment the value of a slot in a blob by some amount"
      },
      "initialize(string,string,address)": {
        "notice": "Init function called during proxy setup"
      },
      "mint()": {
        "notice": "Function to mint token"
      },
      "mintWithSignature(uint256,bytes)": {
        "notice": "Function to mint token via signature to msg.sender"
      },
      "overrideTransfer(address,address,uint256)": {
        "notice": "Function to transfer token under approval of the protocol. Gated by authorised addresses"
      },
      "overrideTransferWithSignature(address,address,uint256,uint256,bytes)": {
        "notice": "Function to transfer token under approval of the protocol via signature"
      },
      "setBaseURI(string)": {
        "notice": "Set a new baseURI. Owner gated."
      },
      "setCallers(address,bool)": {
        "notice": "Set a addreses capable of updating blob data of SBTs"
      },
      "setSigner(address)": {
        "notice": "Set a new signer. Owner gated"
      },
      "setSlot(uint256,uint32,uint256)": {
        "notice": "Function to update the value of a slot in a blob"
      },
      "syncWithSignature(uint256,uint256,uint256,bytes)": {
        "notice": "Function to sync blob data of a token from a signature signed by our signer"
      }
    },
    "version": 1
  },
  "storageLayout": {
    "storage": [
      {
        "astId": 138,
        "contract": "contracts/coordinape-protocol/contracts/cosoul/CoSoul.sol:CoSoul",
        "label": "_initialized",
        "offset": 0,
        "slot": "0",
        "type": "t_uint8"
      },
      {
        "astId": 141,
        "contract": "contracts/coordinape-protocol/contracts/cosoul/CoSoul.sol:CoSoul",
        "label": "_initializing",
        "offset": 1,
        "slot": "0",
        "type": "t_bool"
      },
      {
        "astId": 2189,
        "contract": "contracts/coordinape-protocol/contracts/cosoul/CoSoul.sol:CoSoul",
        "label": "__gap",
        "offset": 0,
        "slot": "1",
        "type": "t_array(t_uint256)50_storage"
      },
      {
        "astId": 10,
        "contract": "contracts/coordinape-protocol/contracts/cosoul/CoSoul.sol:CoSoul",
        "label": "_owner",
        "offset": 0,
        "slot": "51",
        "type": "t_address"
      },
      {
        "astId": 130,
        "contract": "contracts/coordinape-protocol/contracts/cosoul/CoSoul.sol:CoSoul",
        "label": "__gap",
        "offset": 0,
        "slot": "52",
        "type": "t_array(t_uint256)49_storage"
      },
      {
        "astId": 2828,
        "contract": "contracts/coordinape-protocol/contracts/cosoul/CoSoul.sol:CoSoul",
        "label": "__gap",
        "offset": 0,
        "slot": "101",
        "type": "t_array(t_uint256)50_storage"
      },
      {
        "astId": 329,
        "contract": "contracts/coordinape-protocol/contracts/cosoul/CoSoul.sol:CoSoul",
        "label": "_name",
        "offset": 0,
        "slot": "151",
        "type": "t_string_storage"
      },
      {
        "astId": 331,
        "contract": "contracts/coordinape-protocol/contracts/cosoul/CoSoul.sol:CoSoul",
        "label": "_symbol",
        "offset": 0,
        "slot": "152",
        "type": "t_string_storage"
      },
      {
        "astId": 335,
        "contract": "contracts/coordinape-protocol/contracts/cosoul/CoSoul.sol:CoSoul",
        "label": "_owners",
        "offset": 0,
        "slot": "153",
        "type": "t_mapping(t_uint256,t_address)"
      },
      {
        "astId": 339,
        "contract": "contracts/coordinape-protocol/contracts/cosoul/CoSoul.sol:CoSoul",
        "label": "_balances",
        "offset": 0,
        "slot": "154",
        "type": "t_mapping(t_address,t_uint256)"
      },
      {
        "astId": 343,
        "contract": "contracts/coordinape-protocol/contracts/cosoul/CoSoul.sol:CoSoul",
        "label": "_tokenApprovals",
        "offset": 0,
        "slot": "155",
        "type": "t_mapping(t_uint256,t_address)"
      },
      {
        "astId": 349,
        "contract": "contracts/coordinape-protocol/contracts/cosoul/CoSoul.sol:CoSoul",
        "label": "_operatorApprovals",
        "offset": 0,
        "slot": "156",
        "type": "t_mapping(t_address,t_mapping(t_address,t_bool))"
      },
      {
        "astId": 1251,
        "contract": "contracts/coordinape-protocol/contracts/cosoul/CoSoul.sol:CoSoul",
        "label": "__gap",
        "offset": 0,
        "slot": "157",
        "type": "t_array(t_uint256)44_storage"
      },
      {
        "astId": 1416,
        "contract": "contracts/coordinape-protocol/contracts/cosoul/CoSoul.sol:CoSoul",
        "label": "_ownedTokens",
        "offset": 0,
        "slot": "201",
        "type": "t_mapping(t_address,t_mapping(t_uint256,t_uint256))"
      },
      {
        "astId": 1420,
        "contract": "contracts/coordinape-protocol/contracts/cosoul/CoSoul.sol:CoSoul",
        "label": "_ownedTokensIndex",
        "offset": 0,
        "slot": "202",
        "type": "t_mapping(t_uint256,t_uint256)"
      },
      {
        "astId": 1423,
        "contract": "contracts/coordinape-protocol/contracts/cosoul/CoSoul.sol:CoSoul",
        "label": "_allTokens",
        "offset": 0,
        "slot": "203",
        "type": "t_array(t_uint256)dyn_storage"
      },
      {
        "astId": 1427,
        "contract": "contracts/coordinape-protocol/contracts/cosoul/CoSoul.sol:CoSoul",
        "label": "_allTokensIndex",
        "offset": 0,
        "slot": "204",
        "type": "t_mapping(t_uint256,t_uint256)"
      },
      {
        "astId": 1759,
        "contract": "contracts/coordinape-protocol/contracts/cosoul/CoSoul.sol:CoSoul",
        "label": "__gap",
        "offset": 0,
        "slot": "205",
        "type": "t_array(t_uint256)46_storage"
      },
      {
        "astId": 14611,
        "contract": "contracts/coordinape-protocol/contracts/cosoul/CoSoul.sol:CoSoul",
        "label": "initiated",
        "offset": 0,
        "slot": "251",
        "type": "t_bool"
      },
      {
        "astId": 14613,
        "contract": "contracts/coordinape-protocol/contracts/cosoul/CoSoul.sol:CoSoul",
        "label": "baseUri",
        "offset": 0,
        "slot": "252",
        "type": "t_string_storage"
      },
      {
        "astId": 14615,
        "contract": "contracts/coordinape-protocol/contracts/cosoul/CoSoul.sol:CoSoul",
        "label": "signer",
        "offset": 0,
        "slot": "253",
        "type": "t_address"
      },
      {
        "astId": 14619,
        "contract": "contracts/coordinape-protocol/contracts/cosoul/CoSoul.sol:CoSoul",
        "label": "authorisedCallers",
        "offset": 0,
        "slot": "254",
        "type": "t_mapping(t_address,t_bool)"
      },
      {
        "astId": 14623,
        "contract": "contracts/coordinape-protocol/contracts/cosoul/CoSoul.sol:CoSoul",
        "label": "transferNonces",
        "offset": 0,
        "slot": "255",
        "type": "t_mapping(t_uint256,t_uint256)"
      },
      {
        "astId": 14627,
        "contract": "contracts/coordinape-protocol/contracts/cosoul/CoSoul.sol:CoSoul",
        "label": "syncNonces",
        "offset": 0,
        "slot": "256",
        "type": "t_mapping(t_uint256,t_uint256)"
      },
      {
        "astId": 14631,
        "contract": "contracts/coordinape-protocol/contracts/cosoul/CoSoul.sol:CoSoul",
        "label": "burnNonces",
        "offset": 0,
        "slot": "257",
        "type": "t_mapping(t_uint256,t_uint256)"
      },
      {
        "astId": 14635,
        "contract": "contracts/coordinape-protocol/contracts/cosoul/CoSoul.sol:CoSoul",
        "label": "mintNonces",
        "offset": 0,
        "slot": "258",
        "type": "t_mapping(t_address,t_uint256)"
      },
      {
        "astId": 14637,
        "contract": "contracts/coordinape-protocol/contracts/cosoul/CoSoul.sol:CoSoul",
        "label": "counter",
        "offset": 0,
        "slot": "259",
        "type": "t_uint256"
      },
      {
        "astId": 14641,
        "contract": "contracts/coordinape-protocol/contracts/cosoul/CoSoul.sol:CoSoul",
        "label": "blobs",
        "offset": 0,
        "slot": "260",
        "type": "t_mapping(t_uint256,t_uint256)"
      }
    ],
    "types": {
      "t_address": {
        "encoding": "inplace",
        "label": "address",
        "numberOfBytes": "20"
      },
      "t_array(t_uint256)44_storage": {
        "base": "t_uint256",
        "encoding": "inplace",
        "label": "uint256[44]",
        "numberOfBytes": "1408"
      },
      "t_array(t_uint256)46_storage": {
        "base": "t_uint256",
        "encoding": "inplace",
        "label": "uint256[46]",
        "numberOfBytes": "1472"
      },
      "t_array(t_uint256)49_storage": {
        "base": "t_uint256",
        "encoding": "inplace",
        "label": "uint256[49]",
        "numberOfBytes": "1568"
      },
      "t_array(t_uint256)50_storage": {
        "base": "t_uint256",
        "encoding": "inplace",
        "label": "uint256[50]",
        "numberOfBytes": "1600"
      },
      "t_array(t_uint256)dyn_storage": {
        "base": "t_uint256",
        "encoding": "dynamic_array",
        "label": "uint256[]",
        "numberOfBytes": "32"
      },
      "t_bool": {
        "encoding": "inplace",
        "label": "bool",
        "numberOfBytes": "1"
      },
      "t_mapping(t_address,t_bool)": {
        "encoding": "mapping",
        "key": "t_address",
        "label": "mapping(address => bool)",
        "numberOfBytes": "32",
        "value": "t_bool"
      },
      "t_mapping(t_address,t_mapping(t_address,t_bool))": {
        "encoding": "mapping",
        "key": "t_address",
        "label": "mapping(address => mapping(address => bool))",
        "numberOfBytes": "32",
        "value": "t_mapping(t_address,t_bool)"
      },
      "t_mapping(t_address,t_mapping(t_uint256,t_uint256))": {
        "encoding": "mapping",
        "key": "t_address",
        "label": "mapping(address => mapping(uint256 => uint256))",
        "numberOfBytes": "32",
        "value": "t_mapping(t_uint256,t_uint256)"
      },
      "t_mapping(t_address,t_uint256)": {
        "encoding": "mapping",
        "key": "t_address",
        "label": "mapping(address => uint256)",
        "numberOfBytes": "32",
        "value": "t_uint256"
      },
      "t_mapping(t_uint256,t_address)": {
        "encoding": "mapping",
        "key": "t_uint256",
        "label": "mapping(uint256 => address)",
        "numberOfBytes": "32",
        "value": "t_address"
      },
      "t_mapping(t_uint256,t_uint256)": {
        "encoding": "mapping",
        "key": "t_uint256",
        "label": "mapping(uint256 => uint256)",
        "numberOfBytes": "32",
        "value": "t_uint256"
      },
      "t_string_storage": {
        "encoding": "bytes",
        "label": "string",
        "numberOfBytes": "32"
      },
      "t_uint256": {
        "encoding": "inplace",
        "label": "uint256",
        "numberOfBytes": "32"
      },
      "t_uint8": {
        "encoding": "inplace",
        "label": "uint8",
        "numberOfBytes": "1"
      }
    }
  }
}