{
  "_format": "hh-sol-artifact-1",
  "contractName": "BatchNFTMinter",
  "sourceName": "contracts/BatchNFTMinter.sol",
  "abi": [
    {
      "inputs": [
        {
          "internalType": "address",
          "name": "nftContract",
          "type": "address"
        },
        {
          "internalType": "address[]",
          "name": "holders",
          "type": "address[]"
        },
        {
          "internalType": "address",
          "name": "token",
          "type": "address"
        },
        {
          "internalType": "uint256[]",
          "name": "amounts",
          "type": "uint256[]"
        },
        {
          "internalType": "uint256[]",
          "name": "unlockDates",
          "type": "uint256[]"
        }
      ],
      "name": "batchMint",
      "outputs": [],
      "stateMutability": "nonpayable",
      "type": "function"
    }
  ],
  "bytecode": "0x608060405234801561001057600080fd5b50611474806100206000396000f3fe608060405234801561001057600080fd5b506004361061002b5760003560e01c8063b7468c5314610030575b600080fd5b61004a60048036038101906100459190610bdd565b61004c565b005b8151845114801561005e575080518251145b61009d576040517f08c379a000000000000000000000000000000000000000000000000000000000815260040161009490610d09565b60405180910390fd5b600073ffffffffffffffffffffffffffffffffffffffff168373ffffffffffffffffffffffffffffffffffffffff16036100d657600080fd5b6000805b83518110156101d75760008482815181106100f8576100f7610d29565b5b602002602001015111610140576040517f08c379a000000000000000000000000000000000000000000000000000000000815260040161013790610da4565b60405180910390fd5b4283828151811061015457610153610d29565b5b60200260200101511161019c576040517f08c379a000000000000000000000000000000000000000000000000000000000815260040161019390610e10565b60405180910390fd5b8381815181106101af576101ae610d29565b5b6020026020010151826101c29190610e5f565b915080806101cf90610eb5565b9150506100da565b506101e4843330846102e8565b6101ef848783610501565b60005b83518110156102df578673ffffffffffffffffffffffffffffffffffffffff1663b273e65387838151811061022a57610229610d29565b5b602002602001015186848151811061024557610244610d29565b5b60200260200101518887868151811061026157610260610d29565b5b60200260200101516040518563ffffffff1660e01b81526004016102889493929190610f1b565b6020604051808303816000875af11580156102a7573d6000803e3d6000fd5b505050506040513d601f19601f820116820180604052508101906102cb9190610f75565b5080806102d790610eb5565b9150506101f2565b50505050505050565b60008473ffffffffffffffffffffffffffffffffffffffff166370a08231846040518263ffffffff1660e01b81526004016103239190610fa2565b602060405180830381865afa158015610340573d6000803e3d6000fd5b505050506040513d601f19601f820116820180604052508101906103649190610f75565b9050818573ffffffffffffffffffffffffffffffffffffffff166370a08231336040518263ffffffff1660e01b81526004016103a09190610fa2565b602060405180830381865afa1580156103bd573d6000803e3d6000fd5b505050506040513d601f19601f820116820180604052508101906103e19190610f75565b1015610422576040517f08c379a000000000000000000000000000000000000000000000000000000000815260040161041990611009565b60405180910390fd5b61042e85858585610613565b60008573ffffffffffffffffffffffffffffffffffffffff166370a08231856040518263ffffffff1660e01b81526004016104699190610fa2565b602060405180830381865afa158015610486573d6000803e3d6000fd5b505050506040513d601f19601f820116820180604052508101906104aa9190610f75565b90508282826104b99190611029565b146104f9576040517f08c379a00000000000000000000000000000000000000000000000000000000081526004016104f0906110a9565b60405180910390fd5b505050505050565b6000818473ffffffffffffffffffffffffffffffffffffffff1663dd62ed3e30866040518363ffffffff1660e01b815260040161053f9291906110c9565b602060405180830381865afa15801561055c573d6000803e3d6000fd5b505050506040513d601f19601f820116820180604052508101906105809190610f75565b61058a9190610e5f565b905061060d8463095ea7b360e01b85846040516024016105ab9291906110f2565b604051602081830303815290604052907bffffffffffffffffffffffffffffffffffffffffffffffffffffffff19166020820180517bffffffffffffffffffffffffffffffffffffffffffffffffffffffff838183161783525050505061069c565b50505050565b610696846323b872dd60e01b8585856040516024016106349392919061111b565b604051602081830303815290604052907bffffffffffffffffffffffffffffffffffffffffffffffffffffffff19166020820180517bffffffffffffffffffffffffffffffffffffffffffffffffffffffff838183161783525050505061069c565b50505050565b60006106fe826040518060400160405280602081526020017f5361666545524332303a206c6f772d6c6576656c2063616c6c206661696c65648152508573ffffffffffffffffffffffffffffffffffffffff166107639092919063ffffffff16565b905060008151111561075e578080602001905181019061071e919061118a565b61075d576040517f08c379a000000000000000000000000000000000000000000000000000000000815260040161075490611229565b60405180910390fd5b5b505050565b6060610772848460008561077b565b90509392505050565b6060824710156107c0576040517f08c379a00000000000000000000000000000000000000000000000000000000081526004016107b7906112bb565b60405180910390fd5b6107c98561088f565b610808576040517f08c379a00000000000000000000000000000000000000000000000000000000081526004016107ff90611327565b60405180910390fd5b6000808673ffffffffffffffffffffffffffffffffffffffff16858760405161083191906113c1565b60006040518083038185875af1925050503d806000811461086e576040519150601f19603f3d011682016040523d82523d6000602084013e610873565b606091505b50915091506108838282866108b2565b92505050949350505050565b6000808273ffffffffffffffffffffffffffffffffffffffff163b119050919050565b606083156108c257829050610912565b6000835111156108d55782518084602001fd5b816040517f08c379a0000000000000000000000000000000000000000000000000000000008152600401610909919061141c565b60405180910390fd5b9392505050565b6000604051905090565b600080fd5b600080fd5b600073ffffffffffffffffffffffffffffffffffffffff82169050919050565b60006109588261092d565b9050919050565b6109688161094d565b811461097357600080fd5b50565b6000813590506109858161095f565b92915050565b600080fd5b6000601f19601f8301169050919050565b7f4e487b7100000000000000000000000000000000000000000000000000000000600052604160045260246000fd5b6109d982610990565b810181811067ffffffffffffffff821117156109f8576109f76109a1565b5b80604052505050565b6000610a0b610919565b9050610a1782826109d0565b919050565b600067ffffffffffffffff821115610a3757610a366109a1565b5b602082029050602081019050919050565b600080fd5b6000610a60610a5b84610a1c565b610a01565b90508083825260208201905060208402830185811115610a8357610a82610a48565b5b835b81811015610aac5780610a988882610976565b845260208401935050602081019050610a85565b5050509392505050565b600082601f830112610acb57610aca61098b565b5b8135610adb848260208601610a4d565b91505092915050565b600067ffffffffffffffff821115610aff57610afe6109a1565b5b602082029050602081019050919050565b6000819050919050565b610b2381610b10565b8114610b2e57600080fd5b50565b600081359050610b4081610b1a565b92915050565b6000610b59610b5484610ae4565b610a01565b90508083825260208201905060208402830185811115610b7c57610b7b610a48565b5b835b81811015610ba55780610b918882610b31565b845260208401935050602081019050610b7e565b5050509392505050565b600082601f830112610bc457610bc361098b565b5b8135610bd4848260208601610b46565b91505092915050565b600080600080600060a08688031215610bf957610bf8610923565b5b6000610c0788828901610976565b955050602086013567ffffffffffffffff811115610c2857610c27610928565b5b610c3488828901610ab6565b9450506040610c4588828901610976565b935050606086013567ffffffffffffffff811115610c6657610c65610928565b5b610c7288828901610baf565b925050608086013567ffffffffffffffff811115610c9357610c92610928565b5b610c9f88828901610baf565b9150509295509295909350565b600082825260208201905092915050565b7f61727261792073697a652077726f6e6700000000000000000000000000000000600082015250565b6000610cf3601083610cac565b9150610cfe82610cbd565b602082019050919050565b60006020820190508181036000830152610d2281610ce6565b9050919050565b7f4e487b7100000000000000000000000000000000000000000000000000000000600052603260045260246000fd5b7f63616e74206d696e742077697468203000000000000000000000000000000000600082015250565b6000610d8e601083610cac565b9150610d9982610d58565b602082019050919050565b60006020820190508181036000830152610dbd81610d81565b9050919050565b7f6d75737420626520696e20746865206675747572650000000000000000000000600082015250565b6000610dfa601583610cac565b9150610e0582610dc4565b602082019050919050565b60006020820190508181036000830152610e2981610ded565b9050919050565b7f4e487b7100000000000000000000000000000000000000000000000000000000600052601160045260246000fd5b6000610e6a82610b10565b9150610e7583610b10565b9250827fffffffffffffffffffffffffffffffffffffffffffffffffffffffffffffffff03821115610eaa57610ea9610e30565b5b828201905092915050565b6000610ec082610b10565b91507fffffffffffffffffffffffffffffffffffffffffffffffffffffffffffffffff8203610ef257610ef1610e30565b5b600182019050919050565b610f068161094d565b82525050565b610f1581610b10565b82525050565b6000608082019050610f306000830187610efd565b610f3d6020830186610f0c565b610f4a6040830185610efd565b610f576060830184610f0c565b95945050505050565b600081519050610f6f81610b1a565b92915050565b600060208284031215610f8b57610f8a610923565b5b6000610f9984828501610f60565b91505092915050565b6000602082019050610fb76000830184610efd565b92915050565b7f54484c3031000000000000000000000000000000000000000000000000000000600082015250565b6000610ff3600583610cac565b9150610ffe82610fbd565b602082019050919050565b6000602082019050818103600083015261102281610fe6565b9050919050565b600061103482610b10565b915061103f83610b10565b92508282101561105257611051610e30565b5b828203905092915050565b7f54484c3032000000000000000000000000000000000000000000000000000000600082015250565b6000611093600583610cac565b915061109e8261105d565b602082019050919050565b600060208201905081810360008301526110c281611086565b9050919050565b60006040820190506110de6000830185610efd565b6110eb6020830184610efd565b9392505050565b60006040820190506111076000830185610efd565b6111146020830184610f0c565b9392505050565b60006060820190506111306000830186610efd565b61113d6020830185610efd565b61114a6040830184610f0c565b949350505050565b60008115159050919050565b61116781611152565b811461117257600080fd5b50565b6000815190506111848161115e565b92915050565b6000602082840312156111a05761119f610923565b5b60006111ae84828501611175565b91505092915050565b7f5361666545524332303a204552433230206f7065726174696f6e20646964206e60008201527f6f74207375636365656400000000000000000000000000000000000000000000602082015250565b6000611213602a83610cac565b915061121e826111b7565b604082019050919050565b6000602082019050818103600083015261124281611206565b9050919050565b7f416464726573733a20696e73756666696369656e742062616c616e636520666f60008201527f722063616c6c0000000000000000000000000000000000000000000000000000602082015250565b60006112a5602683610cac565b91506112b082611249565b604082019050919050565b600060208201905081810360008301526112d481611298565b9050919050565b7f416464726573733a2063616c6c20746f206e6f6e2d636f6e7472616374000000600082015250565b6000611311601d83610cac565b915061131c826112db565b602082019050919050565b6000602082019050818103600083015261134081611304565b9050919050565b600081519050919050565b600081905092915050565b60005b8381101561137b578082015181840152602081019050611360565b8381111561138a576000848401525b50505050565b600061139b82611347565b6113a58185611352565b93506113b581856020860161135d565b80840191505092915050565b60006113cd8284611390565b915081905092915050565b600081519050919050565b60006113ee826113d8565b6113f88185610cac565b935061140881856020860161135d565b61141181610990565b840191505092915050565b6000602082019050818103600083015261143681846113e3565b90509291505056fea264697066735822122077f8f565ab75063763d24b763dcb5a83355943094adb52f0f87c266f6381ecf064736f6c634300080d0033",
  "linkReferences": {},
  "deployedLinkReferences": {}
}